:10000000000C19000000000040210000021994D2E9
:1000100093D29275AD0C22021B0DE47889F608F696
:10002000788DF608F608F608F67887F608F67885EB
:10003000F608F67893F608F6900018E0FF120D7FA8
:10004000121381121C61120B497F0A121FA57895A9
:10005000A60608A60722FF022122AD07ED25E0240F
:1000600068F582E43400F583E07F00FEED25E024AE
:1000700069F582E43400F583E02FFFE43EFE2202BE
:100080000906900195EFF0E4900198F0A3F07F014C
:10009000121FA590019AEEF0A3EFF0D37896E694A4
:1000A0000018E69400400708E616187001167896C6
:1000B000E61846601690019AE0FEA3E07802CEC3EF
:1000C00013CE13D8F9F0EE90019AF0E49001B2F05B
:1000D000900195F0900010E0FF900195E0FEC39F25
:1000E0004003020440900091E0C394F05013EE25C9
:1000F000E02436F9D3E7941419E79400400302038F
:1001000037900195E0FF12004E900198EEF0A3EFBA
:10011000F0900195E0FF25E02446F9EF25E0245515
:10012000F8E6FE08E6FFD397EE199750030201ADFB
:10013000E025E02446F8C3EF96FDEE1896FC90010A
:1001400098E0C313FEA3E013FFD3ED9FEC9E40693C
:100150009001B2E004F09001B1E0705D900195F083
:10016000E0FF25E02453F582E43401F583E4F0A3B5
:10017000F0EF25E025E02423F582E43401F5831235
:100180000822000000009001957401F0E0FF25E0D6
:100190002453F582E43401F583E4F0A3F0EF25E085
:1001A00025E02423F582E43401F5831208220000BF
:1001B00000009001B17401F0229001B1E0700302DF
:1001C000029F900195E0FF25E02453F582E434017D
:1001D000F583E475F0011205C6EF25E025E0242340
:1001E000F582E43401F583C083C082E0F8A3E0F92E
:1001F000A3E0FAA3E0FBC000900195E025E02445D0
:10020000F8E6FE08E6FFE4FCFDD000EB2FFFEA3E37
:10021000FEED39FDEC38FCD082D083120816900137
:1002200095E025E02453F582E43401F583E0FEA354
:10023000E0FFD39407EE94004071AB07AA06E4F9FF
:10024000F8900195E025E025E02423F582E43401CF
:10025000F583E0FCA3E0FDA3E0FEA3E0FF12067D32
:10026000900195E0FD25E02455F8A60608A607EDC7
:1002700025E02453F582E43401F583E4F0A3F0EDA6
:1002800025E025E02423F582E43401F583120822D9
:1002900000000000900195E06005E49001B1F07F5E
:1002A0000A121FA57895A60608A6079001B1E0607E
:1002B00003020437900195E0FF25E02453F582E422
:1002C0003401F583E0FCA3E04C701FEF25E02445EA
:1002D000F8E6FC08E6FDEF25E02443F582E434016E
:1002E000F583ECF0A3EDF0020363900195E0FD25AA
:1002F000E02443F582E43401F583E0FEA3E0FFED62
:1003000025E02445F8E6FC08E6FD1220E9AC06AD40
:1003100007900198E0C313FEA3E013FFD3ED9FEC19
:100320009E404C900195E0FF25E02445F8E6FC084E
:10033000E6FDEF25E02443F582E43401F583ECF09B
:10034000A3EDF0900195E0FF25E02453F582E4341D
:1003500001F583E4F0A3F0EF25E025E02423F58206
:10036000E43401F5831208220000000002043790F3
:100370000195E0FF25E02445F8E6FC08E6FDA3EC46
:10038000F0A3EDF07896E618467064EF25E024556A
:10039000F8E6FE08E6FF1220E9900198E0FAA3E0F3
:1003A000FBC39FEA9E5048900195E0FF25E024455D
:1003B000F8E6F58308E6F582EF25E02455F8E6FC3B
:1003C00008E6FDC39582EC9583500CEAC313FEEB5F
:1003D000132DFFEC3E8011900198E0C313FEA3E0C3
:1003E00013FFC3ED9FFFEC9E900196F0A3EFF090FA
:1003F0000195E025E025E02423F582E43401F5832E
:10040000C083C082E0F8A3E0F9A3E0FAA3E0FB9088
:100410000196E0FEA3E0FFE4FCFDEB2FFFEA3EFEC9
:10042000ED39FDEC38FCD082D0831208169001958E
:10043000E025E02453F582E43401F583E475F0010E
:100440001205C6900195E004F00200C8E49001B2E4
:10045000F0900195F0900010E0FF900195E0FEC350
:100460009F502EEE25E02453F582E43401F583E01D
:10047000FEA3E0FF90019AE0FCA3E0FDD3EF9DEE28
:100480009C40069001B2E004F0900195E004F080F9
:10049000C49001B2E07003020518E4900195F09059
:1004A0000010E0FF900195E0FEC39F5077EE25E03D
:1004B0002453F582E43401F583E0FEA3E0FF4E60AF
:1004C0005AAB07AA06E4F9F8900195E025E025E08B
:1004D0002423F582E43401F583E0FCA3E0FDA3E0EE
:1004E000FEA3E0FF12067D900195E0FD25E0245576
:1004F000F8A60608A607ED25E02453F582E43401AA
:10050000F583E4F0A3F0ED25E025E02423F582E473
:100510003401F58312082200000000900195E004E8
:10052000F002049322BB010689828A83E0225002F2
:10053000E722BBFE02E32289828A83E49322BB0185
:100540000CE58229F582E5833AF583E0225006E93D
:100550002582F8E622BBFE06E92582F8E222E58242
:1005600029F582E5833AF583E49322EF8DF0A4A880
:10057000F0CF8CF0A428CE8DF0A42EFE22BC000B70
:10058000BE0029EF8DF084FFADF022E4CCF875F0C9
:1005900008EF2FFFEE33FEEC33FCEE9DEC984005A8
:1005A000FCEE9DFE0FD5F0E9E4CEFD22EDF8F5F06E
:1005B000EE8420D21CFEADF075F008EF2FFFED3376
:1005C000FD4007985006D5F0F222C398FD0FD5F0F4
:1005D000EA22C5F0F8A3E028F0C5F0F8E58215821C
:1005E00070021583E038F022A3F8E0C5F025F0F0A2
:1005F000E582158270021583E0C838F0E822E88FA2
:10060000F0A4CC8BF0A42CFCE98EF0A42CFC8AF096
:10061000EDA42CFCEA8EF0A4CDA8F08BF0A42DCC98
:100620003825F0FDE98FF0A42CCD35F0FCEB8EF0F1
:10063000A4FEA9F0EB8FF0A4CFC5F02ECD39FEE4D7
:100640003CFCEAA42DCE35F0FDE43CFC2275F0081C
:10065000758200EF2FFFEE33FECD33CDCC33CCC50A
:100660008233C5829BED9AEC99E58298400CF58225
:10067000EE9BFEED9AFDEC99FC0FD5F0D6E4CEFB97
:10068000E4CDFAE4CCF9A88222B800C1B90059BA85
:10069000002DEC8BF084CFCECDFCE5F0CBF97818B3
:1006A000EF2FFFEE33FEED33FDEC33FCEB33FB10AD
:1006B000D703994004EB99FB0FD8E5E4F9FA2278C7
:1006C00018EF2FFFEE33FEED33FDEC33FCC933C9D9
:1006D00010D7059BE99A4007EC9BFCE99AF90FD8E3
:1006E000E0E4C9FAE4CCFB2275F010EF2FFFEE3303
:1006F000FEED33FDCC33CCC833C810D7079BEC9A42
:10070000E899400AED9BFDEC9AFCE899F80FD5F0CA
:10071000DAE4CDFBE4CCFAE4C8F922EB9FF5F0EA89
:100720009E42F0E99D42F0E89C45F022E8600FEC23
:10073000C313FCED13FDEE13FEEF13FFD8F122BB44
:10074000010789828A830208775005E9F80207C108
:10075000BBFE05E9F802088389828A8302088FBB01
:10076000010DE58229F582E5833AF5830208775089
:1007700007E92582F80207C1BBFE07E92582F802D6
:100780000883E58229F582E5833AF58302088FBB69
:10079000010789828A830208165005E9F802080ACF
:1007A000BBFE05E9F80208C822BB010DE58229F568
:1007B00082E5833AF5830208165007E92582F8029C
:1007C000080ABBFE07E92582F80208C822E6FC08F1
:1007D000E6FD08E6FE08E6FF22E6FB08E6F908E685
:1007E000FA08E6CBF822BB010DE58229F582E58304
:1007F0003AF58302089F5007E92582F80207CDBB2E
:10080000FE07E92582F80208ABE58229F582E58337
:100810003AF5830208B8ECF608EDF608EEF608EFB4
:10082000F622ECF0A3EDF0A3EEF0A3EFF022A88205
:100830008583F0D083D08212083912083912083922
:10084000120839E473E493A3C583C5F0C583C8C512
:1008500082C8F0A3C583C5F0C583C8C582C822BBC2
:10086000010DE58229F582E5833AF58302082250DD
:1008700007E92582F80208D4BBFE07E92582F802C1
:1008800008ED22E0FCA3E0FDA3E0FEA3E0FF22E2EE
:10089000FC08E2FD08E2FE08E2FF22E493FC74019A
:1008A00093FD740293FE740393FF22E0F8A3E0F932
:1008B000A3E0FAA3E0FB22E2FB08E2F908E2FA086F
:1008C000E2CBF822E493F8740193F9740293FA747A
:1008D0000393FB22ECF208EDF208EEF208EFF222AD
:1008E000D083D082E493F608740193F608740293DF
:1008F000F608740393F6740473D083D082E493F201
:1009000008740193F208740293F208740393F2746A
:100910000473C0E0C0F0C083C082C0D075D008307E
:10092000FD03020B3220FC030209A578B9E6F5FCB1
:1009300053A1BFC2FF751001AB12AA13A9148510F1
:1009400082758300120532F511C2FF43F92078BC8D
:10095000761308768820FF1220FA0F78BDE6161865
:1009600070011678BDE6184670EB30FA03020B32C0
:100970008511FC0510AB12AA13A91485108275838A
:1009800000120532F511C2FF43F92078BC76130836
:10099000768820FF1220FA0F78BDE616187001162F
:1009A00078BDE6184670EB78BDE6184670BC020BC1
:1009B0003253A1BFC2FF751000C2FF43F92078BCBB
:1009C000761308768820FF1220FA0F78BDE61618F5
:1009D00070011678BDE6184670EB20FB4085FC11CF
:1009E00030FA03020B3274982510F8A6110510C2D4
:1009F000FF43F92078BC761308768820FF1220FA8E
:100A00000F78BDE6161870011678BDE6184670EB33
:100A100085FC1178BDE6184670C6020B3285FC10C5
:100A20007897A610AB12AA13A914AF1005108F82E5
:100A3000758300120532F511C2FF43F92078BC76A8
:100A40001308768820FF1220FA0F78BDE61618707A
:100A5000011678BDE6184670EB20FC03020B057802
:100A600097E6FF54F06480706B74002FF582E434D5
:100A700000F583E075F003A424F5F582E4341FF556
:100A800083E493F9740193FA740293900181C9F09D
:100A9000A3EAF0A3E9F030FA03020B32900181E0FF
:100AA000FBA3E475F0011205DCA9F0FA120519F5B3
:100AB000FCC2FF43F92078BC761308768820FFD665
:100AC00020FAD378BDE6161870011678BDE61846F0
:100AD00070EB80C220FA678511FCAB12AA13A9142F
:100AE000AF1005108F82758300120532F511C2FF19
:100AF00043F92078BC761308768820FFD720FAD4F3
:100B000078BDE6161870011678BDE6184670EB80C1
:100B1000C37897E6062498F8A6FCC2FF43F920782C
:100B2000BC761308768820FF1220FA0F78BDE616EF
:100B30001870011678BDE6184670EB30FAD3C2FF84
:100B400043F92043A14078A47601D0D0D082D0834D
:100B5000D0F0D0E032E4900195F0900010E0FF90EA
:100B60000195E0C39F505EE0FB25E025E02423F5DE
:100B700082E43401F58312082200000000EB25E036
:100B80002443F582E43401F583E4F0A3F090019569
:100B9000E0FF25E02453F582E43401F583E4F0A37B
:100BA000F0900120E0FBA3E0FAA3E0F975F004EF78
:100BB000A4F58285F083120853000000009001958F
:100BC000E004F080951217BFE4900195F0900010BA
:100BD000E0FF900195E0FEC39F5069EE25E025E01F
:100BE0002423F582E43401F583C083C082E0FCA3B2
:100BF000E0FDA3E0FEA3E0FF900120E0FBA3E0FA0C
:100C0000A3E0F9900195E075F004A4F58285F083E6
:100C10001207DAEF2BFFEE3AFEED39FDEC38FCD08F
:100C200082D083120816900195E025E02453F582C6
:100C3000E43401F583E475F0011205C6900195E0F6
:100C400004F08089C3900154E09405900153E0942E
:100C5000005003020BB9E4900195F0900010E0FF02
:100C6000900195E0FEC39F4003020D78EE25E0243D
:100C700053F582E43401F583E0FEA3E0FBAA06E429
:100C8000F9F8900195E025E025E02423F582E4348D
:100C900001F583E0FCA3E0FDA3E0FEA3E0FF120664
:100CA0007D900196120816E47F787E69FDFC900124
:100CB00096E0F8A3E0F9A3E0FAA3E0FBD312070F54
:100CC000403E900196E0FCA3E0FDA3E0FEA3E024FB
:100CD00058FFEE349EFEED34FFFDEC34FFFC900136
:100CE00095E0FB25E025E02400F582E43401F5835E
:100CF000120816EB25E02455F876610876A8802EB8
:100D0000900195E0FB25E025E02400F582E4340124
:100D1000F58312082200000000900196A3A3E0FED4
:100D2000A3E0FFEB25E02455F8A60608A6079001EE
:100D300095E0FF25E02425F8E4F608F6EF25E02409
:100D400055F8E6FE08E6FFE0FD25E0246DF8A6066E
:100D500008A607ED25E025E02423F582E43401F51B
:100D60008312082200000000900195E025E0245342
:100D7000F582E43401F583E4F0A3F0900195E004FA
:100D8000F0020C4F900097E004F022900195EFF0F4
:100D9000E4A3F0A31208220000000090019BE4F0FD
:100DA000A37464F0A3E4F0A37464F0E4A3F09000EF
:100DB00019E0F5C2787D76200876109001A27403C0
:100DC000F0A374BBF0E4F5C375BB2775B310F5AAA7
:100DD000F5BEF5BFF5BC75BD2175E61890FB057431
:100DE0003BF0E490FB09F090FB0A74F0F090FB0BF1
:100DF000743CF090FB0CF090FB0D7401F0E490015A
:100E0000A0F0900010E0FF9001A0E0C39F502E9052
:100E10000120E0FBA3E0FAA3E0F99001A0E0FF7558
:100E2000F004A4F58285F0831208530000000074DA
:100E3000652FF8760A9001A0E004F080C578657609
:100E40000A087614E4F5BC9001A0F090FB0674FF4C
:100E5000F090FB07F090FB08F0E49001A1F0900007
:100E600010E0FF9001A1E0FEC39F5036121A6A9075
:100E7000FB00E0FCA3E0FDA3E0FEA3E0FF90012067
:100E8000E0FBA3E0FAA3E0F99001A1E075F004A46F
:100E9000F58285F08312079DD2D89001A1E004F07D
:100EA00080BCE490FB06F090FB07F090FB08F0900C
:100EB00001A1F0900010E0FF9001A1E0FEC39F505F
:100EC00058121A6A900120E0FBA3E0FAA3E0F9901F
:100ED00001A1E075F004A4F582E92582F9EA35F074
:100EE000FAC003C002C00112073390FB00E0F8A370
:100EF000E0F9A3E0FAA3E0FBC3EF9BFFEE9AFEED5F
:100F000099FDEC98FCD001D002D003120783D2D80F
:100F10009001A1E004F0020EA7E4900196F0900188
:100F2000A1F0900010E0FF9001A1E0C39F505A9003
:100F30000120E0FBA3E0FAA3E0F99001A1E075F045
:100F400004A4F58285F0831207539001A1E0FD25EA
:100F5000E02415F8A60608A607ED25E02415F8E616
:100F6000FE08E6FFD39001A3E09F9001A2E09E401F
:100F70000A9001A1E02465F8068006900196E0043D
:100F8000F09001A1E004F08099900010E0FF900142
:100F900096E0C39F500F9001A0E004F0E0C39432AC
:100FA0005003020E3F22E4900194F0900010E0FF05
:100FB000900194E0C39F400302110B900120E0FBDD
:100FC000A3E0FAA3E0F9900194E075F004A4F5829F
:100FD00085F083120753EC4D4E4F70030210F290D0
:100FE0000194E025E025E02400F582E43401F58356
:100FF000E0F8A3E0F9A3E0FAA3E0FBD312070F4067
:10100000037F0322900120E0FBA3E0FAA3E0F99024
:101010000194E075F004A4F58285F08312075390E3
:101020000194E025E025E02400F582E43401F58315
:10103000E0F8A3E0F9A3E0FAA3E0FBC3EF9BFFEE27
:101040009AFEED99FDEC98FC78BE12080AE47FFF49
:101050007EFFFDFC78BE1207CDC312070F40037F51
:10106000032278BE1207C1900194E0FD25E02445DB
:10107000F8A60608A607ED25E0246DF8E6FE08E6CA
:10108000FFE4FCFD78C212080AE47F1FFEFDFC7835
:10109000C21207CD1205F278BE1207CDEF2BFFEE7C
:1010A0003AFEED39FDEC38FC7805120720900194EA
:1010B000E0FD25E0246DF8A60608A607ED25E0244E
:1010C00056F9ED25E02445F8E6FE08E6FFD397EE55
:1010D0001997401BE025E02456F8C3EF96FFEE1861
:1010E00096FEE025E02425F8A60608A607801F90B6
:1010F0000194E025E02425F8E4F608F6801090013C
:1011000094E025E02425F8E4F608F67F0322900118
:1011100094E004F0020F9F7F0722E490019CF0A36B
:10112000F0A3F0A3F07815E6FE08E6FF900198EE34
:10113000F0A3EFF0A3EEF0A3EFF0E4FFF9FE9000D0
:1011400010E0FDEEC39D5055EE25E02415F8E6FCB9
:1011500008E6FDC3900199E09D900198E09C501134
:10116000AF06EE25E02415F8E6FD08E6CDF0A3ED88
:10117000F0EE25E02415F8E6FC08E6FDD390019B8F
:10118000E09D90019AE09C4011A906EE25E024150F
:10119000F8E6FD08E6CDF0A3EDF00E80A1900098F2
:1011A000EFF0A3E9F0E4900198F0A3F0FE900010B6
:1011B000E0FDEEC39D507AEE25E02415F8E6FC082C
:1011C000E6FDD39423EC9400400690019FE004F0E8
:1011D000D3ED942DEC9400400690019CE004F0D3F4
:1011E000ED9437EC9400400690019DE004F0D3EDBF
:1011F0009441EC9400400690019EE004F090009829
:10120000E06E6029EE25E02415F8E6FC08E6FDC353
:10121000900199E09D900198E09C5011AF06EE2559
:10122000E02415F8E6FD08E6CDF0A3EDF00E02117E
:10123000A190009DEFF090019FE090009FF0900141
:101240009CE090009AF090019DE090009BF090014E
:101250009EE090009CF0224101B3FF4801A40001F0
:1012600002040810204050018400FA00E6012C011D
:101270002C012C012C012C012C48017701020408BF
:101280001020408041017F00610000000D11FFFF30
:10129000FFFFFFFFFFFFFFFFFFFFFFFF0208388098
:1012A00000000032180C060000280A0402000000AA
:1012B000000000001905FFFF000000AA0000000068
:1012C00000000000006464646464646464000000FE
:1012D000000000000000000000000000000000000E
:1012E00000000000000000000000000000000000FE
:1012F0000000000000FA00E6012C012C012C012C5A
:10130000012C012C012C012C012C012C00010203C9
:101310000405060708090A0B0C0D0E0F01FFFF005C
:10132000008000000000000000000000000000003D
:1013300000000000000000000000000000000000AD
:10134000000000000000000000000000000000009D
:10135000000000000000000000000000000000008D
:10136000000000000000000000000000000000007D
:10137000000000000000000000000000000000006D
:101380000000000000000000000000FF0075E618EB
:1013900075CF1F75C30175BB3875B3809001957407
:1013A00007F0900195E0FF7021047E00A8070880F7
:1013B00005C333CE33CED8F9FF90FB0AE0FDEF5DD5
:1013C0007008900195E014F080D8900195E0FF74CA
:1013D00001A807088002C333D8FC90FB0AF090FBF9
:1013E0000B7401F090FB0CF09001961208220000A3
:1013F0000000E4900195F0900010E0FF900195E06E
:10140000FEC39F505274002EF582E43400F583E051
:10141000FFF4603B121A8790FB00E0FCA3E0FDA301
:10142000E0FEA3E0FF900196E0F8A3E0F9A3E0FA64
:10143000A3E0FBC312070F501490FB00E0FCA3E0F5
:10144000FDA3E0FEA3E0FF900196120816D2D8900B
:101450000195E004F080A0900196E0FCA3E0FDA3DC
:10146000E0FEA3E0FFE47B02FAF9F81205F2900136
:1014700096120816900196E0FCA3E0FDA3E0FEA3FF
:10148000E0FF7810120720900020EFF0900196E026
:10149000FCA3E0FDA3E0FEA3E0FF78081207209084
:1014A0000021EFF0900196A3A3A3E0900022F02288
:1014B000E4FF12004EE4FCFDC004C005C006C007F6
:1014C0007825E6FE08E6FFE47B64FAF9F81205F2F7
:1014D000D003D002D001D00012067D900196EEF02C
:1014E000A3EFF09001957401F0900010E0FF9001DF
:1014F00095E0F9C39F505EAF0112004EE4FCFDC0C1
:1015000004C005C006C007900195E025E02425F839
:10151000E6FE08E6FFE47B64FAF9F81205F2D00370
:10152000D002D001D00012067D900198EEF0A3EF1A
:10153000F0D3900197E09F900196E09E400F9001BC
:1015400098E0FFA3E0900196CFF0A3EFF090019513
:10155000E004F08094E4900195F0900010E0FF909A
:101560000195E0F9C39F5068AF0112004EE4FCFD05
:10157000C004C005C006C007900195E025E0242501
:10158000F8E6FE08E6FFE47B64FAF9F81205F2D00B
:1015900003D002D001D00012067D900198EEF0A396
:1015A000EFF0900196E0FCA3E0FDC3EF9DFDEE9C03
:1015B000FC900195E0FB25E02415F8A60408A6059B
:1015C000EB25E02435F8A60608A607E004F0808A9B
:1015D000229001947408F01214A412210EBF010A83
:1015E000900092E0FF12007680030216C57F02127F
:1015F0001FA5D3788EE69F18E69E40028015788757
:10160000E6FE08E6FFD39400EE94004014EF640178
:101610004E7006121F4B0216C07888E6161870012D
:1016200016900092E09001B3F02410605414605FB3
:1016300024F27073786DE6FE08E6FF08E6FC08E623
:10164000FD1220E9D3EF9464EE9400400A789406EA
:10165000E6187009068006E47893F608F67F07120C
:101660001FA5D37894E69F18E69E400690019474D7
:1016700003F0121F4BE47885F608F608F608F680AA
:1016800050121F4B7888E6184670467F06800C1271
:101690001F4B7888E6184670387F04121FA578879C
:1016A000A60608A607802AE47887F608F69001B314
:1016B000E0FF121D1B788606E6187001067F0512F2
:1016C0001FA5D37886E69F18E69E400512000E807F
:1016D00000900194E0FF22121BF912000390009089
:1016E0007401F0121FCD121D6E121EB443D40843B4
:1016F000DC0853E4F7D2B390009E74FFF0121F1C75
:1017000043D40343E40343B003900090E024FD601E
:101710003114603924FE604E14605514606524074E
:101720007067121E01121FCD121CC512211C12005F
:101730000E121F1C7F0A121FA57895A60608A60781
:101740008041121CC512211C12000E80369001AE81
:10175000E004F070069001ADE004F01217BF9000B5
:10176000907406F08023120F9A900090EFF0801989
:101770001215C5900090EFF078A5E678B9F6121B27
:101780008780069000907404F09000FBE06029E4EC
:1017900078A4F6C2B3F0900175F0A3F0900176E062
:1017A00004F07006900175E004F0900175E070049B
:1017B000A3E0645070E6D2B378A4E6600678A5E6AC
:1017C0004408F6D2D8121E420216FD90001AE0908C
:1017D000019CF0E490019AF0900010E0FF90019AD3
:1017E000E0FEC39F5024900120E0FBA3E0FAA3E0B9
:1017F000F975F004EEA4F58285F083120853000019
:10180000000090019AE004F080CE75E61875CF1FB5
:1018100090FB0674FFF090FB07F090FB08F0787DDA
:101820007620087610900020E0F5C3A3E0F5BBA376
:10183000E0F5B3E4F5BC90019AF090019CE0FF90D4
:10184000019AE0C39F506AE4A3F0900010E0FF907B
:10185000019BE0FEC39F5050121A6A900120E0FBEA
:10186000A3E0FAA3E0F990019BE075F004A4F582EF
:10187000E92582F9EA35F0FAC002C0011207339077
:10188000FB00E0F8A3E0F9A3E0FAA3E02FFFEA3EB3
:10189000FEE93DFDE83CFCD001D002120783D2D81E
:1018A00090019BE004F080A290019AE004F00218FD
:1018B0002E75E61875CF1F2212110E900010E0FF52
:1018C000900091E0FEC39F5013EE25E02436F9C34B
:1018D000E7943C19E794004003E0FF22900098E071
:1018E000FE25E02416F9D3E7943C19E7940040095B
:1018F000900091E0FFF46004227FFF22D3796EE72D
:1019000078709619E718964007E4900197F08006E2
:101910009001977401F0900197E06E7040786DE649
:10192000FE08E6FF08E6FC08E6FD1220E9900195B6
:10193000EEF0A3EFF07845E6FE08E6FF08E6FC08C7
:10194000E6FD1220E9900196E02432FD900195E039
:101950003400FCC3EF9DEE9C50407FFF2290009826
:10196000E025E02445F8E6FC08E6FD900197E02537
:10197000E02446F9D3E79D19E79C40037FFF2290BE
:101980000098E025E0246EF8E62432FF18E436FEE5
:10199000C3ED9FEC9E50037FFF22900098E0FF2252
:1019A00043F580C2DC0020DCF790FF03E493FFF4F2
:1019B000FE90FF02E493FDB506048D9A8003759AAC
:1019C0004C90FF05E493FFF4FE90FF04E493FDB513
:1019D00006048D8480037584049000007F007E04DB
:1019E000E4F0A3DFFCDEFA78FFE4F6D8FD7581C5EC
:1019F000021A250200000216CBE493A3F8E493A395
:101A00004003F68001F208DFF48029E493A3F85440
:101A100007240CC8C333C4540F4420C8834004F4C3
:101A200056800146F6DFE4800B01020408102040D6
:101A30008090124BE47E019360BCA3FF543F30E5DD
:101A400009541FFEE493A360010ECF54C025E0604B
:101A5000A840B8E493A3FAE493A3F8E493A3C8C519
:101A600082C8CAC583CAF0A3C8C582C8CAC583CA0A
:101A7000DFE9DEE780BEE0FF2465F8E6F5BD747DB2
:101A80002FF8E690FB04F074002EF582E43400F5A4
:101A900083E0FFEF131313541FFEEF540790209AB7
:101AA00093FDEFD3941740037F0022EE14600F14D0
:101AB000601424027018ED42E1ED42D98013ED422A
:101AC000E2ED42DA800BED42E3ED42DB80037F0082
:101AD00022EF4420F5E675C70D000000000000432A
:101AE000C101E5C130E1FB53C1FD75E618EE14609C
:101AF0000F14601424027018EDF452E152D98013CF
:101B0000EDF452E252DA800BEDF452E352DB800343
:101B10007F0022E4F5C77F0122C0E0C0F0C083C08F
:101B200082C0D075D000C000C004C005C006C00788
:101B3000C28D758CFD758A869001B5E004F0700643
:101B40009001B4E004F09001B4E0FEA3E0FF7C0754
:101B50007DD0120571ED4C70259001ADE0FEA3E043
:101B6000FFD3940AEE940040089001AFEEF0A3EF8B
:101B7000F09001ADE4F0A3F09001B4F0A3F0D00731
:101B8000D006D005D004D000D0D0D082D083D0F001
:101B9000D0E032E4900194F0900194E0FF25E0243D
:101BA00035F8E6FC08E6FDEF75F008A424ABF8A6CE
:101BB0000408A605E0FF25E02425F8E6FC08E6FD7C
:101BC000EF75F008A424ADF8A60408A6059001203E
:101BD000E0FBA3E0FAA3E0F9900194E075F004A41F
:101BE000F58285F08312075378081207209001943C
:101BF000E075F008A424AFF8A60608A607E004F0F4
:101C0000E0B402942243850343910190FF05E493DD
:101C1000FFF4FE90FF04E493FDB506048D84800379
:101C20007584049000F2EDF0A3EFF090FF03E493CD
:101C3000FFF4FE90FF02E493FDB506048D9A800345
:101C4000759A4C9000F0EDF0A3EFF053E12053D5DE
:101C50002053802053E23C53DD3C53903C53E3033C
:101C600053E50353A00353E40B53B00B2290001928
:101C7000E0F5C2900018E090FB04F0900020E0F541
:101C8000C3A3E0F5BBA3E0F5B3E4F5AA900014E02C
:101C9000F5BEA3E0F5BFA3E0F5BCA3E0F5BD75E696
:101CA0001890FB05743BF090FB0674FFF090FB0767
:101CB000F090FB08F0E490FB09F090FB0A74F0F060
:101CC00090FB0B743CF090FB0CF090FB0D7401F05A
:101CD0002290009174FFF0A3F0E4A3F07885F60859
:101CE000F67889F608F608F608F608F608F608F613
:101CF00008F67887F608F67893F608F6FF90001055
:101D0000E0FEEFC39E501F900120E0FBA3E0FAA38A
:101D1000E0F975F004EFA4F58285F0831208530012
:101D20000000000F80D722E4FE900010E0FDEFC31A
:101D30009D501E900091E06F6017E47885F608F6DC
:101D400074A42FF582E43401F583E0FE900091EF56
:101D5000F0900091E0FF90009EE06F6014EF14603F
:101D60000304700D9000FBE0700704F0EE0478A50A
:101D7000F6900091E090009EF022E478A5F60876B7
:101D80001908F608F6FFEF75F008A424A9F8760004
:101D900008763CEF75F008A424ABF8E4F608F6EFFB
:101DA00075F008A424ADF8E4F608F6EF75F008A481
:101DB00024AFF8E4F608F60FEFB402CA7512007506
:101DC00013007514A522EF131313541FFEEF5407CD
:101DD0002477F582E43401F583E0FFEE14601214F9
:101DE000601A24027021EF42E1EF42D9EF42D18024
:101DF00019EF42E2EF42DAEF42D2800EEF42E3EF18
:101E000042DBEF42D380037F00227F012290FFFE5E
:101E1000E493FFF4FEA3E493FDB5060A8D8F9000D2
:101E20002F74AAF08009758F2590002F74FFF0752C
:101E3000C60C9000F4EDF0A3EFF0E4F5C7F5C17522
:101E4000CE4275D6061220FF12207BD2AF227898A0
:101E5000E6FF6032E4F6EF24E0600C24A0600D247D
:101E60007070237F018002E4FF0220B7121F7912F5
:101E700020D112201953DCF753E4F753D4F7D2B32F
:101E80009000907401F022E4FEEE75F003A424A209
:101E9000F582E43420F583E493FDF4601FEFB5058B
:101EA00016EE75F003A424A3F582E43420F583E450
:101EB00093FE740193FF220EEEB407CDE4FEFF22E1
:101EC0007E007FE0E4FDED25E0243CF582E4342053
:101ED000F583E493F4601EED25E0243DF582E434BF
:101EE00020F583E493FCEF2DF582E43EF583ECF0DE
:101EF0000DEDB410D12290001FE0FE900092E06F33
:101F00006005EFF0E4A3F0900092E0B4FF02E4FE7D
:101F1000AF06900093E004F0C39F50037F0022902F
:101F200000937404F07F012243B14053FAF790FF0D
:101F3000F8E493B4F80B43FA0443F90243F901803F
:101F40000343FA0443F90243F90153F9BF75FB4017
:101F500053FAFD43A14022E47885F608F6900091FB
:101F600074FFF090009EE0FFF46013EF1460030430
:101F7000700C9000FB7401F078A5E64408F6900020
:101F80009E74FFF022E4F5D9F5D1F5E1F5D5758021
:101F9000FFF5DAF5D2F5E2F5DD7590FFF5DBF5D367
:101FA000F5E3F5E575A0FF43DC0843E40853D4F7F7
:101FB000229000E0EFB4FF057F017E0022E5822F32
:101FC000F582E43583F583E0FB9001AFE0FCA3E00C
:101FD000FDAF037E0012055F22E4900097F09001B0
:101FE000ADF0A3F09001AFF0A37420F090002A743C
:101FF000FFF09001207401F0A37400F0A374A0F02E
:102000002200004500006D00005500005D00001535
:1020100000001D00002500002D010091000065005A
:10202000007D000067AFD653C7FBE4F5D6C2D95395
:10203000A1EF539AF05391FE5387FC4387020000AF
:102040004391018FD60220FF00020101020103012A
:102050000401051E06050702080A09020A020B28E8
:102060000C3C0D1E0E01FF01E4FD900010E0FFEDA1
:10207000C39F501274002DF582E43400F583E0FF15
:10208000121DBA0D80E422438901C28DD2A953B733
:10209000FD53B8FDE49001B4F0A3F0758CFD758A92
:1020A00086D28CD2AF2201020408102040800105A4
:1020B00021060995020CF10C0F411411A8041662B7
:1020C000FF00FFEFB40111C293C2927F0A121FA555
:1020D0007895A60608A60722D293D2922243DC085E
:1020E00043E40853D4F7D2B353B2FDE4F5BA5391A5
:1020F000DF43A10222D3EF9DEE9C4007EF9DFFEE50
:102100009CFE22C3ED9FFFEC9EFE22D2DFC2DA537B
:102110008E1F438EA0D2D8D2D9221218AC121EEA3A
:10212000EF7002FF227F012212205C021C6153B279
:10213000DF32FFFFFFFFFFFFFFFFFFFFFFFFFFFF9C
:0C214000FFFFFFFFFFFFFFFFFFFFFFFF9F
:00000001FF
