:10A8AF0000006D848AD09E58AC4CB6C2BEE69000B4
:10A8BF0000000F010E020D040C050B060A080A0A10
:10A8CF000909090B090C080C080D080E070E070FD4
:10AB5B00901107E0FEA3E0F5828E83E0227D017B5E
:06AB6B00FF7E000252A86B
:10A9890012AB5BFFD394504007759B008F9A800AE6
:10A9990012AB5BFF7401F59B8F9AD29AC29BC29C42
:05A9A900C298C29922D2
:050006008E9B8F9A2281
:08AC0900C23512A3A002A989C3
:10A3A00078A07C0C7AA879AF7F1012AB68C2EDD28E
:10A3B000EAD2EED2EBD2EFD2ECE4F58BF58A75ABB4
:10A3C000B675AAC2D28BD288E4F593F592F5B3F5AF
:10A3D000B2C28CC289C28ED28FF5BBF5BAD28DC201
:10A3E0008AF5C8F5B8D2A8D2A9C2AAC2ABC2ACC27B
:0BA3F000ADC2E8C2E9C2AED2AFD2C1DC
:01A3FB00223F
:03000300029F0A4F
:109F0A00C0E0C0F0C083C082C0D075D000C000C01D
:109F1A0001C002C003C004C005C006C007901348B0
:109F2A00E4F09011B212AB5E30E70312AB9C302E14
:069F3A0062D23530175F12
:109F400078807C0C7AA879BF7F2012AB6890110BC7
:109F5000E0FEA3E0FFF5828E83E025E02480F58219
:109F6000E4340CF583E0FD9011B4E0FAA3E0F5824F
:109F70008A83EDF08F828E83E025E02481F582E4F0
:109F8000340CF583E0FF9011CAE0FCA3E0F5828C6D
:0B9F900083EFF012AB5B759B00F59AAD
:109F9B008002D22CD007D006D005D004D003D0023B
:0F9FAB00D001D000D0D0D082D083D0F0D0E0321F
:03000B0002AB162F
:10AB1600C0E0C083C082C288901348E004F0D288A7
:07AB2600D082D083D0E032A1
:03001300020022C6
:0100220032AB
:03001B0002002AB6
:01002A0032A3
:0300230002AC2705
:06AC2700309802C29832D1
:03002B000200329E
:01003200329B
:030033000200398F
:010039003294
:03003B0002003A86
:01003A003293
:0300430002004177
:01004100328C
:10A816005B253032645D4D617843656C6C446174D0
:10A8260061203D2025640045534420434845434B61
:10A83600203F284F290045534420434845434B2099
:05A846003F2858290025
:04002E00410000008D
:10443F00900CA9E0FF75F027A4249DF582E5F034D8
:10444F0003F583E0FE75F027EFA4249FF582E5F0D6
:10445F003403F583E0C39EFF900CB1F0900CA9E0FC
:10446F00FE75F027A4249EF582E5F03403F583E072
:10447F00FD75F027EEA424A0F582E5F03403F58353
:10448F00E0C39D900CB2F07D0612AAE5900CB2E04D
:10449F00FF1D12AACC900CA9E0FF75F027A424A24F
:1044AF00F582E5F03403F583E0FE900CB1F0FDEFFB
:1044BF0075F027A424A3F582E5F03403F583229049
:1044CF000CA9E0FB75F027A424A5F582E5F03403D1
:1044DF00F583E0FF3395E0FE7C007D0F12537B7573
:1044EF00F027EBA424A4F582E5F03403F583E0FD77
:1044FF003395E0FCEF2DFFEE3CFEEF25E0FFEE33B2
:10450F00FE90117BE0FCA3E02FF582EC3EF583E0FB
:10451F0022900CB7EEF0A3EFF0900CA9E0FF75F02E
:10452F0027A424A2F582E5F03403F58322900CA989
:10453F00E0FF75F027A4249EF582E5F03403F583A0
:10454F00E0FEEF75F027A424A0F582E5F03403F523
:10455F00832275F027EFA4249DF582E5F03403F54F
:10456F0083E0FEEF75F027A4249FF582E5F0340376
:10457F00F58322900CA9E0FF75F027A4249DF58206
:10458F00E5F03403F5832290117BE0FEA3E0FF24D6
:10459F0000F582EE3403F583E0FCA3E0FDEF24F495
:1045AF00F582EE3402F583E0FEA3E0FFD39DEC64C9
:1045BF0080F8EE64809822900CA9E0FF75F027A494
:1045CF00249EF582E5F03403F58322900CA9E0FFD9
:1045DF0075F027A424A1F582E5F03403F58322FBBF
:1045EF0075F027A424A5F582E5F03403F583E0FFE9
:1045FF003395E07D0FFE7C0002537BE4900CABF013
:10460F001200B7EF24E8FFEE3403900CBDF0A3EFD8
:10461F00F090117BE0FEA3E024F4F582EE3402F576
:10462F0083E0FEA3E0FFD394E8EE648094832290AE
:10463F000D3FEFF0900CA9E0FF75F027A424A4F52F
:10464F0082E5F03403F58322900D40EFF0900CA932
:10465F00E0FF75F027A424A5F582E5F03403F58378
:10466F0022FAA3E0FB900CB8E0900CB725E0FFE036
:10467F0033FE7C007D0302538DF583C3E0FFEE64B0
:10468F0080F8EF64809822900CB5EEF0A3EFF0C3A2
:10469F00900CB4E09F900CB3E09E227853E6FF900D
:1046AF00039DE0FD3395E0D3FCED9F7480F86C988B
:1046BF0022900383EEF0A3EFF0900383E0C313FE89
:1046CF00A3E013FFD32290039CE0900CA3FFE0FB29
:1046DF00A3E0FAA3E0F9EF22900CAAE0FF900CA957
:1046EF00E022E4900855F0900CBD747FF0A374FFA6
:1046FF00F0227853E0FFE6900CA922F583E0FDEE5F
:10470F00C36480F8ED64809822FDE4900D47F0902B
:10471F000391E0900D48FFE4F0A3EFF02290039C8B
:10472F00F09011BEE0FEA3E0AA06F922E0FE75F0BC
:10473F0027EF22F0900CA7E004F0227401900D46B1
:10474F00F0A3740CF0A374AFF022900CB3E0FEA3AF
:10475F00E0FF2290039DE0FF90039FE0C39F049032
:10476F000CB1F090039EE0FF9003A0E0C39F049074
:10477F000CB2F022EE75F00FA4FF900D3FE0FD7A22
:10478F00002FFFEA35F0FEA3E0C39DC3137C002F7B
:10479F00FFEC3E22E0FEEF75F006A42404F582E460
:1047AF00340022900CAAE07B017A0C79AB900CA913
:1047BF0022EF75F006A42405F582E4340022E0C34D
:1047CF009EC364809482227855E0FFE6900CA92264
:1047DF00EF94C4EE64809489227401F0A3EAF0A3ED
:1047EF00E9F02275F0020256B7900CAAE0FF900C88
:1047FF00A7E02275F006A42406F582E4340022E433
:10480F00900392F0A3F0900856F0A3F0900398F065
:10481F00A3F0900388F0A3F02290117BE0FEA3E0B9
:10482F002400F582EE3403229000BCE004F0E0D3C4
:10483F00940222900CA9E004F0227D017B017E00FE
:10484F007F090252A8D3ED9FEE6480F8EC64809844
:10485F0022900383EEF0A3EFF02275F006A4240854
:10486F00F582E43400F58322E014FE75F027EF2281
:10487F00A3F0A37401F0A37403F0A37421F02275C5
:10488F00F027A424A2F582E5F0340322E0FFC39EB3
:10489F00C364809480229000BDEEF0EFA3F0900CE3
:1048AF00AAE0227856E6FF90039FE0FD3395E022C1
:1048BF0075F006A42407F582E4340022ED75F002AA
:1048CF000256B7900D48E075F006A422900CB1E0A7
:1048DF00FFD36480948122900D41E004900CA7F0E7
:1048EF0022900383E0FEA3E0FF22900D41E0FFA39F
:1048FF00E0C39FC313FDEF2DFFE43322900855E073
:10490F0004F0E0C3940A22900CB1F0FC90039EE0F7
:10491F00FE9003A0E0C39E22900D3DEFF0900CA9F6
:10492F00E0FF22900D42EFF0900D3EE0FF900D3D25
:10493F00E0C39F22F09000BDE4F0A322900387F024
:10494F009003967404F090084FE4F0A3227B017A51
:10495F00037921223395E0FEC3ED9FFFEC9EFE22EB
:10496F0075F046A424F3F582E5F03400F583E022D8
:10497F0075F006A424C1F582E43400F583EFF0222C
:10498F00EFF0FF75F027EE22EF25E0FFEE33F0A3F7
:10499F00EFF02275F006A424C9F582E4340CF583F8
:1049AF00E02275F006A424CAF582E4340CF583E006
:1049BF00227856E0FFE6900CA922900384E024F6BB
:1049CF00F0900383E034FFF02275F00BA42421F55F
:1049DF0082E43403F5832275F00BA42422F582E4DC
:1049EF003403F5832275F00BA42424F582E43403F9
:1049FF00F5832275F00BA42428F582E43403F583A4
:104A0F002275F006A424C0F582E43400F58322D386
:104A1F00900CB4E09470900CB3E094172290039430
:104A2F00E004F0E0C322D3EA6480948122900393E0
:104A3F00E02FF0900392E03EF022FEEF25E0FFEE34
:104A4F0033FE90117BE022900CC2E0900CAAF09004
:104A5F000CC3E022F583E0FEA3E022C3EF9EF40433
:104A6F00FF22900D3EEFF0900D3DE0D3940522C252
:104A7F002A900CABE022A3E0240AF0900383E034E9
:104A8F0000F02224C4F582E43400F583EFF02224F1
:104A9F00C5F582E43400F583EFF022A3F0900CA665
:104AAF007401F0227401F0A37490F022900CABE02B
:104ABF00D3940822900CAAE0D3940022C3900384CD
:104ACF00E09F900383E09E229000B9F0A3F0900343
:104ADF0087F022FFE0FCA3E0FDC322900CBD74021F
:104AEF00F0A37458F022FAA3E0FB75F02722A3F08D
:104AFF00900CA6E0900D4AF022900CADE02477FFC9
:104B0F00E43401227D017B017E000252A8FDE0FA10
:104B1F00A3E0FB229DEC6480F8EA648098229FEE6C
:104B2F006480F8E06480982224C2F582E43400F5B2
:104B3F00832224C3F582E43400F58322E0FE900C37
:104B4F00A7E022EF945AEE94002290039DE0FF908D
:104B5F00039FE02290039B7401F022E090037FF00B
:104B6F00900CA9E022C3EF9EC3648022E0FFC39E96
:104B7F00D36480948522900CB1E0D3648094832217
:0A4B8F00E0FEA3E0F5828E83E02231
:10A7E1007E027F307D007B017A0079F11256C37EB3
:10A7F100007F587D0012495C1256C3E4FF75F04694
:10A80100EFA424F1F582E5F03400F58374FFF00F35
:04A81100EFB408E9AF
:01A815002220
:10971900C216C214E4124AD7900396F0900002F0E0
:10972900A3F0900391F0900383F0A3745AF01248C8
:109739000E9000BFF090038AF0A3F09000BDF0A353
:109749007450F0E490039CF090117B124733900C15
:10975900A01247E87853E6900CA9F07856E6900CE9
:10976900ABF07855E6900CAAF07852E6900CACF084
:10977900A37401F0A37403F0A3749DF078C87C0C62
:109789007A0C79A07F10124B1312A59B30184390C5
:109799000CB0124882901306E0900CB3F09012F9C5
:1097A900E0900CB4F090130FE0900CB5F090131703
:1097B900E0900CB6F0901309E0FFA3E0900CB7CF4E
:1097C900F0A3EFF078C87C0C7A0C79B012484912F2
:1097D900A18690117B124733900CB91247E8A37404
:1097E90001F0A37400F074C012487F78C87C0C7A29
:1097F9000C79B912484912A76D900CC27401F0A3F3
:109809007400F074F112487F78C87C0C7A0C79C224
:0B9819007F06124B1312A9F302A7E117
:05000E00A20792282268
:03003600A22822DB
:0BA0FB00E0900CB2F0FB90039CE0FF33
:02A10600AA05A8
:10A10800E4900392F0A3F07852E6FD7C00EF64013E
:10A11800704290039BE06025124A354020EA648033
:10A12800948E5019EBFF124963EFC4F8540FC868B6
:10A13800FFEEC454F048900392F0A3EFF0124A35B2
:10A14800503BEB7038900393E02464F0900392E066
:10A158003400F022124A35500CEB7009900392F04B
:10A16800A37432F022124A354013EA6480948E5068
:0DA178000CAF03EF12496390039212499758
:01A1850022B7
:04001E00124A3C2224
:04002600124A3C221C
:10AAB100EF3395E0FE7852E6C39FFFE49E7D0A12D4
:0BAAC1004604900392EEF0A3EFF02299
:07AC19009003881249972205
:10AACC007E00EFA805088005C333CE33CED8F9FF3E
:09AADC00900856EEF0A3EFF02201
:10AAE5007E00EFA805088005C333CE33CED8F9FF25
:09AAF500900398EEF0A3EFF022AB
:1000B700900392E0FEA3E0FF900384E02FFF9003FC
:1000C70083E03EFE900857E02FFF900856E03EFE83
:1000D700900399E02FFF900398E03EFE900389E09C
:0900E7002FFF900388E03EFE2289
:10A06900E4FFFEEE12496FD36480948040028012AF
:10A0790075F046EEA4240AF582E5F03401F583E093
:10A089006046EF1249D8EEF075F046A424F4F58243
:10A09900E5F03400F583E0FCA3E0FDEF1249E6ECBE
:10A0A900F0A3EDF075F046EEA424F6F582E5F03460
:10A0B90000F583E0FCA3E0FDEF1249F4ECF0A3ED19
:10A0C900F0EF124A02E4F00F0EEE64087095EF60AB
:10A0D9000912495C12471812886612A6289003874C
:10A0E900E0600912003E900387E014F0E490130D3C
:01A0F900F076
:01A0FA002243
:0C94CB00900D46EDF0900D43EB1247EAC7
:1094D7001252CE900D48F0E4A3F0A3F0900D47F0A0
:1094E700900D461245DDE0FE900D47E0FDC39E500E
:1094F7004F1244BE1248CB1245FD900D46E012456F
:109507002DC083C082900D47E0D082D0831247F2EE
:109517001244FDFCA3E0900D49124B1CD3124B23C0
:109527004006AE02AF038007124510FEA3E0FF908E
:109537000D49EEF0A3EFF0900D47E004F00294E739
:109547001200B7900D46E0FD12452DE07034ED1284
:1095570044BFE0702D90039CE0B4012690039BE08C
:109567006011C3EF94DCEE6480948550157E057F0F
:10957700DC800FC3EF9458EE6480948250047E021F
:109587007F58D3900D4AE0900D49124B2D405F90C4
:109597000D46124585E0FE900D48E0FD75F006A4E6
:1095A700124B37EEF0124572E0FFED75F006A4128C
:1095B7004A92900D461245C9E0FEED75F006A412D9
:1095C7004B41EEF0124551E0FFED75F006A4124A4B
:1095D7009E900D4612452BE0FEED124A10EEF0125A
:1095E70044BEE0FFED12497F900D48E004F0900D76
:0B95F70048E0900D431246DC02534791
:0C923700900D46EDF0900D43EB1247EA5D
:109243001252CE900D48F0E4900D47F0900D461267
:1092530045DDE0FE900D47E0FDC39E400302937C95
:109263001244BE1248CB1245FD900D46E012452D27
:10927300C083C082900D47E0D082D0831247F212A0
:1092830044FDFEA3E0FDAC061200B71248545003A0
:10929300029373900D46E012452DC083C082900D5A
:1092A30047E0D082D0831247F2E0FF7853E6B50758
:1092B300028003EF14FF1248D2124B37EFF0900DE8
:1092C30046E012452DC083C082900D47E0D082D086
:1092D300831247F2E0FF7856E6B507028003EF04F6
:1092E300FF1248D2124A92900D46E01244BFC08347
:1092F300C082900D47E0D082D0831247F2E0FF781E
:1093030055E6B507028003EF14FF1248D2124B4112
:10931300EFF0900D46E01244BFC083C082900D472A
:10932300E0D082D0831247F2E0FF7852E6B507021D
:109333008003EF04FF1248D2124A9E900D46124555
:109343002BC083C082900D47E0FED082D0831247AA
:10935300F2E0FD900D48E0FC124A10EDF01244BE1D
:10936300EE1248CCE0FFEC12497F900D48E004F088
:10937300900D47E004F002924F900D48E0FF900DEE
:07938300431246DD025347CF
:109BDB00E4F50AF50B7855E6FD7852E6FFEDD39FD9
:109BEB00504A7853E6FC7856E6FFECD39F503AED9B
:109BFB0075F00FA4FFEC7A002FFFEA35F0124A49FB
:109C0B00FAA3E02FF582EA3EF583E0F508A3E0F531
:109C1B0009D3950BE50A6480F8E508648098400643
:109C2B0085080A85090B0C80BD0D80ADD3E50B941F
:109C3B005AE50A6480948040707BFF7AA87916906D
:109C4B000001E0900D9B124725A3E50AF0A3E50B5D
:109C5B00F0129CBC900001E025E0243CF582E4343A
:109C6B0013F583E50AF0A3E50BF0900001E004F097
:109C7B00E0C394044038E4F0901343E025E0FF90F8
:109C8B001342E033FED390133DE090133C124B2D67
:109C9B00400B7BFF7AA8792D129CBC80117BFF7A3D
:109CAB00A8793C129CBC7F0122E4900001F07F005C
:019CBB002286
:0700F400900CA3EB1247EA98
:1000FB00E4A3F0900CBDF0A3F0D204C205900CC0A9
:10010B00F0A3F0C201900CABF0900CAEF0900CB0E1
:10011B00F0D203C226FE7F30FD7B017A0079C0123C
:10012B0056C390039CE0FF12AC3390039CE060033A
:10013B00020C1A2020030202CFD22630330B7B0194
:10014B007A0C79C27F96FE80127B017A0C79C230D1
:10015B003105E4FFFE80047F647E00126AFD90008F
:10016B0000EFF0900000E0FF6402706B124A56FD46
:10017B00A3E0900CB3CDF0ED124AAAE4A3F0900CDF
:10018B00AA124B4BFDC39E4003020240E0FE1245F8
:10019B00DF7401F0EE1249A2FE75F027ED12453027
:1001AB00EEF0FEED124573EEF0FE75F027ED124505
:1001BB008AEEF0ED1249B1FE75F027ED1244C2EE56
:1001CB00F0FEED124552EEF0FE75F027ED1245CE26
:1001DB00EE124742020189EF64037061124A56FF27
:1001EB00A3E0900CB3CFF0EF124AAAE4A3F01247AE
:1001FB00F8FEC39F503F1245DD7401F0EF1249A288
:10020B00FF75F027EE12453012498F1245761249D1
:10021B008F12458AEFF0EE1249B1FF75F027EE12FF
:10022B0044C212498F12455512498F1245CEEF1217
:10023B0047420201F9E49000BFF00202CF900000A8
:10024B00E0FFB40408E4900CAAF00202CFEF6401C3
:10025B00702B9000BFE004F0E0C3940240119003B8
:10026B0083124AB39000BD124AB37402121D78E494
:10027B00900CAAF0900396E0704A021625900000AD
:10028B00E06405700C04121D78D20712AA740216D2
:10029B0025900000E0B40612303129740312472C6C
:1002AB007B017DCC12A90D7F0022900000E0701421
:1002BB00900CAAF0C2031246D5125347900396E056
:1002CB007002FF22200303020391124AAC9000BD7F
:1002DB00E0FCA3E0FDFFAE04900D4A7401F0A374A3
:1002EB000CF0A374B9F0A37401F0A3740CF0A37415
:1002FB00BBF0E4A3F07B017A0C79B3123384900C3E
:10030B00AAEFF0303327900CB31246CB94B4EE9493
:10031B0000400280047E007FB41246C094B4EE9479
:10032B000040030203897E007FB40203893031242D
:10033B00124759124681D3124B52400280047E0061
:10034B007F5A1246C09450EE9400400280047E0007
:10035B007F50802A124759124681D3EF94BEEE94F8
:10036B0000400280047E007FBE124860124681D39B
:10037B00EF9450EE9400400280047E007F5090007A
:10038B00BDEEF0A3EFF0202B03302D09303106200A
:10039B002603121D1F12459640028004AE04AF05C2
:1003AB00900CB51248A8D394005003020BD69003BF
:1003BB0085E0FEA3E0FF4E7054900CB3E0FCA3E08D
:1003CB00FDD394F4EC9401500AEF94F4EE64809412
:1003DB00814035900385E0FAA3E0FBEAA2E713FE28
:1003EB00EB13FFC3ED9FEC9E400DEB25E0FFEA33D3
:1003FB00FED312469F40119000BCE004F0E0C39482
:10040B0002400A121C448005E49000BCF0124759CC
:10041B00900385EEF0A3EFF0D394DCEE9405405DF2
:10042B00124837405D124B599F124916900CB2F08F
:10043B00C3EC648094844035E0FF900CB1E0FE9FE8
:10044B00FFC3648094805006EFF404FF8009900C86
:10045B00B2E0FFC3EE9FFFD3EF64809482500E7423
:10046B000412472C7B017DEE12A90D801530311241
:10047B00121C44124A1E400A124B638005E4900082
:10048B00BCF02031030206D69000B8E0FF900CAA16
:10049B00E0D39F50030206D6E4900CA7F09000B86F
:1004AB001247FBC39F40030206D6E4A3F0900CAAAD
:1004BB00E0FF900CA8E0FEC39F40030206D0900C17
:1004CB00A7E0FF124869E0FCA3E0D39426EC64801C
:1004DB00948250030206C775F027EE12458A124725
:1004EB00A3F583D312468B40030206C7900CA8E0FA
:1004FB00FF124573124B4BFD124802F583E0FCC310
:10050B0012485750030206C775F027EF1245CEE08D
:10051B00FFED1247C1F583E0FED3EF1245BE40035A
:10052B000206C7900CA8E01245521247FBFE124878
:10053B00BFF583E0FDEF12470F50030206C7EE1223
:10054B0047A6F583E070030206C7900CA7E0FF12E5
:10055B004802F583E0640E70030206C71247C0F52C
:10056B0083E070030206C7ED641370030206C7E451
:10057B00900CA9F01246E7FEC39F40030206C790FA
:10058B000CA8E06E70030206C1A3124585124B4BFB
:10059B001247A612470A400A124572E0D3124710BF
:1005AB004020900CA7E01248021246885003020626
:1005BB00C1900CA9E0124573E0D312468E400302A2
:1005CB0006C1900CA9E0FB1244BF1245FDEB12488B
:1005DB008E1244FBFCA3E0FD900CA7E0FB124869D4
:1005EB00E0A2E71246CD12485540030206C1124560
:1005FB00C6E0FEEB1247C112470A400A124551E012
:10060B00D31247104020900CA7E01248BF12468827
:10061B0050030206C1900CA9E0124552E0D31246DA
:10062B008E40030206C19000BFE06053124582E08A
:10063B00FE90037DE06E7027124572E0FF90037F02
:10064B00E06F701B1245C6E0FE90037EE0B5060F0F
:10065B00124551E0FF900380E0B507030206A81294
:10066B004582E090037DF0124572124B6A1245CB26
:10067B00E090037EF0124551E0900380F08024124D
:10068B004582E090037DF0124572124B6A1245CB06
:10069B00E090037EF0124551E0900380F09000BF94
:1006AB00E004F09000BFE0C39402400A90039C74F6
:1006BB0002F0FF12AC3312484202057F900CA8E007
:1006CB0004F00204B81247430204A8900CAAE0906D
:1006DB0000B8F0E4900CA9F01246E7FBC39F505909
:1006EB001245851247A3F583EE12492B124573E091
:1006FB00FEEF124802F583EEF01245C6E0FE1247FC
:10070B00C0F583EE12492B124552E0FEEF1248BFA3
:10071B00F583EEF0900CA9E0FA1244BF1245FDEA06
:10072B0012488E1244FBFEA3E0FFEB124869EEF079
:10073B00A3EFF01248420206E39003C2E0FF7853A6
:10074B006660067856E66F7065124759C39490EE53
:10075B009401505A124B524055E4900CA9F012469A
:10076B00E7FEC39F504875F027EE124576E0FF90E9
:10077B0003C2E06F70321245C6E0FE9003C312470E
:10078B000C4025124551E0FFD3124710501A124B63
:10079B007494814013900CA9E01245DFE0D39401CF
:1007AB004006121C747F0022124842020769E49033
:1007BB000CA9F01246E7FDC39F4003020BD6EFC313
:1007CB00943140037FFE22124582E0FC124572E019
:1007DB00FBC39C900CB1F0900CA9E0124541E0C317
:1007EB009E900CB2F0ED705E7853E6FF6C7057EF95
:1007FB002401FDE433FCEB3395E0FAD3EB124B23EE
:10080B0050447855E62401FDE433FCEEFF3395E0CC
:08081B00FED3EF1245BC502E84
:10082300D206900CA77401F01247F8FEC39F50182C
:1008330075F027EE12458AE0FF7853E6B50704C248
:0E08430006800512474380E0200603020BD01A
:1008510030330F900CA9E01244BFE0FF12AAB1029D
:100861000932203103020932900CB9E0FEA3E0FF06
:1008710012AC19124528E01244BDE0FBE4FF12A1BD
:1008810006300371900CAAE0D394014068900CB13A
:10089100E0648094814008A3E06480948150569084
:1008A1000CA9E0FB1244BFE0FA1245FE75F027EBFC
:1008B100124530E0FDF5823395E0F583EF2582FFA7
:1008C100EE3583124A49F8A3E02FF582E83E124A39
:1008D10063FF900383E0F8A3E0F582C3EF9582EE16
:1008E1009850129003C2E06D6003020BD0A3E06A3E
:1008F1006003020BD01248DB40047D05800E900C92
:10090100B1E0FFD36480948550057D0612AAE5907D
:100911000CB21248DE40047D058013900CB2E0FF5A
:10092100D36480948540047D068003E4FDFF12AA10
:10093100CC900CA9E0124552E0785566701C124427
:10094100CEFEA3E0900CB5124AE2EF9DEE9C500A58
:10095100ECC313FEED13FF12001E1245DAE0640131
:100961006003020A1A1245611247CD5041900CA949
:10097100E012452D124701B50708E0124587EFF057
:10098100800B12452B12487712458AEEF0900CA984
:10099100E012452D7856124703B50708E01245735A
:1009A100EFF0800A12452BE004124571EEF012457A
:1009B1003C1247CD5045900CA9E01244BF1247D6D6
:1009C100B50708E01245CBEFF0800DE0FF1244BF00
:1009D1001248771245CEEEF0900CA9E01244BF7890
:1009E100521247D8B50708E0124552EFF0800CE0EB
:1009F100FF1244BFE004124550EEF01247B2B401B9
:100A010006E0FDD2078004E0FDC2071294CB124A32
:100A1100BB5003020BD07FFE221245DAE0700302C5
:020A21000BD0F8
:100A2300D206124561124B7B5026124B74948440BC
:100A33001F12453C124B7B5017124B749484401089
:100A4300900CB4E0942C900CB3E094015002D205C6
:100A53001244CEFAA3E0FB900CA9E0F91244BF12B2
:100A630045FD75F027E9124530E0F91244FEFEA377
:100A7300E0D39BEA1245BE900CA9E040091244BFA3
:100A83001245FDE9800B1245EE75F027EB12464B3C
:100A9300E01244FEFEA3E0FF12452012473B12463C
:100AA3004B12489B5005124A6A800D124528124783
:100AB3003B12464BE0C39EFF1249271244BF124725
:100AC3003B12466412489B5005124A6A8012900CEE
:100AD300A9E0FF1244BF12473B124664E0C39EFFE6
:100AE300124A714003020BC8A3E094054003020BB2
:100AF300C812464312473B12453012468A500280C1
:100B030002AF0612463E12473B124530E0FFD312B6
:100B1300468D40028002AF06124657E0FE1244BEE5
:100B230012468A50028002AF06900D4112465AE0E7
:100B3300FE1244BEE0FFD312468D40028002AF0690
:100B430012493250281248E6900D421247FBFEC369
:100B53009F504C124783124508124670C3EB9FEA1D
:100B63009E5005C206020BA212474380DB900D3F45
:100B73001248E9900D401247FBFBC39F50211248D6
:100B8300F9124602EB2FFFEC3E124508124670C3E2
:100B9300EB9FEA9E5004C206800512474380D4307F
:100BA300061B1247B2B40106E0FDD2078004E0FD44
:100BB300C2071294CB124ABB40137FFE22121C5C65
:0D0BC300400B7FFE22121C5C40037FFE22CF
:100BD0001248420207BE30242A9000F0E0D394006D
:100BE000401B900CABE0FF6008900CAAE0D39F4044
:100BF00003121D1FE49000F0F0C22480069000F064
:100C0000E004F0301803124AEA202A030216BD124B
:100C10004A7E60030216BD7F012290039CE06401BE
:100C20006003020FF312AC2DEF700890039CF0905C
:100C3000039BF0121C02302B05E4900394F0124A3F
:100C4000C35003020FA4301603020FA490039BE0CD
:100C50006016900CB3E01246CD9484EE94034002EB
:100C6000801B7E037F848015124759124681D3EF83
:100C70009490EE9401400280047E017F90124860BF
:100C80001248F0124681D3EF94FAEE9400400280AD
:100C9000047E007FFA1248A564017070124762A3B7
:100CA000E0FEA3E0FFD39470EE9417400A12483799
:100CB000400A124B638005E49000BCF0124B855053
:100CC00049A3E0648094835041124B52403A900C07
:100CD000B4E094B0900CB3E09404502C1246AA40B7
:100CE0002B1248B2C31246B75022124A2C94054028
:100CF00020D224E490039CF0900394F0C20712AA3F
:100D000074E490039BF0800980028000E4900394D7
:100D1000F0E4900CA9F01246E7C39F4003020FA431
:100D2000EF946440037FFE2212443F12A0FB900C1C
:100D3000AAE0FF75F027A42479F582E5F03403F5E5
:100D400083E0FD3395E0FC7852E6FBC3ED9B7480B5
:100D5000F86C98406AEF14FF900CA9E0F96F605F9F
:100D6000124AF6A4247CF582E5F034031245FB75A3
:100D7000F027EBA4247BF582E5F034031244FB1248
:100D80004AF5E91244C21245FD75F027E91248916F
:100D90001244FBFEA3E0C39BEA1245BE5003020FC0
:100DA0009E7855E62401FFE433FE900CA9E012443E
:100DB000BFE0FD3395E0FC1248545003020F9E1231
:100DC0004582E0FE7853E6FD6E6003020EC275F0C8
:100DD00027EF1245CEE07855666003020EC2900CF4
:100DE000A9E01245DFE0D394015003020E7F75F0B5
:100DF00027EF124530E06D6003020EC2900CA7F0A1
:100E00001245DAE014FE900CA7E0C39E5065900CEA
:100E1000A9E0FE124648C083C082900CA7E0FDD036
:100E200082D0831247F2E0FC75F027EE12453012B3
:100E300048CBECF0900CA9E0FE124661C083C08262
:100E4000900CA7E0FDD082D0831247F2E0FC75F051
:100E500027EE1244C21248CBECF0900CA9E0FE122F
:100E600044BFE014FD75F027EE1245CEED12474267
:100E7000020E0075F027EF1245E2E014F080439077
:100E80000CA9E01245521248E9900CA7E0FFD37874
:100E90005296502E90117BE0FCA3E0F5828C837576
:100EA000F01EEF1256B7E0FEA3E0D39490EE6480FC
:100EB000948140097D097F0A12AAE5800512474303
:100EC00080C7900CA9E0124587E0FF7856E6B50789
:100ED0001390039BE060067F847E0380047F907EF6
:100EE000011200261245DAE064016003020F8B1242
:100EF00045611247CD503F900CA9E012452D124795
:100F000001B50708E0124587EFF0800B12452B1260
:100F1000487712458AEEF0900CA9E012452D12494F
:100F2000C0B50708E0124573EFF0800A12452BE0C8
:100F300004124571EEF012453C1247CD5045900C1D
:100F4000A9E01244BF1247D6B50708E01245CBEF1F
:100F5000F0800DE0FF1244BF1248771245CEEEF04C
:100F6000900CA9E01244BF78521249C2B50708E0BC
:100F7000124552EFF0800CE0FF1244BFE00412452E
:100F800050EEF0121C8C40167FFE22900CA9E0FD62
:100F90001245DFE06008121D0C40037FFE2212485C
:100FA00042020D1630183B12459640028004AE04F2
:100FB000AF05124696502812460A40051247DF40F8
:100FC0000D12482812462E400F1247DF500A1249D0
:100FD0000B400F121D66800AE4900855F080031242
:100FE00046F1202A030216BD124A7E60030216BD96
:100FF0007F012290039CE0640360030211E9121C4C
:10100000A4302B05E4900394F0124AC3500302115C
:1010100095301603021195124759124681D3EF9469
:10102000DCEE9405400280047E057FDC124860906F
:1010300000BDE4F074961248AB64017051124B5934
:10104000C39F0412491604900CB2F0D3EC64809450
:10105000835038E0648094835031900CB4E0945A0B
:10106000900CB3E0940040201246AA40181248B2F7
:10107000FCC31246B8500E124A2C940F4015E4904F
:10108000039CF0800AE48007E48004E48001E4909B
:101090000394F0E4900CA9F01246E7C39F400302CA
:1010A000119AEF946440037FFE2212443F12A0FB8A
:1010B000900CA9E0124587E0FF7856E6B50713903B
:1010C000039BE060067F847E0380047F907E011294
:1010D00000261245DAE06401600302117C124561CA
:1010E0001247CD503F900CA9E012452D124701B593
:1010F0000708E0124587EFF0800B12452B12487766
:1011000012458AEEF0900CA9E012452D1249C0B5A7
:101110000708E0124573EFF0800A12452BE0041235
:101120004571EEF012453C1247CD5048900CA9E0B5
:101130001244BF1247D6B50708E01245CBEFF08046
:101140000DE0FF1244BF1248771245CEEEF0900C2E
:10115000A9E01244BFE0FF7852E6900CA9B5070859
:10116000E0124552EFF0800CE0FF1244BFE00412A1
:101170004550EEF0121C8C40167FFE22900CA9E028
:10118000FD1245DFE06008121D0C40037FFE2212B5
:101190004842021098E4900394F030183B124596B0
:1011A00040028004AE04AF05124696502812460A4B
:1011B00040051247DF400D12482812462E400F12FC
:1011C00047DF500A12490B400F121D66800AE49057
:1011D0000855F080031246F1202A030216BD124A78
:1011E0007E60030216BD7F012290039CE0640460D0
:1011F000030214D1121CA4D39400500302147430BF
:101200001603021474900CB4E0900CB312467BD316
:10121000EF9490EE9401400280047E017F9012488A
:1012200060D39450EE940040051248F080047E0094
:101230007F501248A56401706E124762D3900CB4BF
:10124000E094AC900CB3E0940D400F124837400F7F
:10125000121D96D20712AA748000E49000BCF0120E
:101260004B855040A3E0648094835038A3E0FEA3F4
:10127000E0FF945AEE94004028EF9458EE94025008
:10128000201246AA40181248B2FCC31246B8500EAB
:10129000124A2C94054015E490039CF0800AE480E7
:1012A00007E48004E48001E4900394F0E4900CA946
:1012B000F01246E7C39F4003021474EF94644003A6
:1012C0007FFE2212443F12A0FB900CA9E0FD1245C4
:1012D000DFE0B401117B017A0C79AB121D89500358
:1012E00002146E7FFE22900CA9E0F91245DFE07037
:0412F0000302146E73
:1012F400D2061244CE124AF5E91244C21245FD75D3
:10130400F027E9124530E0F91244FEFEA3E0D39B36
:10131400EA1245BE900CA9E040091244BF1245FDF3
:10132400E9800B1245EE75F027EB12464BE01244B0
:10133400FEFEA3E0FF12452012473B12464B124823
:101344009B5005124A6A800D12452812473B1246EB
:101354004BE0C39EFF1249271244BF12473B12467B
:101364006412489B5005124A6A8012900CA9E0FF4F
:101374001244BF12473B124664E0C39EFF124A71F7
:101384004003021466A3E094054003021466124667
:101394004312473B12453012468A50028002AF0680
:1013A40012463E12473B124530E0FFD312468D40B1
:1013B400028002AF06124657E0FE1244BE12468A6D
:1013C40050028002AF06900D4112465AE0FE1244CC
:1013D400BEE0FFD312468D40028002AF06124932AE
:1013E40050281248E6900D421247FBFEC39F504C12
:1013F400124783124508124670C3EB9FEA9E5005BC
:10140400C20602144012474380DB900D3F1248E9A4
:10141400900D401247FBFBC39F50211248F912461E
:1014240002EB2FFFEC3E124508124670C3EB9FEA15
:101434009E5004C206800512474380D430061B1216
:1014440047B2B40106E0FDD2078004E0FDC20712F2
:1014540094CB124ABB40137FFE22121D3B400B7FEC
:0A146400FE22121D3B40037FFE2212
:10146E001248420212B130184912459640028004C9
:10147E00AE04AF05124696503612460A4005124784
:10148E00DF400D12482812462E401D1247DF50181D
:10149E0012490B401DE490039CF0C20712AA74E49B
:1014AE00900385F0A3F0800AE4900855F0800312B3
:1014BE0046F1202A030216BD124A7E60030216BDB3
:1014CE007F0122300303121C02C227124AC35003AB
:1014DE0002169D30160302169DD3900CB4E094DCD8
:1014EE00900CB3E0940540121248374003121C745E
:1014FE00124A1E400A124B638005E49000BCF03085
:10150E00144F1247597C007D0312537BEF7802CEA5
:10151E00C313CE13D8F9FF124ACB5005124A858059
:10152E00031249C91248F0D39490EE940140028000
:10153E00047E017F901246C0945AEE9400400280C1
:10154E00047E007F5A9000BDEEF0A3EFF0D229800A
:10155E0044900CB3E0FAA3E0FB7C007D06FFAE02E4
:10156E0012537B1D12538D124ACB5005124A8580A1
:10157E00031249C91248F0C39490EE9401500280B0
:10158E00047E017F90124860C229C3EB9478EA94DE
:10159E00005002D227E4900CA9F01246E7C39F40F8
:1015AE000302169DEFC3943140037FFE22900CA9D7
:1015BE00E0FF75F027124565E0C39E900CB1F0FC7C
:1015CE00900CA9E0FE1245CBE0FD75F027EE12451A
:1015DE0055E0C39D900CB2F0C3EC6480948E4040F5
:1015EE00E064809493503990039AE004F0E0940202
:1015FE004033121D967F02129FBA12A5E3D2071234
:10160E00AA7490039B740112494374FAF0900383F9
:10161E007403F0A37484F01246D51253477F002250
:10162E00E490039AF0300333900CAAE0D394014077
:10163E002A900CB1E0648094814008A3E064809409
:10164E00815018124528E0FE9003C2E06E703A12E7
:10165E0044BEE0FF9003C3E06F702E1248DB4004DF
:10166E007D028003E4FDFF12AAE5900CB21248DE63
:10167E0040047D028003E4FDFF12AACC1247B6E0BF
:10168E00FD121D8940037FFE221248420215A8302A
:10169E00181D12459640028004AE04AF0512469600
:1016AE00500AE4900CABF0124AEA80031246F69010
:1016BE000CABE0D39400500302190CE4900CA7F08D
:1016CE00A3F0900CA7E0FFC39408400302177FEF2E
:1016DE0012496FC3648094835003021779900CA74C
:1016EE00A3E0FD1249D8EFF075F046EFA424FEF505
:1016FE0082E5F03400124A637804CEA2E713CE13CB
:10170E00D8F8FFED1249E6EEF0A3EFF0900CA7E04B
:10171E00FD75F046A42400F582E5F03401124A630B
:10172E007804CEA2E713CE13D8F8FF900CA8E0FCF5
:10173E001249F4EEF0A3EFF075F046EDA424FCF59B
:10174E0082E5F03400124A63FFEC75F00BA42426F8
:10175E00F582E43403F583EEF0A3EFF0EC124A02C7
:10176E007401F0900CA8E004F0D201124743021667
:10177E00D030011A121DA14002E4F09012FCE0706C
:10178E000D12495C900CA8E0124718128866900C56
:10179E00ABE0FF900383E0FCA3E09000BD124B1C76
:1017AE0090039CE0900D48F0124B99900CAEEFF028
:1017BE00E0900397F0601720141290039CE0700ADB
:1017CE001247307B017DEE12A90DD22AD214900D54
:1017DE0046740130260812474FA37402800A12473E
:1017EE004F90039CE0900D49121D5392029012FCF3
:1017FE00E060030218BC2002030218BC90039CE0B8
:10180E00600302189E20040302189E900100E0FE61
:10181E00A3E0900853124AE29FFFEC9EFEC3648041
:10182E0094805009C3E49FFFE49EFE800B9001005C
:10183E00E0FEA3E0FF1249679000FEE0FCA3E0FD8E
:10184E00900851E0FAA3E0FBC39DFDEA9CFCC36443
:10185E008094805009C3E49DFDE49CFC800C9000B4
:10186E00FE124AE3EB9DFDEA9CFCED2FFFEC3E4F92
:10187E0070089000BBE004F08005E49000BBF0908F
:10188E0000BBE0D3940A40087F01129FBA12A5E371
:10189E009000FEE0FFA3E0900851CFF0A3EFF09090
:1018AE000100E0FFA3E0900853CFF0A3EFF0900CFF
:1018BE00AEE0601FD20190039CE0700912494B7498
:1018CE0004F0021A7F900396E0C394044003021AB8
:1018DE007F801D200203021A7F90039CE070051288
:1018EE00494B8014900396E0C394044003021A7F80
:1018FE00E4900387F09003967403F0021A7F90032E
:10190E0096E070030219BD900CABE0900CAEF09017
:10191E00039CE06401705090084FE07002A3E070E9
:10192E00147B010412474C7401124AFD7A0C79AEF5
:10193E00127447800E900850E024FFF090084FE09C
:10194E0034FFF090039BE090038360097403F0A3CF
:10195E007484F08003124AB312494474FAF0E4908E
:10196E000385F0A3F0803490039CE070171247308B
:10197E007B0190131CE0FD12A90D12474AE4A3123D
:10198E001D53801712474A7402124AFD7B017A0CCE
:10199E0079AE1274471249447450F0C22AD20190A3
:1019AE000CAFE06003021A7F900396F0021A7FA23A
:1019BE0014E433FF900396E070047E0180027E00F3
:1019CE00EE5F603612AA9312A06990130DE0900C90
:1019DE00ABF0C214E4900391F0124AD7900851F084
:1019EE00A3F0A3F0A3F09000BBF0900395F090034A
:1019FE0094F090039CE0707980209000BAE004F09F
:101A0E0070069000B9E004F012480EA3F0A3F09017
:101A1E0000BFF090039CE0FF700F900383F0A3745F
:101A2E00641249437450F08048EFB40229124944BD
:101A3E007432F0C3900CBAE09401900CB9E09400AB
:101A4E00500D900395E004F0E094034024801DE4D3
:101A5E00900395F0801B90039CE0B40414C3900C8B
:101A6E00B4E09496900CB3E094005005E490039C7F
:101A7E00F0201803021B53302003021B53D3900C8B
:101A8E00BAE094C8900CB9E0940040031246F69068
:101A9E00117CE024EEFF90117BE03402FAA907904E
:101AAE000D461247E8900CBDE0FFA3E0900D49CF24
:101ABE00F0A3EFF07B017A0C79AD128BEC900CACAD
:101ACE00EFF07003021B58E0FF64F06005EF640F47
:101ADE007044900CB07401F0D201EF64F07033D208
:101AEE001690039CE06063124B08124508FEA3E0BB
:101AFE00FFD312469F400AE4900CB0F0C201021BC5
:101B0E0058900CAEE06043900CAFE0603D121CE0CC
:101B1E0080F5C2168034900CACE06401702C9003FA
:101B2E009CE06026124B08124508FEA3E0FFD3127C
:101B3E00469F5016900CAEE06010900CAFE0600A1D
:101B4E00121CE080F5E4900CB0F0300119121DA1CA
:101B5E004002E4F012495C900CAEE0FD900CB0E057
:101B6E0012471A1288669012FCE0604C7DFE7C00D3
:101B7E007F1212AAFE9011C0124B8F30E4047D0228
:101B8E0080027D037C007F1312AAFE9011BC124BC3
:101B9E008FFF30E32312495C900CAEE0900D47F0BE
:101BAE00900CB0E0900D48F0900391E0FD900D493F
:101BBE00E4F0A3EDF012809D201420301602801B5D
:101BCE0012A7E190039CE0FFB402073027028013B6
:101BDE008009EFB404028003300508900CBF740135
:101BEE00F08005E4900CBFF01246D5125347900CCE
:031BFE00BFE0FF46
:101C010022900CA67401F09000BDE0FEA3E0FF90CD
:101C11000383E0FCA3E0FD900D4A7401F0A3740C72
:101C2100F0A374B9F0A37401F0A3740CF0A374BB16
:101C3100F0A37401F0FB7A0C79B3123384900CAAEF
:101C4100EFF02290039C7401F0FF12AC337F02127B
:101C51009FBA12A5E3D20712AA74227B017A0C79EA
:101C6100AB900CA9E0FDC207129237900CABE0D308
:101C710094082290039C7401F0FF12AC337F02128E
:101C81009FBA12A5E3D20712AA74227B017A0C79BA
:101C9100AB900CA9E0FDC2071294CB900CABE0D342
:101CA1009408229000BDE0FEA3E0FF900383E0FCD6
:101CB100A3E0FD900D4A7401F0A3740CF0A374B974
:101CC100F0A37401F0A3740CF0A374BBF0A374012E
:101CD100F0FB7A0C79B3123384900CAAEFF022E472
:101CE100900CAEF07B01900D4604F0A3740CF0A3B0
:101CF10074AFF090039CE0900D49F0900CA6E09039
:101D01000D4AF07A0C79AE127447227B017A0C7974
:101D1100ABC2071294CB900CABE0D3940822900392
:101D21009C7401F090039BF0FF12AC337F02129F71
:101D3100BA12A5E3D20712AA74227B017A0C79ABFD
:101D4100900CA9E0FDC207129237900CABE0D3943E
:101D51000822F0900CA6E0900D4AF07B017A0C79F4
:101D6100AE12744722E490039CF0C20712AA74E4F5
:101D7100900385F0A3F02290039CF0FF12AC337F17
:101D810002129FBA12A5E322C2071294CB900CABA8
:101D9100E0D394082290039C7401F0FF12AC33222B
:101DA100C20712000E900391E004F0E0D3940F22D9
:030000000200609B
:1000600000000075C00075A80075E80090000078D9
:10007000007900E4F0A308B800FA09B919F6F0789D
:1000800001760008B880FA780075C1007581800299
:10009000AB7100000000DFFA1EBEFFF622D2C09056
:1000A00004E8000000D582FAD583F7C2C022119D72
:0700B000DFFC1EBEFFF82279
:10869700FDECFFE475F00112542EFA748025F0F515
:1086A7008274083AF583EFF0900D4FE475F00112EC
:1086B700542EFC748025F0F582740822FF900D5922
:1086C700E475F00102542EFC7A002FFFEA35F0FE24
:1086D700EF25E0FFEE33FEE0FAA3E02FF582EA3E56
:1086E700F583E0FFA3E022900E2DE0FBA3E0FAA3C1
:1086F700E022EEF0A3EFF0A3EBF0A3EAF0A3E9F09A
:1087070022EB25E02458F582E43408F5832274032C
:10871700F0A374B3F07B017A08798022781AE69087
:108727000E36FFE0FCA3E0F5828C83222477FFE47A
:108737003401FEEF25E0FFEE33FE2290088074023D
:10874700F0A374A3F0A322EFF0781B0806E61886BF
:10875700062214F5828E830252E7900D4D7403F0C2
:10876700A37438F07B017A0D794F22E0FCA3E0FD7A
:10877700EC227812E6FD900E36E0FAA3E0F5828A45
:1087870083A3EDF022E6FE08E6FFD3900E31E09FCB
:10879700900E30E09E22FFE5F0F0A3EFF0223CF5CB
:1087A70083EFF0900D4BE0223EF583740FF0E4FD6C
:1087B70022CFF0A3EFF0901306E0FFECC39F2290C7
:1087C7000E32E0FEA3E0F5828E83E0227817E6FE04
:1087D70008E6FF223CF583EDF07B01227855E6FFA2
:1087E700EDC39F227852E6FFEDD39F22900D57CF1E
:1087F700F0A3EFF0900D57223CF583EFF0900001C6
:1088070002546F3CF583EFF090000302546F3CF580
:1088170083EFF090000502546FCFF0A3EFF0ECC3A5
:108827007853962285F082F583EF0253597C007DB9
:1088370031AE0202538D900E30E4F0A3223EF58351
:1088470074F7F0223EF5837419F022E0FF900D4B88
:0F885700E0FEC39F22F9EA35F0FA1252E7FF2242
:0684C400900E2C1286FC54
:1084CA00900E327440F0A374C1F0A374E0F0A37468
:1084DA000FF0A374E0F0A37410F0E47815F608F630
:1084EA00781BF608F67817F608F6781712878C4084
:1084FA001D1286EEF98F828E831252E7781626F6BF
:10850A0018E436F6781806E61870DF0680DC781567
:10851A00E6FF1286EEF9A31286C712882B7816E6B2
:10852A00FF900E301286C712882B900E30E0FAA305
:10853A00E0FBFF1288347812A607AF03128834EDE5
:10854A004C6003781206900E2CE0900E34128729A4
:10855A00EFF0E47819F608F67812E6FFC3781AE61F
:10856A009F18E6940040030286961287C654FEF0CE
:10857A00781376070876D0E47817F608F61287D3C8
:10858A00C3940AEE94004003028667EFC4F8540FBE
:10859A00C868FFEEC454F048FEEF2410FFEE34E042
:1085AA00900E36F0A3EFF0781B12878C501E1287BC
:1085BA00D34E7006128779028667EF64014E600314
:1085CA00028667128723A3EFF00286677818E664AB
:1085DA0001184660121286EEF912875070010612CF
:1085EA008759128726EFF01287D34E7005128779C2
:1085FA00800CEF64014E7006128723A3EFF01286F7
:10860A00EEF9128750700106128759FF900E36E074
:10861A00FCA3E0FDF5828C83A3A312874E700106AA
:10862A001287598D828C83A3A3A312874F700106E8
:10863A00128759FFED2404F582E43CF58312874E34
:10864A00700106128759FFED2405F582E43CF58393
:10865A00EFF0781806E61870010602858712ABF566
:10866A007FF47E011200921287C620E01478130864
:10867A00E616188606700116C39405EE940050E0BB
:0C868A0022781A06E618700106028562CC
:0186960022C1
:069CBC00900D981286FFD6
:109CC200900E297401F0A3740DF0A3749BF0900D13
:109CD20098E0F9A3E0FAA3E0900E2CC91287009055
:109CE2000E29E0F9A3E0FAA3E0900E2FC912870033
:109CF2007B017A0D79C312A508E4900E27F0A3F038
:109D02007B017A0D79C312AB87900E27EEF0A3EF99
:109D1200F01287427451F0900E27128772900883D6
:109D2200F0A3EDF0E4FFFED3900E28E09F900E2703
:109D3200E09E401F74C32FF582E4340DF583E0FDED
:109D420074852FF58274083EF583EDF00FBF000194
:109D52000E80D4900E27E0FEA3E0FF2485F58274E6
:109D6200083EF5837403F074862FF58274083EF57D
:109D720083128719900E28E02407FE900E27E03404
:0D9D820000900E30F0A3CEF07FF20284C4FA
:10A87E0012874274F3F0E4A3F0A37407F0A314F06C
:10A88E00A37402F0E4A3F0A304F0A3F0A3F0A304D6
:10A89E00F0A30412871712883D740EF07FF2028423
:01A8AE00C4E5
:10A3FC0012874274C0F0E4A3F0A37418F01252CE8A
:10A40C00900885F09000011252E7900886F09000B9
:10A41C00021252E7900887F09000031252E790085E
:10A42C0088F07F0C900889E4F0A3DFFC900895ED90
:10A43C00F07F07900896E4F0A3DFFC90089D12874C
:0CA44C001512883D741FF07FF20284C4DA
:1000460012874274F5F0E4A3F0A3F0A31287151209
:0A005600883D7407F07FF20284C4B5
:10AAFE00AB07ECFF128708E4F0A3EFF0FEAF0512F0
:08AB0E008708EEF0A3EFF0222E
:10A9AE009012FCE0600B7F28900858E4F0A3DFFCC7
:10A9BE0022E4FFEF128709747FF0A374FFF00FEF0C
:03A9CE00B414F0CE
:01A9D1002263
:06A33F00900D5B1286FF89
:10A34500900D5B1286F1F9125444900D5E12879DB3
:10A355007D14E4FCECC39D502EEC128709E0FF90C0
:10A365000D5E1286C7FA1286BA3AF583EFF0EC1243
:10A375008709A3E0FF900D5E1286C7FA1286BA3AE6
:10A38500F583EFF00C80CD900D5EE0F9A3E0FF9032
:0BA395000D5B1286F1C98FF00254F43A
:0690C800900D511286F923
:1090CE00900D531286F1F9125444900D5912879D4A
:1090DE001286C4FE1286BA128844900D51128772FF
:1090EE001286C3FA1286BA3AF583EFF0900D591232
:1090FE0086B21287DB7A0D795912A33F1286C4FE0F
:10910E001286BA12884B1286C4FE1286BA1287AF26
:10911E00E4900D56F0900D56E0FFC39410507CEF86
:10912E00640F606EED75F00FA4FF900D56E0901079
:10913E00071286CE900D571288204016900D56E0DD
:10914E00D37856964002800A1287E340051287EBC9
:10915E00401D1286C4FE1286BA3EF583E4F0900DD1
:10916E00591286C8FE1286BA3EF583E4F08023902B
:10917E000D57E01286C3FA1286BA3AF583EFF090D5
:10918E000D57A3E0FFA31286C7FA1286BA3AF583EB
:10919E00EFF0900D56E004F00291230DED6419608E
:1091AE000302911EE4900D56F0900D56E0FDC3940F
:1091BE000F5062E0FC1287339010071286DE900D7E
:1091CE00571287B8402B9012F9E0FFEDD39F502134
:1091DE00900D57128772FFA31286C7FA1286BA3AFB
:1091EE00F583EFF0900D591286B23CF583EDF080C9
:1091FE001B1286C4FE1286BA3EF583E4F0900D591A
:10920E001286C8FE1286BA3EF583E4F0900D56E043
:10921E0004F00291B7900D59E0F9A3E0FF900D53C1
:09922E001286F1C98FF00254F41C
:068F3C00900D511286F9B0
:108F4200900D531286F1F9125444FF900D59128775
:108F52009E900D591286C7FE1286BA128844900D51
:108F620051128772FF900D591286C7FA1286BA3AC9
:108F7200F583EFF0900D591286B21287DB7A0D79E4
:108F82005912A33F900D591286C7FE1286BA128853
:108F92004B900D591286C7FE1286BA1287AFE49023
:108FA2000D56F0900D56E0FFC39410400302903529
:108FB200EF640F6075ED75F010A4FF900D56E09010
:108FC20011951286CE900D571288204016900D569C
:108FD200E0D37856964002800A1287E34005128752
:108FE200EB4020900D591286C7FE1286BA3EF583D9
:108FF200E4F0900D591286C8FE1286BA3EF583E45B
:10900200F08027900D57E0FF900D591286C7FA1293
:1090120086BA3AF583EFF0900D57A3E0FFA31286CC
:10902200C7FA1286BA3AF583EFF0900D56E004F0D3
:10903200028FA50DED64196003028FA0E4900D5616
:10904200F0900D56E0FDC3940F5067E0FC2490129F
:1090520087359011951286DE900D571287B8402BF6
:109062009012F9E0FFEDD39F5021900D57128772B5
:10907200FFA31286C7FA1286BA3AF583EFF0900D73
:10908200591286B23CF583EDF0801E900D5912867E
:10909200C7FE1286BA3EF583E4F0900D591286C8D7
:1090A200FE1286BA3EF583E4F0900D56E004F0021B
:1090B2009043900D59E0F9A3E0FF900D531286F111
:0690C200C98FF00254F416
:068DA600900D511286F948
:108DAC00900D531286F1F9125444FF900D5912870D
:108DBC009E900D591286C7FE1286BA128844900DE9
:108DCC0051128772FF900D591286C7FA1286BA3A61
:108DDC00F583EFF0900D591286B21287DB7A0D797C
:108DEC005912A33F900D591286C7FE1286BA1288EB
:108DFC004B900D591286C7FE1286BA1287AFE490BB
:108E0C000D56F0900D56E0FFC3940F4003028E9E5A
:108E1C00EFC37853964014E0FCD37856964002800A
:108E2C000A1287E340051287EB4020900D591286F9
:108E3C00C7FE1286BA3EF583E4F0900D591286C82F
:108E4C00FE1286BA3EF583E4F0803EED75F00FA479
:108E5C00FFEC7A002FFFEA35F012873990117B1264
:108E6C0086DE1287F3E0FF900D591286C7FA128640
:108E7C00BA3AF583EFF0900D57A3E0FFA31286C723
:108E8C00FA1286BA3AF583EFF0900D56E004F00230
:108E9C008E0F0DED64196003028E0AE4900D56F0EE
:108EAC00900D56E0FFC3940F5072901306E0FEEF46
:108EBC00C39E40419012F9E0FF900D56E0FED39F07
:108ECC005033EE12873390117BE0FCA3E02FF58238
:108EDC00EC1286E61287F3128772FFA31286C7FA8A
:108EEC001286BA3AF583EFF0900D591286B23CF522
:108EFC0083EDF0801E900D591286C7FE1286BA3E85
:108F0C00F583E4F0900D591286C8FE1286BA3EF530
:108F1C0083E4F0900D56E004F0028EAC900D59E015
:108F2C00F9A3E0FF900D531286F1C98FF00254F4AF
:0B809D00900D441286FF900D43EFF0A1
:1080A800E4900D4FF0A3F0900D4F1286B33CF5838A
:1080B80074021286AE3CF58374A3F0EF5428700363
:1080C80002825B900D48E0FF900D47E0FED39F4091
:1080D80004AF068000900D4CEFF0A3E4F0A3742ADF
:1080E800F0900D43E0FF30E30E900D4EE0240EF0CB
:1080F800900D4DE03403F0EF30E539900D48E07510
:10810800F002A4FDACF0900D47E075F008A42DFF37
:10811800E5F03CFE900D4EE02FF0900D4DE03EF066
:10812800900D4CE0600E900D4EE02402F0900D4D45
:10813800E03400F0900D43E030E310900D4DE0FE88
:10814800A3E0FF12876B128DA68025900D4F128633
:10815800C7FE1286BA3EF58374F6F0900D4DE0FC2A
:10816800A3E0A31286973CF583ED12876A12A33F1A
:10817800900D43E020E50302827D900D47E0FF1259
:1081880086AF3CF583EFF0900D48E0FF1286AF3CD8
:10819800F583EFF0900D4CE06012900D49E0FCA3E0
:1081A800E0900D4F1286973CF583EDF0E4900D4B6F
:1081B800F0900D471288525061900D441286F1F9E3
:1081C80075F00BEEA4F58285F0831252E7FF128654
:1081D800AF1287A575F00BA42990000712885C12CE
:1081E80086AF1287FFE5F0FF1286AF1287FFFF12F6
:1081F80086AF12880AE5F0FF1286AF12880AFF12CE
:1082080086AF128815E5F0FF1286AF128815FF12A7
:1082180086AF1287A504F00281B9E4900D4BF09067
:108228000D48128852506CEE75F00BA4FF900D4467
:108238001286F12F90000912885C1286AF3CF583F4
:10824800EFF090000A1252E7FF1286AF1287A504DA
:10825800F080CC900D43E0B4040B128761FF7E03DD
:10826800128F3C8010900D43E0B40127128761FF04
:108278007E031290C8900D4F1286C7FE1286BA3E32
:10828800F583E4F0900D4F1286C8FE1286BA3EF5CB
:1082980083E4F0900D4F1286C7FE1286BA3EF5832E
:1082A8007403F0900D4F1286C7FE1286BA3EF5830E
:1082B800128719900D4FE0FFA3E0900E30CFF0A386
:0782C800EFF07FF20284C415
:10AB2D0041707220323220323031332020203133C7
:07AB3D003A35333A353600CA
:10A9D2009201E4900CA4F0901345E024FF9202222D
:10A9E200901344E004F022E0FEA3E0F5828E83E0BF
:01A9F2002242
:10A552001276E4129D8F12A87E7BFF7A0079F0902A
:10A5620012FCE0FD12A3FC7BFF7AAB792D129CBC9E
:10A57200127BFA1297197F02129FBA12A84B30125D
:10A5820007127151D20080077F0412A204C2001286
:09A592009824C22FC231020046D8
:10AA1400302CFDC22C7B017A0C79A0129A09EF30FC
:10AA2400E5EED201E4900CA4F0C202123CA180E055
:10938A00E4901344F0C23030310302944190134800
:10939A00E0D394644017E4F090117DE0FEA3E0FF6F
:1093AA00F5828E837401F08F828E83E4F0302CD79D
:1093BA001294AB30E441901344E0C39402400BE4AE
:1093CA00F0D2011296025002D2311294BC700712E6
:1093DA00AC11D2018013900CA1E0B40111D230E497
:1093EA00901344F0120016C20112ABB08099900C8F
:1093FA00A1E06402029391900CA0E030E58912008A
:10940A00369200A200822F500C12A9E2A3E0700546
:10941A007F01129FBAA2009201900CA4740312A9B0
:10942A00D8123CA1EF70089012FD7403F0D22FD22B
:10943A000712000E029391302CFD1294AB30E434E3
:10944A001294BC701C901344E0C39402400CA220F6
:10945A009201129602E4901344F012AC11D20180E8
:10946A000E900CA1E0B401CFD230120016C2011244
:10947A00ABB080C3900CA0E030E5BC901345E0701F
:10948A00057F01129FBA1200369200A20012A9D2D9
:10949A00123CA130000312A9E2D20712000E029474
:0194AA004180
:1094AB00C22C7B017A0C79A2129A09900CA0EFF0D6
:1094BB00227B017A1379451200F4900CA1EFF02274
:109E5400E4901344F0C230302CFD12A9AEC22C7B26
:109E6400017A0C79A2129A09900CA0EFF030E471F7
:109E74007B017A1379451200F4900CA1EFF070077E
:109E840012AC11D201800E900CA1E0B4010CD230BE
:109E9400120016C20112ABB080BD900CA1E0B4FE5A
:109EA400B67DFE7C007F1212AAFE9011C012A9E9B1
:109EB40030E4047D0280027D037C007F1312AAFE3D
:109EC4009011BC12A9E9FF30E38D7B007A00790080
:109ED400E4900D47F0A3F0A3F0A3F012809D029E3E
:109EE4005B900CA0E020E503029E5B12003692001A
:109EF400A20012A9D2123CA130000312A9E2D20797
:069F040012000E029E5B3C
:10AB710012A552301A0302AA149012FCE0600302DB
:06AB81009E5412938A228B
:10AA34000001000200040008001000200040008013
:10AA44000100020004000800100020004000800003
:10573500EEFB7A002477FFEA3401FEEF25E0FFEE69
:1057450033FE9012CAE0FCA3E02FF582EC3EF58310
:10575500E0F527A3E0F528901313E0FEA3E0FFC3CF
:10576500E5289FF52CE5279EF52BFEAF2C9013170A
:10577500E0FD7C001253E28E2B8F2CEB2490FFEA88
:105785003401901195FEEF25E0FFEE33FEE0FCA31A
:10579500E022D2339012C4E0FEA3E0FFF5828E83AF
:1057A500E0FCA3E0FD901195E0FAA3E0F5828A8381
:1057B500E0FAA3E09DFDEA9CFC901195E0FAA3E0D8
:1057C500241CF582E43AF583E0FAA3E02DFDEA3CDA
:1057D500FCEF241CF582E43EF583E0FEA3E0FFC365
:1057E500ED9FFFEC9EFE901195E0FCA3E0243AF5B9
:1057F50082EC3402F583E0FCA3E02FFFEC3EFE9043
:1058050012C4E0FCA3E0FD243AF582EC3402F583F2
:10581500E0FAA3E0FBC3EF9BFFEE9AFE901195E043
:10582500FAA3E02456F582EA3402F583E0FAA3E010
:105835002FFFEA3EFEED2456F582EC3402F583E0B7
:10584500FCA3E0229012CBE02402F09012CAE034CF
:1058550000F0901196E02402F0901195E03400F0EC
:105865009012C5E02402F09012C4E03400F02290BA
:1058750012CAE0FEA3E0F5828E83E0F527A3E0F5EA
:1058850028900CA9E02528F0900CA8E03527F09089
:105895001313E0FEA3E0FFC3E5289FF52CE5279E43
:1058A500F52BFEAF2C901311E0FD7C001253E28E18
:1058B5002B8F2C222490FFE43401FEEF25E0FFEE30
:1058C50033FEED2FF582EC3EF583229012C4E0FE07
:1058D500A3E0243AF582EE3402F583E0FEA3E0244A
:1058E50014FFE422900CA8E0FEA3E0FF7C007D0FEE
:1058F5001253E2900CA8EEF0A3EFF0900CA6E0FC9A
:10590500A3E0FDC39FEE6480F8EC64809822FEEF6F
:1059150025E0FFEE33FE901195E0FAA3E02FF58226
:10592500EA3EF583ECF0A3EDF0223EFE901195E002
:10593500FCA3E0243AF582EC3402F583E0FAA3C334
:10594500E09FEE6480F8EA648098229012C4E0FE3D
:10595500A3E0F5828E83229012FFE0FEA3D3E0FF41
:10596500E5289FEE6480F8E52764809822E0FAA395
:10597500E0C3952CF52AEA952BF529C3648094801C
:1059850022D3E52A94FFE52964809483229012CAE4
:1059950074C0F0A3E4F090119574A0F0A3E4F09026
:1059A50012C4741CF0A37441F0229012C22490FF1B
:1059B500E43401FEEF25E0FFEE33FEE0FCA3E02238
:1059C500901317E0FF7E00901313E0FCA3E0FD2F7A
:1059D500F52EEE3CF52DC3ED9FF530EC9EF52F220F
:1059E5003EFE901195E0FCA3E0FDF5828C832290AC
:1059F5000CA1E075F010A4FF900CA0E07C002FFF37
:105A0500EC35F0227B007A007900E4900D47F0A395
:105A1500F0A3F0A3F022F5828E837403F0A374FF44
:105A2500F0229012C4E0FEA3E0241CF582E43E229D
:105A3500E4900CA8F0A3F07853E67810F6229012C3
:105A4500F9E0FF900CA1E0FED39F22901195E0FEB6
:105A5500A3E0FFF5828E83E0FCA3E022FAA3E0FB3E
:105A6500E52A2DFFE5293CA2E713FEEF13FF8B8204
:105A75008A83EEF0A3EFF022F5828E83E529F0A369
:105A8500E52AF0229012F9E0FF7811E6FED39F2275
:105A95003EFE901195E0FCA3E0243AF582EC340239
:105AA500F583E0FAA3E0223401FEEF25E0FFEE33B3
:105AB500FE22900CA1E004F022FDC3EF9DFFEE9CB9
:105AC500901280F0A3EFF0901280E0FEA3E0780240
:105AD50022FD9012C2E0FAA3E02FF582EA3EF5839B
:105AE500223EFEED241CF582E43C229012C4E0FE29
:105AF500A3E0245622900CA0E0FFD378569622907E
:105B05000CA6EEF0A3EFF0900CAAE0FEA3E0FF9048
:105B15000CA82290119BE0FEA3E0AA06F97B0122C6
:105B2500900CA1E0D378529622901306E0900CA138
:105B3500F0227E037F407D00E0FAA3E0F97B0102BD
:105B450056C3E0F527A3E0F52822901195E0FEA3C2
:105B5500E022901306E07811F6227855E6900CA124
:105B6500F0227853E6900CA0F022900CA1E075F09D
:105B750010A4FF22E0FEA3E0FF901310E0FD7C00DF
:105B85000253E2E0FEA3E0C3952CF52AEE952BF532
:105B95002922E0FEA3E0252AFFE5293EA2E71322FC
:105BA5007855E67811F622900CA0E004F0227911E0
:105BB500E7D3785296227910E7D3785696227F3428
:105BC5007B017A12798E0256C3FDC3952CF52AEC1A
:105BD5002274017E0078108600082225E0248EF5C7
:0F5BE50082E4341222FD901195E0FAA3E0FB2236
:0CA27100900D73EFF09012F8E06F605B4E
:10A27D0078747C0D7D017BFF7AAA79347E007F2076
:10A28D001252A8900D73E0FD25E02474F582E4349C
:10A29D000DF583E0FFA3E090128ACFF0A3EFF0E479
:10A2AD00A3F0A3F0900FFFF0A3F0901102125B1B2F
:10A2BD0012A90D900D73E09012F8F0125B187D014C
:0BA2CD0012A90D125B18E4FD12A90D90
:01A2D8002263
:10A84B009012CA74C01259A09012C27419F0A3745A
:10A85B0001F0E4901283F09012C6125A13901284F6
:10A86B00F0A3F090127EF0A3F0C2339012FDE0FF44
:03A87B0002A271C5
:050016007F0F02A27142
:08AC11009012FDE0FF02A271A8
:103CA100900CA57401F0E4A3125A13A37404F0A3B9
:103CB100E4F09012FCE060367DFE7C007F1212AAD7
:103CC100FE7D017C007F1312AAFE9011BC12595394
:103CD100E030E208125A097F0412809D9011BC1253
:103CE1005953E030E108125A097F0812809D2001E2
:103CF1000612A730024439900CA4E06003023ED1C1
:103D01009013111259C830333D1259501258E01214
:103D110059E51259414003023D99125A271258DEC2
:103D2100125AE6125842125908506D1258D01259BF
:103D31002F5065125AF01258D9125838125908509A
:103D410057D233023D991259501258E01259E5E009
:103D5100FAA3D31259454040125A271258DE125A7B
:103D6100E6125842D3125909402E1258D0125A95D0
:103D7100D31259464022125AF01258D9125838D348
:103D81001259094013125797125ABECEC313CE13BC
:103D9100D8F9F0EE901280F030337B125BA5125B04
:103DA100B34003023ECB125A35125BBB5035125859
:103DB10074125A50125BCE12597C500A8F828E8334
:103DC100E4F0A3F08014125986901195E040081296
:103DD1005954125A1F8003125A6112584978100619
:103DE100023DAA1258573002271258E95008A3E0A1
:103DF100FEA3E0FF8004AE04AF05125B0412590379
:103E01005006AE04AF058000900CAAEEF0A3EFF0CF
:103E1100781106023D9F125BA5125BB34003023E7F
:103E2100CB125A35125BBB506E9012CA1259531203
:103E31005B47900CA9E02528F0900CA8E03527F00D
:103E4100D3E5289530E52F125969500474FF801588
:103E5100C3E528952EE52D1259694008752B00758B
:103E61002C018005E4F52BF52C125A50125BCF1270
:103E7100597C500A8F828E83E4F0A3F0801012598E
:103E810086125B4F4005125A1B8003125A7D12584D
:103E910049781006023E251258573002271258E978
:103EA1005008A3E0FEA3E0FF8004AE04AF05125B5F
:103EB100041259035006AE04AF058000900CAAEE1F
:103EC100F0A3EFF0781106023E1A1259920241C591
:0B3ED100900CA4E0640360030240C0FA
:103EDC00900CACF0A3F030333D1259501258E01254
:103EEC0059E51259414003023F75125A271258DE08
:103EFC00125AE6125842125908506E1258D01259E2
:103F0C002F5066125AF01258D912583812590850BC
:103F1C0058C233023F751259501258E01259E5E05D
:103F2C00FAA3E0D31259464040125A271258DE1217
:103F3C005AE6125842D3125909402E1258D0125A2E
:103F4C0095D31259464022125AF01258D9125838A9
:103F5C00D31259094013125797125ABECEC313CE1F
:103F6C0013D8F9F0EE901280F0125BA5125BB340FF
:103F7C0003024071125A35125BBB40030240689039
:103F8C0012CA125953125B474527602A12589412D1
:103F9C005A50125BCE12597C50078F828E83023F8F
:103FAC00F8125986901195E04006FEA3E0024007F6
:103FBC00125A6102405F1258941259E7125B881230
:103FCC005BD68005C333CE33CED8F9FF7811E6F932
:103FDC00125BE0125AA5FBEA5EFEEB5F4E6026C355
:103FEC00E52964809480500B8D828C83E4F0A3F0DF
:103FFC0002405F125986125B4F4005125A1B8053C8
:10400C00125A7D804EE9125BE0F583C083C08212A8
:10401C005BD68005C333CE33CED8F9FFEA4EFEEB28
:10402C004FFFD082D083EEF0A3EFF0125950125B09
:10403C0097FEEF13FF901195E0FCA3E0F5828C83C3
:10404C00EEF0A3EFF09012C9E004F070069012C8E5
:10405C00E004F0125849781006023F831258577842
:10406C001106023F78125992901284E0FEA3E0FFF1
:10407C009012C81259034008E4900CA5F00241C5F7
:10408C002030030241C590127EE0FEA3E0B505127C
:10409C00ECB5060E9012C9E004F070069012C8E060
:1040AC0004F09012C8E0FFA3E090127ECFF0A3EFD3
:0140BC00F013
:0340BD000241C5F8
:1040C000E4900CACF0A3F0125BA57811E6D3785223
:1040D00096400302416F125A357810E6D37856960F
:1040E00040030241661258741259E7125B88900C23
:1040F000A4E06401704B901314E025E0FF901313CB
:10410000E033FED31259654005900CAD8010D3E525
:10411000289400E527648094805006900CACE0045D
:10412000F0C3E52964809480500A8D828C83E4F08A
:10413000A3F08013125986125B4F4008125A1B805D
:1041400006125B4F125A7D12595C500C901303E01B
:10415000FEA3C31259635005E4900CA5F012584910
:104160007810060240D91258577811060240CA1238
:104170005992900CADE0FF7E00C3901285E09F74D1
:1041800080F8901284E06480985027EEF0A3EFF05E
:10419000901284E0FCA3E0FDAE047803CEA2E71306
:1041A000CE13D8F8FFC3ED9FFFEC9E901284F0A3CE
:1041B000EFF0900CACE0FFC3901285E09FF09012FE
:0541C00084E09400F012
:1041C500A218B016400302442E900CA4E06003022E
:1041D50042951259C530333C125B57125A89400338
:1041E50002442E125735FD1258C812597250091241
:1041F50058C7E4F0A3F080161259867811E64008F6
:104205001258B9125A1F80061258B9125A817811DC
:10421500060241E0125B57125A89400302442EEE12
:10422500FD7C002477FFEC125AAC9012CA125ADAC0
:10423500125B47D39530E52F125969500474FF80FE
:1042450015C3E528952EE52D1259694008752B00F3
:10425500752C018005E4F52BF52CED2490FFEC126F
:104265005785FD1258C812597250091258C7E4F003
:10427500A3F080161259867811E640081258B91233
:104285005A1F80061258B9125A8178110602421C2B
:10429500900CA4E0640360030243891259C5125BC4
:1042A50057125A89400302442EEEFB7A002477FF09
:1042B500EA34019012CA12578A1258C8125B474550
:1042C50027601A12575CFD1258C812597250030222
:1042D50043171259867811E640530243297811E6AF
:1042E500FB74017E00A803088005C333CE33CED806
:1042F500F9FF9012C0E05EFEA3E05F4E604E1258DB
:1043050094EB2490FFE4125785FD1258C812597298
:10431500500A1258C7E4F0A3F00243831259867875
:1043250011E640091258B9125A1F0243832490FB23
:10433500E43401FAEB25E0FFEA1258C5125B97FC5D
:10434500EF13FDEB25E0FFEA33FE802F7811E6FD44
:1043550074017E00A805088005C333CE33CED8F995
:10436500FF9012C0E04EF0A3E04FF0ED9012C412A2
:1043750059B22FF582EC3E125842FD12591B7811A5
:10438500060242A6125B57125A895040125735FD54
:104395001258C8E0F529A3E0F52A12595C500E9091
:1043A5001303E0FEA3E0FFC31259655005E4900C2A
:1043B500A5F0C3E52A952CFBE529952BFA7811E69E
:1043C5001258B9EAF0A3EBF00602438CE47811F633
:1043D5007811E6FFC394035012EF2490FFE41257BF
:1043E500851258C8E4F0A3F00680E57811760478C4
:1043F50011E6FFC394095012EF2490FFE41257858C
:104405001258C8E4F0A3F00680E57811760A781111
:10441500E6FFC3940F5012EF2490FFE41257851264
:1044250058C8E4F0A3F00680E5900CA4E0640260AF
:094435000312A730900CA5E0FF72
:01443E00225B
:10715100301B05E4FF12A271E4900CA3F09012829F
:10716100F0FEFD125BC39012C4125B379012C21283
:107171005B37D211901305E07003027419302CF4BF
:10718100C22C7B017A0C79A2129A09EF30E5E590C5
:107191001305E014F0900CA3E01470030272911433
:1071A10070030272B6240260030274139012FCE0B1
:1071B10060129011BC125953E030E208125A097F53
:1071C1000412809D9012FCE0605A125B5F125B25F5
:1071D1005030125B67125AFA5023EF640F60199016
:1071E100131AE0FCA3E0FD125B6F900CA0E07A00A3
:1071F1002FFFEA35F0125913125BAC80D8125AB73F
:1072010080CB30187A125B2E125A43507290131AA7
:10721100E0FCA3E0FDEE2490FFE4340112591312C7
:107221005AB780E4125B5F125B25502C125B671228
:107231005AFA501FEF640F60151259F41257872F35
:10724100F582EC3E125842FD9012C412591E125B97
:10725100AC80DC125AB780CF301824125B2E125A40
:1072610043501CEE2490FFE41257852FF582EC3E2B
:10727100125842FD9012C412591E125AB780DF9063
:107281000CA37401F0901305E0FF25E0F0027413E4
:10729100127439EF6005E4901305F0901305E06076
:1072A10003027413901310E0901305F0900CA37473
:1072B10002F002741320110FD201E4900CA4F0C269
:1072C10002123CA1027413127439125B5F125B2526
:1072D100502E125B67125AFA5021EF640F60171299
:1072E10059F41257872FF582EC3E125842125AD6A2
:1072F100EC8DF0125418125BAC80DA125AB780CDC3
:10730100301826125B2E125A43501EEE2490FFE4D1
:107311001257852FF582EC3E125842125AD6EC8D47
:10732100F0125418125AB780DD901305E060030281
:107331007413125B5F125B25507C125B67125AFA61
:10734100506EEF640F60631259F4125AAE9012C27C
:10735100E0FCA3E01258C8C083C082125B79D082DE
:10736100D083EEF0A3EFF0125B6F900CA0E0F91266
:107371005A01125AAE9012C2E0FCA3E02FF582EC42
:107381003E125842125BEA1259229012FCE0601A36
:10739100125B6FE9125A01125AAEEB2FF582EA3EE7
:1073A100125842FD9012C412591E125BAC02733E78
:1073B100125AB7027336301859125B2E125A4350C3
:1073C10051EE1259AF1258C8C083C082125B79D0F6
:1073D10082D083EEF0A3EFF0900CA1E0F91259AF47
:1073E1002FF582EC3E125842125BEA12592290129A
:1073F100FCE06018E92490FFE4125AACEB2FF5820F
:10740100EA3E125842FD9012C412591E125AB70296
:1074110073BD12A730027175301B1C9011CC12592B
:1074210053E0547FF0901197125953E054EFF090CC
:0774310012FDE0FF12A27141
:0F74380022D201900CA47402F0C202123CA122D5
:05A20400900CA0EFF03A
:10A209007E007D00125BC3301B05E4FF12A271E4DE
:10A21900901282F0C232D200900CA0E06034302C4F
:10A22900F7C22C7B017A0C79A1129A09EF30E5E883
:10A23900900CA0E014F0300002C200D201900CA4EE
:10A249007401F0C202123CA1EF60CDE4900CA0F0C1
:10A2590080C6301B129011CC125953E0547FF090F4
:07A2690012FDE0FF12A271DB
:01A2700022CB
:10679B007A02F9F8125540AB4AAA49A948A8471200
:1067AB00A66C8E2B8F2CE52A252CFFE529352BADDE
:1067BB0007FC7814E675F00B90123CA4FFE0FBA3EA
:1067CB00E0FAA3E02FF9EA35F0FA228F4E8E4D8DC9
:1067DB004C8C4BC3E538954EFFE537954DFEE536B2
:1067EB00954CFDE535954BFCE47B50FAF9F81255C9
:1067FB0040E47B64FAF9F812A66CA804A905AA0672
:10680B00C3E5389FF54AE5379AF549E53699F548DA
:10681B00E53598F547E54A2546FFE5493545FEE55B
:10682B00483544FDE5473543FCC3EF9542FFEE95F4
:10683B0041FEED9540FDEC953FFC7801025673E56A
:10684B003E249CFFE53D34FFFEE53C34FFFDE53B7C
:10685B0034FFFCE47BFFFAF9F8125540E47B0C7A29
:10686B0017F9F812A66C8F3E8E3D8D3C8C3BE47F66
:10687B0001C3FEFDFCAB3EAA3DA93CA83B02565D05
:10688B007813E675F006A4FF90123F227812E625E6
:10689B00E025E024D4F582E43411F583E0FCA3E099
:1068AB00FDA3E0FEA3E0221252E77810FF3395E040
:1068BB00FEC3E6FD9FEE6480F874809822E54225C6
:1068CB0038F542E5413537F541E5403536F540E5DC
:1068DB003F3535F53F85343885333785323685314D
:1068EB0035E4F546F545F544F54385343085332FCE
:1068FB0085322E85312D22AF34AE33AD32AC3178AB
:10690B00011256738F348E338D328C3122FF780106
:10691B00125687EF2534FFEE3533FEED3532FDECA5
:10692B003531227811E625E025E02442F582E43466
:10693B001222E5462542FFE5453541FEE54435404B
:10694B00FDE543353FFCEF2538F53EEE3537F53D9C
:10695B00ED3536F53CEC3535F53B22E47F707E1793
:10696B00FDFCAB3EAA3DA93CA83BD302565D7C0087
:10697B00FFEC35F0FEEF25E0FFEE33FE9011D2E099
:10698B00FCA3E02FF582EC3EF583E0F539A3E0F5AF
:10699B003A22E4F542F541F540F53FF546F545F56C
:1069AB0044F543F538F537F536F535F530F52FF574
:1069BB002EF52D22E47A0EF9F81255CB8F4A8E491B
:1069CB008D488C47229000051252E7FF3395E0FE6D
:1069DB0022FEED34FFFDEC34FFFCE4FBF9F802552D
:1069EB0040E5462534F546E5453533F545E5443573
:1069FB0032F544E5433531F5432225E025E024D437
:106A0B00F582E43411F58322E62401FFE433FEED35
:106A1B003395E0FCD3ED9FEE6480F8EC6480982214
:106A2B00AF30AE2FAD2EAC2DAB34AA33A932A8317B
:106A3B00D302565DAF42AE41AD40AC3FAB46AA452B
:106A4B00A944A843D302565DEC8DF0900003025588
:106A5B001312546FAEF0FBAA06EA3395E0F9F8C3B4
:106A6B00E49BFF22F534E5333EF533E5323DF53259
:106A7B00E5313CF53122E4753E64F53DF53CF53BE3
:106A8B002290000312546FFFAEF022FEE499FDE456
:106A9B0098FCE4FBF9F8025540900D43E0640122A9
:106AAB00FF780102567312569A78100622EE339530
:106ABB00E0FDFC22E4753E70753D17F53CF53B227D
:106ACB00FCE47B03FAF9F802A66CAF38AE37AD36AF
:106ADB00AC357801229000030252E7E4F534F5332C
:106AEB00F532F531229000020252E7900001EC8D55
:026AFB00F02287
:10A76D00900CC8A3E0FAA3E0FF9011D2EAF0A3EF9A
:10A77D00F0900CCBE0F9A3E0FAA3E090123FC9F002
:10A78D00A3EAF0A3E9F0900CCEE0F9A3E0FAA3E080
:0CA79D0090123CC9F0A3EAF0A3E9F022FE
:10AA93007E007F347D007B017A1179D41256C37E08
:0EAAA300007F1E7D007B017A1279420256C3AD
:104B9900900D43EFF0A3ECF0A3EDF0A3EAF0A3EB43
:014BA900F01B
:104BAA00E47813F608F6900D43E078131268B740DC
:104BBA00030251B3ED75F00690123F1267C6126AEE
:104BCA00E0F52812699D7815F608F6126AA4705B5A
:104BDA007855E67810F612688B1267C890000312AF
:104BEA0068B25017ED126A05C083C0821268A71214
:104BFA006AABD082D083126AB180DB12688B1267EB
:104C0A00C89000051252E77810F67810E6FFD378BC
:104C1A0052965017EF126A05C083C0821268A71213
:104C2A006AABD082D083126AB180DF12688B1267B6
:104C3A00C8126AE07812F612688B1267C81269D035
:104C4A007812E6D31268BF4003024D31126AE612A7
:104C5A006AF07811F612688B1267C890000412691C
:104C6A00D37811D31268BD50417812E675F00FA4BB
:104C7A002D126979C3900D47E0953A900D46E0955B
:104C8A00395003781606C3900D45E0953A900D44C5
:104C9A00E095395003781506AE39126AB8E534251D
:104CAA003A126A6F781106024C5F12688B1267C853
:104CBA009000011269D37812E6FBD31268BF500341
:104CCA001269027852E6FAB50303126902126AA45B
:104CDA00703D7855AD28126A13400CEA146480F8C6
:104CEA00E528648098400B126897126918126ACBFB
:104CFA00800912689712691F12684412690FAF344B
:104D0A00AE33AD32AC317812E6126A0512569A12F7
:104D1A006A2B400A7812E6F5281268C880031269DD
:104D2A00EC781206024C41E5462542F53EE545354A
:104D3A0041F53DE5443540F53CE543353FF53B78E3
:104D4A0055E6FBFFAD28ED3395E0FCC3ED9FFFEC84
:104D5A009400FE7C027D8012537B8E298F2A785222
:104D6A00E6B52825900D48E0126AD5B401028027DD
:104D7A00125673E5382FF538E5373EF537E5363DF7
:104D8A00F536E5353CF5358019EBB52815900D4813
:104D9A00E0B4010E126AD51256878F388E378D36D7
:104DAA008C35126A3F400AAF46AE45AD44AC4380EB
:104DBA0008AF42AE41AD40AC3F1267D6E47B8012E9
:104DCA00679B126A5390000312546FFFE5F08FF04D
:104DDA00126A56126A8CD39400EE64809499404702
:104DEA00900D48E0B40108754F307550D4800675AF
:104DFA004F307550E0126AB8E42FFFEE34E77A19A3
:104E0A001269DCC006C007E42550FFE54F34E7AB62
:104E1A0007FA3395E0F9F8D007D0061269C4E42FEF
:104E2A00FDEE3419024E7A900D48E0B40108754F30
:104E3A00007550A08006754F007550F01267BD903E
:104E4A000003126A5C74199A7A19126A96C006C02B
:104E5A0007C3E49550FF7419954FAB07FA3395E0F1
:104E6A00F9F8D007D0061269C4C3E49FFD74199EED
:104E7A001267BC126A5312693D1267BD126A8CC36B
:104E8A00EE648094805008900003E4F5F08013D318
:104E9A00EF9400EE648094B2400B90000374327574
:104EAA00F00012551312688B1267C8126AF0F527C0
:104EBA0012699D126AA4705F7853E67810F6126838
:104ECA008B1267C89000021268B25019ED1269314C
:104EDA00F583C083C0821268A7126AABD082D083DE
:104EEA00126AB180D912688B1267C89000041252F4
:104EFA00E77810F67810E6FFD37856965019EF1235
:104F0A006931F583C083C0821268A7126AABD08266
:104F1A00D083126AB180DD12688B1267C8126AF0F8
:104F2A007811F612688B1267C89000041269D37858
:104F3A0011E6D31268BF4003025005126AE6126AEC
:104F4A00E07812F612688B1267C81269D07812E6F6
:104F5A00FDD31268BF501DED75F00FA4FF7811E65E
:104F6A002F126979AE39FF126AB8E5342F126A6FC7
:104F7A00080680D090123FE0FBA3E0FAA3E0F9789C
:104F8A0013E675F006A4F58285F0831269D37811C9
:104F9A00E6C31268BF4003126902126AA470447819
:104FAA0053AD27126A13400E7856E6146480F8E56A
:104FBA0027648098400E12692E1268A51269181289
:104FCA006ACB800C12692E1268A512691F126844F6
:104FDA0012690FAF34AE33AD32AC3112692EF5839C
:104FEA0012569A126A2B400A7811E6F5271268C8F7
:104FFA0080031269EC781106024F2D7853E6FFAD53
:10500A0027C3ED9FFFEF752A0025E0F529126A3FB5
:10501A00400AAF46AE45AD44AC438008AF42AE410C
:10502A00AD40AC3F1267D6E4FB12679B126AF612D8
:10503A005513900001E475F0501254A77853E665B1
:10504A00276028AF28EF3395E0FEEF7802C333CE0E
:10505A0033CED8F9FF7852E6FD7C001253E2AC0653
:10506A00AD071267BD126AF61254A71267BD900007
:10507A0001126A8FD39400EE6480948F401B126AE7
:10508A00B8E42FFFEE34F17A0F1269DC7B40126923
:10509A00BFE42FFDEE340F801D1267BD9000011290
:1050AA006A5C740F9A7A0F126A967B101269BFC3F0
:1050BA00E49FFD740F9E1267BC126AF61255131212
:1050CA0067BD900001126A8FC3EE64809480500815
:1050DA00900001E4F5F08013D3EF9400EE6480941D
:1050EA009E400B900001741E75F00012551378143F
:1050FA00E6FF90123CE0FBA3E0FAA3E0F975F00B9F
:10510A00EFA4F58285F083EF12535912693DE47FCB
:10511A0064D312687D4025E47F64FEFDFC12697346
:10512A005003126A811269664003126ABF12684A02
:10513A005007E4753E01126A8502518D7853E6657F
:10514A002760157856E66527600E7855E66528606B
:10515A00077852E66528704BE47F46FE12696B4079
:10516A0042E47F64FEFDFC1269735003126A8112E5
:10517A0069664003126ABF12684A5007E4753E0125
:10518A00126A851267BD900008E41253599000050F
:10519A00E53D853EF01255139000077401125359EC
:1051AA00781406781306024BB0900D43E07811F696
:1051BA007811E6FFC394085010EF1267C0900007F9
:0D51CA00E412535978110680E77814E6FFCF
:0151D70022B5
:10A6B00052656769737465722053657420427566CC
:10A6C000666572204F766572666C61672021210095
:10A6D000000100020004000800100020004000807B
:10A6E000010002000400080010002000400080006B
:109AF20012546F900D4CF0E0FFA3E0FCA3E0F5825E
:109B02008C83EFF0900D4FE02FF0900D4EE02290FD
:109B12001307E0FF9011B4E0FCA3E0F5828C83EF21
:109B2200F090130BE09011CAFFE0FCA3E0F5828CE9
:109B320083EFF0229011D0E0FEA3E0F5828E832223
:109B42008F828E837401F00F2275F00BA4900D4367
:109B5200FFE0FBA3E0FAA3E022A3F0A37440F0A38A
:109B6200228F828E83E4F022900D4DE004F022EFEA
:109B720025E025E02424F582E43411F5832225E052
:109B820025E02421F582E43411F58322EBF0A3EAE7
:109B9200F0A3E9F022F09011BEE0FEA3E0AA06F9DC
:109BA2007B012212546FAEF0C39401EE6480948064
:109BB20022E0FEA3E0FFF5828E837401F022F074AE
:109BC2000B2FFFE43EFE8F82F583221252E75401EF
:099BD200C4228F828E83740222EA
:10AB9C00129B119012FDE0901102129B2A129B360F
:04ABAC007480F0229F
:07AC2000129B367401F022C3
:10A7300030170A129B117FD07E00120006E4FF90B2
:10A7400011A1E0FEEFC39E5014129B71E0FEEF12C8
:10A750009B80129B53F9EE1253470F80E2E4901155
:0CA76000A1F0901100129BB300129B634B
:01A76C0022CA
:0BABF5009011BA129BB300129B632268
:10A90D009011A1E0FF129B80129B8E129B71EDF0B6
:10A91D009011A1E0C394135004E004F0229011A112
:0DA92D007413F07BFF7AA679B0129CBC2257
:10AA740030070C9013187401129B977DCC800CE462
:0FAA8400901318129B9790131CE0FD12A90D223E
:06AC2D00901318E0FF2265
:10ABB000301303C22E2220010AC22E9012FEE09012
:04ABC0001104F0226A
:10AB4400201A0312A7309011B2129B39E0FD30E7AE
:06AB54000312AB9CAF05EB
:01AB5A0022D8
:069A0900900D73129B8E0C
:109A0F0078777C0D7D017BFF7AA679D07E007F2051
:109A1F001252A812AB44900D76EFF030E51CE49093
:109A2F00128CF0A3F0900FFFF0A3F0900D76E030C2
:109A3F00E104D22D807DC22D8079901000E004F0DA
:109A4F007006900FFFE004F0901318E0702B901247
:109A5F00F8E025E02477F582E4340DF583E0FEA3EA
:109A6F00E024FFFFEE34FFFE900FFFE0B5060AA3E0
:109A7F00E0B50705E4FF129FBA90128DE004F07075
:109A8F000690128CE004F0900D76E030E104D22BBA
:109A9F008002C22B90128BE024FFFF90128AE034D9
:109AAF00FFFEC390128DE09F90128CE09E4004E465
:109ABF00F0A3F0201318202E15901104E0D364802A
:109ACF0094805004D22E8006901104E014F090136D
:109ADF0018E0900D73129B52F9EF125347900D76C9
:029AEF00E0FF96
:019AF1002252
:06886600900D43129B8EF1
:10886C00900D47E0FFC454F0FEED549F4E90E00F86
