:03000000020100FA
:1001000000000075C00075A80075E800904030E060
:10011000B4084B90000078007900E4F0A308B80020
:10012000FA09B919F6F07801760008B880FA780073
:1001300075C10075818002B3B100000000DFFA1EB6
:10014000BEFFF622D2C09004E8000000D582FAD5A6
:1001500083F7C2C0223144DFFC1EBEFFF82290E0CC
:100160000F74F2F090E0107402F0A37401F0A37425
:10017000A3F0A374F8F0E4A3F0A37401F0900000DE
:10018000780079007455F0E0B4553F74AAF0E0B4FB
:10019000AA38A308B800ED09B920E990E020E4F0FE
:1001A000A3F0A37400F0A37403F0A374B3F0A374DA
:1001B00002F090E0307454F09040C174FEF090E092
:1001C000037401F0007400F0802D90E020E4F0A3AF
:1001D000F0A37401F0A37403F0A374B3F0A374024A
:1001E000F090E0307455F09040C174FEF090E00360
:0E01F0007401F0007400F0901901780079009D
:0F01FE00E4F0A308B800FA09B920F6F0020113E3
:10B42A0000006D848AD09E58AC4CB6C2BEE690002D
:0EB459009010EFE0FEA3E0F5828E83E0FF226C
:10B2290012B459D394504007759B008F9A80091224
:10B23900B4597401F59B8F9AD29AC29BC29CC29849
:03B24900C2992285
:050006008E9B8F9A2281
:08B47B00C23812AB7802B229BD
:10AB780078807C0C7D017BFF7AB4792A7E007F1077
:10AB8800125861C2EDD2EAD2EED2EBD2EFD2ECE4A7
:10AB9800F58BF58A75ABB675AAC2D28BD288E4F567
:10ABA80093F592F5B3F5B2C28CC289C28ED28FF5F5
:10ABB800BBF5BAD28DC28AF5C8F5B8D2A8D2A9C257
:10ABC800AAC2ABC2ACC2ADC2E8C2E9C2AED2AFD271
:01ABD800C1BB
:01ABD9002259
:0300030002B3DC69
:10B3DC00C0E0C083C082901335E4F0D22FD082D06D
:04B3EC0083D0E032F8
:03000B0002B36ECF
:10B36E00C0E0C083C082C288901335E004F0D2885A
:07B37E00D082D083D0E03241
:03001300020022C6
:0100220032AB
:03001B0002002AB6
:01002A0032A3
:0300230002B4998B
:06B49900309802C2983257
:03002B000200329E
:01003200329B
:030033000200398F
:010039003294
:03003B0002003A86
:01003A003293
:0300430002004177
:01004100328C
:10B096005B253032645D4D617843656C6C44617448
:10B0A60061203D2025640045534420434845434BD9
:10B0B600203F284F290045534420434845434B2011
:05B0C6003F285829009D
:04002E00410000008D
:10490600900C8BE0FB75F027A424A5F582E5F03426
:1049160003F583E0FF3395E0FE7C007D0F125934EA
:1049260075F027EBA424A4F582E5F03403F583E0C3
:10493600FD3395E0FCEF2DFFEE3CFEEF25E0FFEEAC
:1049460033FE901165E0FCA3E02FF582EC3EF58383
:10495600E022900C8BE0FF75F027A4249DF582E5FC
:10496600F03403F583E0FE75F027EFA4249FF5826B
:10497600E5F03403F583E0C39EFF900C93F0900CB2
:104986008BE0FE75F027A4249EF582E5F03403F54E
:1049960083E0FD75F027EEA424A0F582E5F034034C
:1049A600F583E0C39D900C94F07D0612B39B1D9099
:1049B6000C94E0FF12B385900C8BE0FF75F027A4F2
:1049C60024A2F582E5F03403F583E0FE900C93F023
:1049D600FDEF75F027A424A3F582E5F03403F583F3
:1049E60022900C99EEF0A3EFF0900C8BE0FF75F09F
:1049F60027A424A2F582E5F03403F58322900C8BDC
:104A0600E0FF75F027A4249DF582E5F03403F583D5
:104A1600E0FEEF75F027A4249FF582E5F03403F558
:104A26008322900C8BE0FF75F027A4249EF582E587
:104A3600F03403F583E0FEEF75F027A424A0F58299
:104A4600E5F03403F58322F0900C8BE0FF75F02738
:104A5600A4249EF582E5F03403F58322900C8BE0C6
:104A6600FF75F027A4249DF582E5F03403F5832233
:104A7600900C8BE0FF75F027A424A1F582E5F034B5
:104A860003F58322FB75F027A424A5F582E5F0340F
:104A960003F583E0FF3395E07D0FFE7C0002593479
:104AA600901165E0FEA3E0FF2400F582EE3403F5E5
:104AB60083E0FCA3E0FDEF24F4F582EE3402F583F7
:104AC600E0FEA3E0FFD322EFF0900C8BE0FF75F041
:104AD60027A424A4F582E5F03403F58322EFF090B1
:104AE6000C8BE0FF75F027A424A5F582E5F03403CE
:104AF600F58322F583C3E0FFEE6480F8EF648098C7
:104B060022900D22E0900D2125E0FFE033FE229059
:104B16000C95E0FEA3E0FF7D037C00125946D3EF1F
:104B260022E4900C8DF012AFF0EF24E8FFEE340390
:104B3600900C9FF0A3EFF0901165E0FEA3E02290A9
:104B46000C97EEF0A3EFF0C3900C96E09F900C95B7
:104B5600E09E22900383EEF0A3EFF0900383E0C380
:104B660013FEA3E013FF22740390039CF09011A898
:104B7600E0FEA3E0AA06F97B012290039DE0FF90E8
:104B8600039FE0C39F04900C93F090039EE0FF9078
:104B960003A0E0C39F227854E6FF90039DE0FD3317
:104BA60095E0D3FCED9F7480F86C9822E5822FF592
:104BB60082E5833EF583E0FF3395E0FE900C89E0C5
:104BC6002290039CE0900C85FFE0FBA3E0FAA3E0B3
:104BD600F9EF22900C8CE0FF900C8BE022F0900C09
:104BE60089E004F022FEA3D3E09BEA6480F8EE6439
:104BF600809822FAA3E0FB900C9AE0900C9925E0AD
:104C0600FFE033FE7C007D03125946C3EB9FEA9E0C
:104C160022E4900855F0900C9F747FF0A374FFF087
:104C2600227854E0FFE6900C8B22FDE4900D2DF0E7
:104C3600900391E0900D2EFFE4F0A3EFF022F583B0
:104C4600E0FDEEC36480F8ED64809822E0FD3395C4
:104C5600E0FCD3ED9FEE6480F8EC6480982275F05A
:104C660002025C70E0FE75F027EF227B0104900DD6
:104C76002CF0A3740CF0A37491F022900383EEF051
:104C8600A3EFF022EB75F027A424A2F582E5F03419
:104C9600032290038304F0A3742CF09000BDE4F08B
:104CA600A322AA06F97401F0A3EAF0A3E9F022E030
:104CB600FEEF75F006A42404F582E4340022900C7D
:104CC6008CE07B017A0C798D900C8B22EF75F006C7
:104CD600A42405F582E4340022E0C39EC3648094D4
:104CE60082227856E0FFE6900C8B22EE75F00FA438
:104CF600FFE0FD7A002FFFEA35F0FEA3E0C39DC377
:104D0600137C002FFFEC3E22EF94C4EE648094895E
:104D160022900C8CE0FF900C89E02275F006A4240A
:104D260006F582E4340022E5822FF582E5833EF51E
:104D360083E0FB3395E0FAEC75F00FA42BFFE5F06A
:104D46003A22E4900392F0A3F0900856F0A3F09074
:104D56000398F0A3F0900388F0A3F0229000BCE043
:104D660004F0E0D3940222900C8BE004F0227D0143
:104D76007B017E007F09025861FEEF25E0FFEE33DE
:104D8600FE901165E0FAA3E02FF582EA3EF583E096
:104D96002275F006A42408F582E43400F58322E0A7
:104DA60014FE75F027EF2294E8EE6480948322A324
:104DB600F0A37401F0A37403F0A37421F022ED753F
:104DC600F002025C70900C96E0942C900C95E094A6
:104DD6000122E0FFC39EC364809480227857E6FFD9
:104DE60090039FE0FD3395E022FB9FEE6480F8740C
:104DF60080982275F006A42407F582E4340022D3B5
:104E0600EA6480948122900D2EE075F006A422902B
:104E160000BDEEF0A3EFF022900C93E0FFD3648088
:104E2600948122900394E004F0E0C3940522900854
:104E360055E004F0E0C3940A22900387F0900396AD
:104E46007404F090084FE4F0A3227B017A037921E1
:104E56002275F046A424F3F582E5F03400F583E0EC
:104E66002275F006A424C1F582E43400F583EFF040
:104E760022EFF0FF75F027EE22900C8CE0D3940021
:104E860022900C95E0FEA3E022F583EEF0900C8BC9
:104E9600E0FF22E004900C89F022EF25E0FFEE33DC
:104EA600F0A3EFF02275F006A424ABF582E4340CEF
:104EB600F583E02275F006A424ACF582E4340CF503
:104EC60083E022E0FFA3E0C39FC313FDEF2DFFE4C1
:104ED60033227857E0FFE6900C8B22900384E0247F
:104EE600F6F0900383E034FFF0223395E0FEC3ED45
:104EF6009FFFEC9E2275F00BA42421F582E4340377
:104F0600F5832275F00BA42422F582E43403F5839D
:104F16002275F00BA42424F582E43403F58322756C
:104F2600F00BA42428F582E43403F5832275F006F9
:104F3600A424C0F582E43400F58322D3900C96E0D5
:104F46009470900C95E0941722900C93E0FF648087
:104F5600948522900393E02FF0900392E03EF02296
:104F6600900CA4E0900C8CF0900CA5E022E0FE9052
:104F76000C89E022900C95E0FCA3E0FDD322785644
:104F8600E62401FFE433FE22F583E0FEA3E022C31C
:104F9600EF9EF404FF22C225900C8DE022A3E024AC
:104FA6000AF0900383E03400F02224C4F582E4344E
:104FB60000F583EFF02224C5F582E43400F583EF93
:104FC600F022A3F0900C887401F0227401F0A3740F
:104FD60090F022900C8DE0D39408222400F582EE06
:104FE600340322FFA3E0900D1FCFF0A3EFF022FCC5
:104FF600A3E0FD900D1F22C3900384E09F900383DE
:10500600E09E229000B9F0A3F0900387F022FFE023
:10501600FCA3E0FDC322D3900C93E0648022FAA3A4
:10502600E0FB75F02722ECF0900C8BE0FE22E0C34B
:105036009D900C94F022900C8FE02477FFE43401CD
:10504600227D017B017E00025861FFEEF0A3EFF0A6
:1050560022FDE0FAA3E0FB229FEE6480F8E0648084
:10506600982224C2F582E43400F5832224C3F58213
:10507600E43400F58322D3942CEE94012290039B12
:105086007401F022E090037FF0900C8BE022C3EFD6
:105096009EC3648022E0FFC39ED36480948522E091
:0950A600FEA3E0F5828E83E022F6
:10B061007E027F307D007B017A0079F1125C7C7E6B
:10B07100007F587D00124E50125C7CE4FF75F04653
:10B08100EFA424F1F582E5F03400F58374FFF00FAD
:04B09100EFB408E927
:01B095002298
:10A10E00C218C216E4125009900396F0900002F0A5
:10A11E00A3F0900391F090038304F0A3742CF0123B
:10A12E004D489000BFF090038AF0A3F09000BDF070
:10A13E00A37496F0E490039C124B3C900C80124C4E
:10A14E00A87854E6900C89F07857E6900C8BF0784E
:10A15E0056E6900C8AF07853E6900C8CF0A37401BE
:10A16E00F0A37403F0A3749DF078A87C0C7A0C799C
:10A17E00807F1012504712ADE2301A43900C9012AD
:10A18E004DB89012EFE0900C93F09012E1E0900C2D
:10A19E0094F09012FAE0900C95F0901302E0900C6F
:10A1AE0096F09012F3E0FFA3E0900C97CFF0A3EFA0
:10A1BE00F078A87C0C7A0C7990124D7412AA2C129D
:10A1CE004B3D900C99124CA8A37401F0A37400F0AF
:10A1DE0074C0124DB578A87C0C7A0C7999124D7416
:10A1EE0012AFB4900CA27401F0A37400F074F112CB
:10A1FE004DB578A87C0C7A0C79A27F0612504712C6
:05A20E00B24C02B0613A
:05000E00A2089223226C
:03003600A22322E0
:0BA8E800E0900C94F0FB90039CE0FF5C
:02A8F300AA05B4
:10A8F500E4900392F0A3F07853E6FD7C00EF640149
:10A90500704390039BE06026124E054021EA648067
:10A91500948E501AEBFF124EF0FEEFC4F8540FC898
:10A9250068FFEEC454F048900392F0A3EFF0124E86
:10A93500055061EB705E900393E02464F090039200
:10A94500E03400F0229012F0E06401701D124E0513
:10A955005005EB7002801B124E054038EA64809466
:10A965008E5031EBFF3395E08023124E05500CEBF2
:10A975007009900392F0A37432F022124E05401430
:10A98500EA6480948E500DAF03EF124EF0FE9003F3
:04A9950092124EA02C
:01A99900229B
:04001E00124F592202
:04002600124F5922FA
:10B30A00EF3395E0FE7853E6C39FFFE49E7D0A1271
:0BB31A004AA0900392EEF0A3EFF02297
:07B48B00900388124EA0227D
:10B385007E00EFA805088005C333CE33CED8F990EB
:06B3950008561250502280
:10B39B007E00EFA805088005C333CE33CED8F990D5
:06B3AB000398125050222D
:10AFF000900392E0FEA3E0FF900384E02FFF900314
:10B0000083E03EFE900857E02FFF900856E03EFE9A
:10B01000900399E02FFF900398E03EFE900389E0B3
:09B020002FFF900388E03EFE22A0
:10A99A00E4FFFEEE124E57D3648094804002801288
:10A9AA0075F046EEA4240AF582E5F03401F583E059
:10A9BA006046EF124EFBEEF075F046A424F4F582E1
:10A9CA00E5F03400F583E0FCA3E0FDEF124F09EC5B
:10A9DA00F0A3EDF075F046EEA424F6F582E5F03426
:10A9EA0000F583E0FCA3E0FDEF124F17ECF0A3EDB6
:10A9FA00F0EF124F25E4F00F0EEE64087095EF6049
:10AA0A0009124E50124C3012910012AE6F90038709
:10AA1A00E0600912003E900387E014F0E49012F817
:01AA2A00F03B
:01AA2B002208
:0C9DB000900D2CEDF0900D29EB124CAD45
:109DBC00125887900D2EF0E4A3F0A3F0900D2DF027
:109DCC00900D2C124A79E0FE900D2DE0FDC39E50B3
:109DDC00551249D7124DC4124A99900D2CE01249D4
:109DEC00F4C083C082900D2DE0D082D083124C64DD
:109DFC00124935FCA3E0900D2F125057D39DEC6403
:109E0C0080F8EA6480984006AE02AF0380071249DE
:109E1C0048FEA3E0FF900D2FEEF0A3EFF0900D2D78
:109E2C00E004F0029DCC12AFF0900D2CE0FD124935
:109E3C00F4E07034ED1249D8E0702D90039CE0B43E
:109E4C00012690039BE06011C3EF94DCEE648094D8
:109E5C008550157E057FDC800FC3EF9458EE64802F
:109E6C00948250047E027F58D3900D30E0900D2FD9
:109E7C0012505E405F900D2C124A65E0FE900D2E44
:109E8C00E0FD75F006A4125068EEF0124A18E0FFDF
:109E9C00ED75F006A4124FB0900D2C124A51E0FE55
:109EAC00ED75F006A4125072EEF0124A3DE0FFED93
:109EBC0075F006A4124FBC900D2C1249F2E0FEED89
:109ECC00124F33EEF01249D7E0FFED124E67900DB2
:109EDC002EE004F0900D2EE0900D29124BCE02597D
:019EEC000075
:0C9C5D00900D2CEDF0900D29EB124CAD99
:109C6900125887900D2EF0E4900D2DF0900D2C12C6
:109C79004A79E0FE900D2DE0FDC39E4003029DA2AE
:109C89001249D7124DC4124A99900D2CE01249F489
:109C9900C083C082900D2DE0D082D083124C641213
:109CA9004935FEA3E0FDAC0612AFF0124C58500343
:109CB900029D99900D2CE01249F4C083C082900D49
:109CC9002DE0D082D083124C64E0FF7854E6B507CA
:109CD900028003EF14FF124E0C125068EFF0900D42
:109CE9002CE01249F4C083C082900D2DE0D082D0BF
:109CF90083124C64E0FF7857E6B507028003EF044E
:109D0900FF124E0C124FB0900D2CE01249D8C083AF
:109D1900C082900D2DE0D082D083124C64E0FF7890
:109D290056E6B507028003EF14FF124E0C1250726B
:109D3900EFF0900D2CE01249D8C083C082900D2D10
:109D4900E0D082D083124C64E0FF7853E6B5070275
:109D59008003EF04FF124E0C124FBC900D2C1249D8
:109D6900F2C083C082900D2DE0FED082D083124CC8
:109D790064E0FD900D2EE0FC124F33EDF01249D74F
:109D8900EE124DC5E0FFEC124E67900D2EE004F087
:109D9900900D2DE004F0029C75900D2EE0FF900DC2
:079DA90029124BCF02590003
:10A5BD00E4F50AF50B7856E6FD7853E6FFEDD39FEB
:10A5CD00503F7854E6FC7857E6FFECD39F502FEDC3
:10A5DD0075F00FA4FFEC7A002FFFEA35F0124D7FD6
:10A5ED00F508A3E0F509D3950BE50A6480F8E508B5
:10A5FD00648098400685080A85090B0C80C80D807B
:10A60D00B8D3E50B945AE50A64809480406D7BFFC6
:10A61D007AB07996900001E0900D81124C3DA3E542
:10A62D000AF0A3E50BF012A690900001E025E024BE
:10A63D0027F582E43413F583E50AF0A3E50BF090DA
:10A64D000001E004F0E0C394044035E4F090132ED3
:10A65D00E090132D124B0ED3901328E09013271278
:10A66D00505E400B7BFF7AB079AD12A69080117BC6
:10A67D00FF7AB079BC12A6907F0122E4900001F020
:02A68D007F004C
:01A68F0022A8
:07020D00900C85EB124CADD3
:10021400E4A3F0900C9FF0A3F0D205C206900CA2C8
:10022400F0A3F0C202900C8DF0900C90F0900C9220
:10023400F0D204C220FE7F30FD7B017A0079C01227
:100244005C7C90039CE0FF12B4A590039CE06003E7
:10025400020DC1202A030203E1D22030360B7B01B8
:100264007A0C79A47F96FE80127B017A0C79A430F3
:100274003405E4FFFE80047F647E00127430900035
:1002840000EFF0900000E0FF6402706B124F66FD17
:10029400A3E0900C95CDF0ED124FC8E4A3F0900CC0
:1002A4008C124F73FDC39E4003020359E0FE124AB1
:1002B4007B7401F0EE124EABFE75F027ED1249F798
:1002C400EEF0FEED124A19EEF0FE75F027ED124A3B
:1002D4006AEEF0ED124EBAFE75F027ED1249DBEE30
:1002E400F0FEED124A3EEEF0FE75F027ED124A568E
:1002F400EE124BE30202A2EF64037061124F66FF39
:10030400A3E0900C95CFF0EF124FC8E4A3F0124D88
:1003140017FEC39F503F124A797401F0EF124EAB9F
:10032400FF75F027EE1249F7124E77124A1C124E4F
:1003340077124A6AEFF0EE124EBAFF75F027EE120A
:1003440049DB124E77124A41124E77124A56EF1287
:100354004BE3020312E49000BFF00203E1900000BB
:10036400E0FFB40408E4900C8CF00203E1EF6401B4
:10037400702B9000BFE004F0E0C39402401190039E
:1003840083124FD19000BD124FD174021221C7E4E1
:10039400900C8CF0900396E07043021A8C9000004D
:1003A400E06405700C041221C7D20812B2CD021AFF
:1003B4008C900000E0B4060B303422124B6D7DCCDF
:1003C4000204B7900000E07014900C8CF0C2041288
:1003D4004BC7125900900396E07002FF22200403D9
:1003E400020492124FCA9000BDE0FCA3E0FDFFAEF0
:1003F40004900D307401F0A3740CF0A3749BF0A36B
:100404007401F0A3740CF0A3749DF0E4A3F07B01D9
:100414007A0C79951237EC900C8CEFF030362390EF
:100424000C95124B6412507C400280047E017F2C98
:10043400124B5912507C400302048F7E017F2C0220
:10044400048F303423124B15942CEE940140028017
:10045400047E017F2C124B59D39496EE94004002F3
:1004640080047E007F968023124B159490EE9401B5
:10047400400280047E017F90124C81124B1D9496A1
:10048400EE9400400280047E007F96124E15202ECA
:100494000330302530342220201FD3900C96E09472
:1004A400E8900C95E0940340051220AF800B124BAA
:1004B4006D7DFF12B15C7F0022124AA69DEC124BA7
:1004C400F140028004AE04AF05900C97EEF0A3EF68
:1004D400F0124E7F5003020D5E900385E0FEA3E010
:1004E400FF4E704E124F7A94F4EC9401500AEF943C
:1004F400F4EE648094814035900385E0FAA3E0FB38
:10050400EAA2E713FEEB13FFC3ED9FEC9E400DEB55
:1005140025E0FFEA33FED3124B4E40119000BCE0BD
:1005240004F0E0C39402400A1220AF8005E4900076
:10053400BCF0124E87FF900385EEF0A3EFF0D39446
:10054400D0EE94074026124D62402690039DE0FFB2
:1005540090039FE09F124B8C900C94F03034121255
:1005640020DF124F41400A1250838005E49000BC02
:10057400F02034030207BD9000B8E0FF900C8CE03B
:10058400D39F50030207BDE4900C89F09000B81289
:100594004D1AC39F40030207BDE4A3F0900C8CE006
:1005A400FF900C8AE0FEC39F40030207B7900C89BA
:1005B400E0FF124D97E0FCA3E0D39426EC64809412
:1005C4008250030207AE75F027EE124A6A124CB548
:1005D400F583D3124AFC40030207AE900C8AE0FF75
:1005E400124A19124F73FD124D21F583E0FCC31218
:1005F4004C5B50030207AE75F027EF124A56E0FF3A
:10060400ED124CD3F583E0FED3EF124BF14003021D
:1006140007AE900C8AE0124A3E124D1AFE124DF9B2
:10062400F583E0FDEF124C4950030207AEEE124C85
:10063400B8F583E070030207AE900C89E0FF124D19
:1006440021F583E0640E70030207AE124CD2F583E9
:10065400E070030207AEED641370030207AEE4908A
:100664000C8BF0124BD9FEC39F40030207AE900CD3
:100674008AE06E70030207A8A3124A65124F731230
:100684004CB8124C44400A124A18E0D3124C4A4067
:1006940020900C89E0124D21124AF950030207A858
:1006A400900C8BE0124A19E0D3124AFF4003020770
:1006B400A8900C8BE0FB1249D8124A99124C8A126A
:1006C4004933FCA3E0FD900C89E0FB124D97E0A2B6
:1006D400E7124B66124C5840030207A8124A4EE038
:1006E400FEEB124CD3124C44400A124A3DE0D312A2
:1006F4004C4A4020900C89E0124DF9124AF95003FB
:100704000207A8900C8BE0124A3EE0D3124AFF4045
:10071400030207A89000BFE06053124A62E0FE9013
:10072400037DE06E7027124A18E0FF90037FE06FAC
:10073400701B124A4EE0FE90037EE0B5060F124A8B
:100744003DE0FF900380E0B5070302078F124A6281
:10075400E090037DF0124A1812508A124A53E09036
:10076400037EF0124A3DE0900380F08024124A6236
:10077400E090037DF0124A1812508A124A53E09016
:10078400037EF0124A3DE0900380F09000BFE00445
:10079400F09000BFE0C39402400A90039C7402F0FE
:1007A400FF12B4A5124D6D020667900C8AE004F0A6
:1007B4000205A0124BE4020590900C8CE09000B866
:1007C400F0E4900C8BF0124BD9FBC39F5052124AA9
:1007D40065124CB5124E8F124A19E0FEEF124D21EC
:1007E400F583EE124A4DE0FE124CD2124E8F124A9D
:1007F4003EE0FEEF124DF9F583EEF0900C8BE0FA3B
:100804001249D8124A99EA124C8B124933FEA3E0DA
:10081400FFEB124D97EEF0A3EFF0124D6D0207CAF5
:100824009003C2E0FF78546660067857E66F7069FB
:10083400124E87FFC39490EE9401505DEF942CEE1A
:1008440094014055E4900C8BF0124BD9FEC39F5099
:100854004875F027EE124A1CE0FF9003C2E06F7067
:1008640032124A4EE0FE9003C3124C464025124A0F
:100874003DE0FFD3124C4A501A1250949481401315
:10088400900C8BE0124A7BE0D3940140061220DFE7
:100894007F0022124D6D02084DE4900C8BF0124B38
:1008A400D9C39F4003020D5EEFC3943140037FFE22
:1008B40022124A03E0C39E900C93124A4DE0FD12AB
:1008C4004A3DE0FC12503530360302094EC3124F44
:1008D4004F5009A3E0C364809485406EC3EF6480E5
:1008E4009485402B7856E66D60107853E66C600A68
:1008F400900C94E06480948540507404124B6F7D96
:10090400EE12B15C301604D221803FC221803B90AC
:100914000C94E0C3648094854030124A62E07854B9
:10092400666011124A18E07857666008C312501DB9
:100934009485401690039C7404124B727DEE12B1A0
:100944005C301604D2218002C221900C8BE0FF702F
:100954006C75F027EF124A6AE0FF7854E6FE6F7078
:100964005CEE124F87900C8BE0FD124A19E0FB33CA
:1009740095E0FAD3EB9FEE6480F8EA648098503DEA
:0F098400124F8475F027ED124A56124C52502E26
:10099300D207900C897401F0124D17FEC39F5018B3
:1009A30075F027EE124A6AE0FF7854E6B50704C2F1
:0E09B300078005124BE480E0200703020D5878
:1009C10030360F900C8BE01249D8E0FF12B30A02C7
:1009D1000AA2203403020AA2900C9BE0FEA3E0FFCE
:1009E10012B48B1249EFE01249D6E0FBE4FF12A8E2
:1009F100F3300477900C8CE0D39401406E12501DBB
:100A010094814008A3E064809481505F900C8BE056
:100A1100FB1249D8E0FA124A9A75F027EB1249F70E
:100A2100E0FDF5823395E0F583EF2582FFEE358316
:100A3100FEEF25E0FFEE33FE901165E0F8A3E02F15
:100A4100F582E83E124F8EFF900383E0F8A3E0F5B4
:100A510082C3EF9582EE9850129003C2E06D60035D
:100A6100020D58A3E06A6003020D58124E1E4004A5
:100A71007D058008D3124F4F50057D0612B39B9020
:100A81000C94124E2140047D058013900C94E0FFDC
:100A9100D36480948540047D068003E4FDFF12B396
:100AA10085900C8BE0124A3EE0785666701C124924
:100AB10006FEA3E0900C97125014EF9DEE9C500A95
:100AC100ECC313FEED13FF12001E124A76E064011F
:100AD1006003020B8E75F027EF124A0B124CDF50A8
:100AE10041900C8BE01249F4124C27B50708E01233
:100AF1004A67EFF0800B1249F2124DA5124A6AEED5
:100B0100F0900C8BE01249F47857124C29B5070884
:100B1100E0124A19EFF0800A1249F2E004124A1772
:100B2100EEF0124A28124CDF5045900C8BE012492E
:100B3100D8124CE8B50708E0124A53EFF0800DE0F7
:100B4100FF1249D8124DA5124A56EEF0900C8BE0D7
:100B51001249D87853124CEAB50708E0124A3EEF21
:100B6100F0800CE0FF1249D8E004124A3CEEF0128A
:100B71004CC4B40106E0FDD2088004E0FDC20812B5
:100B81009DB0124FD95003020D587FFE22124A76B2
:060B9100E07003020D58A4
:100B9700D20775F027EF124A0B12509B501D1250C7
:100BA7009494844016124A2812509B500E12509467
:100BB70094844007124DCB5002D206124906FAA37D
:100BC700E0FB900C8BE0F91249D8124A9975F0278F
:100BD700E91249F7E0F9124936124BEB900C8BE01A
:100BE70040091249D8124A99E9800B124A8A75F0CE
:100BF70027EB124AD7E0124936FEA3E0FF1249E776
:100C0700124C6A124AD7124DD85005124F95800DD3
:100C17001249EF124C6A124AD7E0C39EFF900D1F8C
:100C2700EF124E921249D8124C6A124AED124DD861
:100C37005005124F958012900C8BE0FF1249D81285
:100C47004C6A124AEDE0C39EFF900D20EFF0900D25
:100C57001FE0D394054003020D50A3E09405400321
:100C6700020D50124ACF124C6A1249F7124AFB5032
:100C7700028002AF06900D21124ACD124C6A12492A
:100C8700F7E0FFD3124AFE40028002AF06900D2222
:100C9700124AE3E0FE1249D7124AFB50028002AF24
:100CA70006900D23124AE3E0FE1249D7E0FFD31264
:100CB7004AFE40028002AF06900D24EFF0900D200F
:100CC700E0FF900D1FE0C39F5029900D23124E990E
:100CD700900D24124D1AFEC39F5048900D21124CBF
:100CE700F1124940124BF95005C207020D2A124B67
:100CF700E480DD900D21124E99900D22124D1AFBC2
:100D0700C39F501F900D23124EC9124A9EEB2FFF0F
:100D1700EC3E124940124BF95004C2078005124BB2
:100D2700E480D630071B124CC4B40106E0FDD2089C
:100D37008004E0FDC208129DB0124FD940137FFE18
:100D4700221220C7400B7FFE221220C740037FFEDE
:010D57002279
:100D5800124D6D0208A2301E429000F0E0D39400BC
:100D68004033900C8DE0FF6008900C8CE0D39F40DE
:100D78001B90039C7401F090039BF0FF12B4A57FB5
:100D88000212A82F12AE2AD20812B2CDE49000F0B7
:100D9800F0C21E80069000F0E004F0301A0A900CB1
:100DA8009F7401F0A374F4F0202503021B2C124F4A
:100DB8009C6003021B2C7F012290039CE06401606D
:100DC800030211AD12B49FEF700890039CF09003DA
:100DD8009BF012206D302E05E4900394F0124E7FA4
:100DE800500302114D30180302114D90039BE0602F
:100DF8002C900C95E0124B66D394B8EE940B4002FD
:100E080080047E0B7FB8124C817D0A124B1F942CF4
:100E1800EE9401400280297E017F2C8023124B151D
:100E28009490EE9401400280047E017F90124C81E0
:100E3800124B1D94FAEE9400400280047E007FFA63
:100E4800124E15900C8CE064017075124B80049062
:100E58000C94F0A3124AC69470EE9417400A124DEF
:100E680062400A1250838005E49000BCF012501CC6
:100E78009483504AA3E0648094835042EF942CEE0C
:100E880094014038900C96E094B0900C95E094044E
:100E9800502A124B9C4029124DE2C3124BA95020F4
:100EA800124E294020D21EE490039CF0900394F047
:100EB800C20812B2CDE490039BF080098002800042
:100EC800E4900394F0E4900C8BF0124BD9C39F404C
:100ED8000302114DEF946440037FFE221249581219
:100EE800A8E8900C8CE0FF75F027A42479F582E53A
:100EF800F03403F583E0FD3395E0FC7853E6FBC35B
:100F0800ED9B7480F86C98405BEF14FF900C8BE0BD
:100F1800F96F6050125025A4247CF582E5F0340363
:100F2800124A9775F027EBA4247BF582E5F0340389
:100F3800124933125024E91249DB124A9975F027F5
:100F4800E9124C8E124933FEA3C3124BEE50030232
:100F58001147124F84900C8BE01249D8124C525012
:100F680003021147124A62E0FE7854E6FD6E600300
:100F780002106775F027EF124A56E078566660034C
:100F8800021067900C8BE0124A7BE0D39401500367
:100F980002102475F027EF1249F7E06D6003021084
:100FA80067900C89F0124A76E014FE900C89E0C331
:100FB8009E505D900C8BE0FE124AD4C083C0829094
:100FC8000C89E0FDD082D083124C64E0FC75F027D8
:100FD800EE1249F7124DC412502C124AEAC083C0CF
:100FE80082900C89E0FDD082D083124C64E0FC75BD
:100FF800F027EE1249DB124DC412502C1249D8E0EA
:1010080014FD75F027EE124A56ED124BE3020FADB0
:1010180075F027EF124A7EE014F08043900C8BE0C5
:10102800124A3E124E99900C89E0FFD3785396509D
:101038002E901165E0FCA3E0F5828C8375F01EEF1D
:10104800125C70E0FEA3E0D39490EE64809481403B
:10105800097D097F0A12B39B8005124BE480C79073
:101068000C8BE0124A67E0FF7857E6B50713900348
:101078009BE060067FB87E0B80047F907E011200A3
:1010880026124A76E06401600302113475F027EFF6
:10109800124A0B124CDF503F900C8BE01249F412AD
:1010A8004C27B50708E0124A67EFF0800B1249F2A7
:1010B800124DA5124A6AEEF0900C8BE01249F41218
:1010C8004ED8B50708E0124A19EFF0800A1249F223
:1010D800E004124A17EEF0124A28124CDF504590ED
:1010E8000C8BE01249D8124CE8B50708E0124A53B5
:1010F800EFF0800DE0FF1249D8124DA5124A56EEC6
:10110800F0900C8BE01249D87853124EDAB50708E4
:10111800E0124A3EEFF0800CE0FF1249D8E00412DA
:101128004A3CEEF01220F740167FFE22900C8BE02E
:10113800FD124A7BE0600812217740037FFE2212ED
:101148004D6D020ED2301A4C124AA69DEC124BF18C
:1011580040028004AE04AF05124B455034124B27B1
:10116800124ABD124DAD4005124D0E4013124B3DB3
:10117800124FE1124AC4124DAD400F124D0E500AE3
:10118800124E34400F1221B5800AE4900855F080C1
:1011980003124C17202503021B2C124F9C600302DC
:1011A8001B2C7F012290039CE06403600302138FD1
:1011B80012213B302E05E4900394F0124E7F500329
:1011C80002132A30180302132A124B1594E8EE94DE
:1011D80003400280047E037FE8124C81124CA17404
:1011E80096F0900C8CE0602F124B8004900C94F0D9
:1011F800D3124DCB401E124B9C4016124DE2FCC33D
:10120800124BAA500C124E294012E490039CF08015
:1012180007E48004E48001E4900394F0E4900C8BEC
:10122800F0124BD9C39F400302132FEF946440037D
:101238007FFE2212495812A8E8900C8BE0124A67E8
:10124800E0FF7857E6B5071390039BE060067FB888
:101258007E0B80047F907E01120026124A76E0649D
:1012680001600302131175F027EF124A0B124CDFCD
:10127800503F900C8BE01249F4124C27B50708E058
:10128800124A67EFF0800B1249F2124DA5124A6A12
:10129800EEF0900C8BE01249F4124ED8B50708E036
:1012A800124A19EFF0800A1249F2E004124A17EEC6
:1012B800F0124A28124CDF5048900C8BE01249D8A3
:1012C800124CE8B50708E0124A53EFF0800DE0FF32
:1012D8001249D8124DA5124A56EEF0900C8BE01226
:1012E80049D8E0FF7853E6900C8BB50708E0124A1E
:1012F8003EEFF0800CE0FF1249D8E004124A3CEEC1
:10130800F01220F740167FFE22900C8BE0FD124A67
:101318007BE0600812217740037FFE22124D6D02A8
:101328001229E4900394F0301A4C124AA69DEC124C
:101338004BF140028004AE04AF05124B4550341205
:101348004B27124ABD124DAD4005124D0E401312E7
:101358004B3D124FE1124AC4124DAD400F124D0ED3
:10136800500A124E34400F1221B5800AE4900855F5
:10137800F08003124C17202503021B2C124F9C608F
:1013880003021B2C7F012290039CE064046003028B
:10139800194612213BD3940050030218D830180381
:1013A8000218D8302130124E877802CEC313CE13DC
:1013B800D8F9FFD394C8EE9400400280047E007FE1
:1013C800C8124C81124B159496EE94004002803C52
:1013D8007E007F968036900C96E025E0FF900C9575
:1013E800E033FE124B1D94DCEE9405400280047E2F
:1013F800057FDC124C81D39496EE9400400A90034A
:1014080083E0FEA3E0FF80047E007F96124E151253
:101418004F7A94DCEC94054002D221900C8CE06465
:10142800017074124B8004900C94F0D3ED94ACECE2
:10143800940D4016124D62401690039C7401F0FF03
:1014480012B4A5D20812B2CD8000E49000BCF0120C
:10145800501C9483503EA3E0648094835036A3E0EC
:10146800FEA3E0FF942CEE94014026EF9458EE94EE
:1014780002501E124B9C4016124DE2FCC3124BAA9E
:10148800500C124E294015E490039CF0800AE48029
:1014980007E48004E48001E4900394F0E4900C8B6A
:0B14A800F0124BD9C39F40030218D87C
:1014B300EF946440037FFE22124A03E0C39EFF9031
:1014C3000C9312502D124A53E0FD75F027EE124A89
:1014D300411250347D0312B39B0D1249B512A8E893
:1014E300900C8BE0FB1249D8124A99124C8A12498C
:1014F30033124FE9E4A3F0A3F0900C8904F0124AED
:1015030076124F73FDC39E40030215901249D71202
:101513004DC4124A99900C8BE01249F4C083C082E7
:10152300900C89E0D082D083124C64124935FEA31B
:10153300E0FF900D1F124F7DEF9DEE9C4049900CF4
:101543008BE01249D8C083C082900C89E0D082D04E
:1015530083124C64124A99900C8BE01249F4C083B5
:10156300C082900C89E0FDD082D083124C64E0FBF2
:101573003395E0FAEF2BFFEE3A124D7F124FE9ED70
:10158300FFA3E4F0A3EFF0124BE4021501900C8BE0
:10159300E0124A67E0900C89F0124B07900C8BE045
:1015A300FD1249F4124BB2D3124DEF503D124B07CB
:1015B30075F027ED1249DBE5822FF582E5833E12B4
:1015C3004A97EB2FFFEC3E124940FAA3E0FB900D44
:1015D30020E0900D1F124C045010900C8BE0124A27
:1015E30067E004F0124BE402159C900C8BE0124A66
:1015F30019E0900C89F0124B07900C8BE0FD124917
:10160300F4124BB2C3124DEF403D124B0775F02756
:10161300ED1249DBE5822FF582E5833E124A97EB13
:101623002FFFEC3E124940124FF5124B64C3ED9F5E
:10163300EC9E5013900C8BE0124A19E014F0900CBE
:1016430089E014F00215F9900C8BE0124A53E090F4
:101653000C89F0124B07900C8BE0FD1249D8124B0A
:10166300B2FCD3124DF0502D124B0775F027ED123B
:1016730049F7124D2D124940124FF5124B64C3ED39
:101683009FEC9E5010900C8BE0124A53E004F01232
:101693004BE4021656900C8BE0124A3EE0900C8904
:1016A300F0124B07900C8BE0FD1249D8124BB2FCA1
:1016B300C3124DF04030124B0775F027ED1249F776
:1016C300124D2D124940124FF5124B64C3ED9FEC9E
:1016D3009E5013900C8BE0124A3EE014F0900C895C
:1016E300E014F00216A4900D1FE0FEA3E07802CEF2
:1016F300C313CE13D8F9FF120026900C8BE0FD1212
:101703004A7BE0B401117B017A0C798D1221EB50F5
:10171300030218D27FFE22900C8BE0F9124A7BE081
:0517230070030218D262
:10172800D207124906125024E91249DB124A997568
:10173800F027E91249F7E0F9124936124BEB900C01
:101748008BE040091249D8124A99E9800B124A8A5B
:1017580075F027EB124AD7E0124936FEA3E0FF12D4
:1017680049E7124C6A124AD7124DD85005124F95C4
:10177800800D1249EF124C6A124AD7E0C39EFF90BF
:101788000D23EF124E921249D8124C6A124AED12EA
:101798004DD85005124F958012900C8BE0FF1249DE
:1017A800D8124C6A124AEDE0C39EFF900D24EFF068
:1017B800900D23E0D3940540030218CAA3E09405D2
:1017C80040030218CA124ACF124C6A1249F7124A49
:1017D800FB50028002AF06900D25124ACD124C6ACA
:1017E8001249F7E0FFD3124AFE40028002AF06908A
:1017F8000D26124AE3E0FE1249D7124AFB50028036
:1018080002AF06900D27124AE3E0FE1249D7E0FF27
:10181800D3124AFE40028002AF06900D28EFF090E6
:101828000D24E0FF900D23E0C39F5034900D271244
:101838004E99900D28124D1AFEC39F505F900D25AA
:10184800124CF1124940FCA3E0FD900C99124B6434
:10185800C3ED9FEC9E5004C2078041124BE480D236
:10186800900D25124E99900D26124D1AFBC39F50CC
:101878002B900D27124EC9124A9EEB2FFFEC3E12F9
:101888004940FCA3E0FD900C99124B64C3ED9FEC1A
:101898009E5004C2078005124BE480CA30071B1211
:1018A8004CC4B40106E0FDD2088004E0FDC2081271
:1018B8009DB0124FD940137FFE2212219D400B7F0D
:0A18C800FE2212219D40037FFE2244
:1018D200124D6D0214A9301A5A124AA69DEC124BEF
:1018E200F140028004AE04AF05124B455042124B48
:1018F20027124ABD124DAD4005124D0E4013124B38
:101902003D124FE1124AC4124DAD401D124D0E5010
:1019120018124E34401DE490039CF0C20812B2CD5E
:10192200E4900385F0A3F0800AE4900855F0800368
:10193200124C17202503021B2C124F9C6003021B22
:101942002C7F012230040312206DC222124E7F50DE
:1019520003021B01301803021B01D3900C96E09482
:10196200D0900C95E094074017124D624008122166
:101972008AD20812B2CD124F41400A12508380051A
:10198200E49000BCF030164B124E87FF7C007D03C2
:10199200125934EF7802CEC313CE13D8F9FF124F87
:1019A200FD5005124FA38003124EE1900383124AA9
:1019B200C69490EE9401400280047E017F90124B07
:1019C2005912507C400280047E017F2C124E15D2A7
:1019D200248049900C95E0FAA3E0FB7C007D06FF91
:1019E200AE021259341D125946124FFD5005124FC4
:1019F200A38003124EE1900383E0FEA3E0FFC394B1
:101A020090EE9401500280047E017F90124C81C2BC
:101A120024C3EB9478EA94005002D222E4900C8B17
:101A2200F0124BD9C39F4003021B01EFC394314014
:101A3200037FFE22124A03E0C39E900C93F0FC90B7
:101A42000C8BE0FE124A53E0FD75F027EE124A417C
:101A5200125034C3EC6480948E4038E064809493D6
:101A6200503190039AE004F0E09402402B12218A54
:101A7200D20812B2CD90039B7401124CA074FAF0FA
:101A8200900383740BF0A374B8F0124BC712590081
:101A92007F0022E490039AF0300430900C8CE0D363
:101AA2009401402712501D94814008A3E064809461
:101AB2008150181249EFE0FE9003C2E06E703A12B4
:101AC20049D7E0FF9003C3E06F702E124E1E400410
:101AD2007D028003E4FDFF12B39B900C94124E2111
:101AE20040047D028003E4FDFF12B385124CC8E07E
:101AF200FD1221EB40037FFE22124D6D021A2330AC
:101B02001A28124AA69DEC124BF140028004AE0440
:101B1200AF05124B455010E4900C8DF0900C9F04D1
:101B2200F0A374F4F08003124C1C900C8DE0D3945B
:101B3200005003021D7AE4900C89F0A3F0900C8906
:101B4200E0FFC394084003021BEEEF124E57C3643A
:101B52008094835003021BE8900C89A3E0FD124E8F
:101B6200FBEFF075F046EFA424FEF582E5F03400B9
:101B7200124F8E7804CEA2E713CE13D8F8FFED12DF
:101B82004F09EEF0A3EFF0900C89E0FD75F046A44A
:101B92002400F582E5F03401124F8E7804CEA2E7DC
:101BA20013CE13D8F8FF900C8AE0FC124F17EEF018
:101BB200A3EFF075F046EDA424FCF582E5F03400C5
:101BC200124F8EFFEC75F00BA42426F582E4340349
:101BD200F583EEF0A3EFF0EC124F257401F0900CB8
:101BE2008AE004F0D202124BE4021B3F30021A12C6
:101BF20022094002E4F09012E4E0700D124E50907F
:101C02000C8AE0124C30129100900C8DE0FF900390
:101C120083E0FCA3E09000BD12505790039CE0903B
:101C22000D2EF01250AF900C90EFF0E0900397F071
:101C3200601520161090039CE07008124B737DEE25
:101C420012B15CD225D216900D2C740130200812EC
:101C52004C77A37402800A124C7790039CE0900D9B
:101C62002F1221D892039012E4E06003021D2A2071
:101C72000303021D2A90039CE06003021D0C200551
:101C820003021D0C900100E0FEA3E09008531250E5
:101C9200149FFFEC9EFEC3648094805009C3E49FAE
:101CA200FFE49EFE800C900100E0FEA3E0FF124ED6
:101CB200F4FE9000FEE0FCA3E0FD900851E0FAA3E0
:101CC200E0FBC39DFDEA9CFCC3648094805009C381
:101CD200E49DFDE49CFC800C9000FE125015EB9DEF
:101CE200FDEA9CFCED2FFFEC3E4F70089000BBE03C
:101CF20004F08005E49000BBF09000BBE0D3940AAE
:101D020040087F0112A82F12AE2A9000FEE0FFA326
:101D1200E0900851CFF0A3EFF0900100E0FFA3E0C4
:101D2200900853CFF0A3EFF0900C90E0601FD20226
:101D320090039CE07009124E3F7404F0021ED29090
:101D42000396E0C394044003021ED2801D200303C5
:101D5200021ED290039CE07005124E3F8014900345
:101D620096E0C394044003021ED2E4900387F090ED
:101D720003967403F0021ED2900396E07003021ED3
:101D82000F900C8DE0900C90F090039CE064017039
:101D92004790084FE07002A3E0700B124C71A374DD
:101DA200011221F8800E900850E024FFF090084FB5
:101DB200E034FFF090039BE09003836009740BF022
:101DC200A374B8F08003124FD1124CA174FAF0E45C
:101DD200900385F0A3F0802190039CE0700A124CDE
:101DE20071E4A31221F880117401124C74A37402DD
:101DF2001221D8124CA17496F0C225D202900C91F5
:101E0200E06003021ED2900396F0021ED2A216E4F4
:101E120033FF900396E070047E0180027E00EE5F45
:101E2200604712B2EC12A99A9012F8E0900C8DF071
:101E3200C216E4900391F0125009900851F0A3F0F9
:101E4200A3F0A3F09000BBF0900395F0900394F000
:101E520090039CE0707A124C987496124B72901315
:101E620007E0FD12B15C021ED29000BAE004F070ED
:101E7200069000B9E004F0124D48A3F0A3F09000E0
:101E8200BFF090039CE0FF7008124C987496F080AB
:101E92003FEFB40229124CA17478F0C3900C9CE07D
:101EA2009401900C9BE09400500D900395E004F097
:101EB200E09403401B8014E4900395F08012900399
:101EC2009CE0B4040BC3124DCB5005E490039CF08C
:101ED200201A03021FA6302A03021FA6D3900C9CCD
:101EE200E094C8900C9BE094004003124C1C9011AB
:101EF20066E024EEFF901165E03402FAA907900D26
:101F02002C124CAB900C9FE0FFA3E0900D2FCFF072
:101F1200A3EFF07B017A0C798F12964D900C8EEF25
:101F2200F07003021FABE0FF64F06005EF640F7016
:101F320044900C927401F0D202EF64F07033D21824
:101F420090039CE0606312503C124940FEA3E0FF04
:101F5200D3124B4E400AE4900C92F0C202021FAB25
:101F6200900C90E06043900C91E0603D12210F8054
:101F7200F5C2188034900C8EE06401702C90039CA2
:101F8200E0602612503C124940FEA3E0FFD3124B00
:101F92004E5016900C90E06010900C91E0600A1286
:101FA200210F80F5E4900C92F030021912220940C0
:101FB20002E4F0124E50900C90E0FD900C92E01270
:101FC2004C321291009012E4E0606490039BE07541
:101FD200F00AA4FFA3E07C002FFDEC35F0FCE4FF47
:101FE20012B3567DFE7C007F1212B3569011AA12D4
:101FF20050A530E4047D0280027D037C007F131231
:10200200B3569011A61250A5FF30E323124E509002
:102012000C90E0900D2DF0900C92E0900D2EF0902F
:102022000391E0FD900D2FE4F0A3EDF01286E02085
:102032001620301802801B12B06190039CE0FFB49E
:10204200020730220280138009EFB40402800330B9
:102052000608900CA17401F08005E4900CA1F01226
:0A2062004BC7125900900CA1E0FFDB
:10206C0022900C887401F09000BDE0FEA3E0FF907C
:10207C000383E0FCA3E0FD900D307401F0A3740C1D
:10208C00F0A3749BF0A37401F0A3740CF0A3749DE3
:10209C00F0A37401F0FB7A0C79951237EC900C8C50
:1020AC00EFF02290039C7401F0FF12B4A57F021292
:1020BC00A82F12AE2AD20812B2CD227B017A0C794B
:1020CC008D900C8BE0FDC208129C5D900C8DE0D3C2
:1020DC0094082290039C7401F0FF12B4A57F0212A5
:1020EC00A82F12AE2AD20812B2CD227B017A0C791B
:1020FC008D900C8BE0FDC208129DB0900C8DE0D33E
:10210C00940822E4900C90F07B01900D2C04F0A329
:10211C00740CF0A37491F090039CE0900D2FF09050
:10212C000C88E0900D30F07A0C7990127CED2290B6
:10213C0000BDE0FEA3E0FF900383E0FCA3E0FD9074
:10214C000D307401F0A3740CF0A3749BF0A3740114
:10215C00F0A3740CF0A3749DF0A37401F0FB7A0C43
:10216C0079951237EC900C8CEFF0227B017A0C797C
:10217C008DC208129DB0900C8DE0D3940822900370
:10218C009C7401F0FF12B4A57F0212A82F12AE2A84
:10219C00227B017A0C798D900C8BE0FDC208129C8D
:1021AC005D900C8DE0D3940822E490039CF0C2085F
:1021BC0012B2CDE4900385F0A3F02290039CF0FFC3
:1021CC0012B4A57F0212A82F12AE2A22F0900C880E
:1021DC00E0900D30F07B017A0C7990127CED22C2EC
:1021EC0008129DB0900C8DE0D3940822F0900C88CE
:1021FC00E0900D30F07A0C7990127CED22C208122E
:0D220C00000E900391E004F0E0D3940F2247
:1092CB00FDECFFE475F0011259E7FA748025F0F517
:1092DB008274083AF583EFF0900D35E475F00112C6
:1092EB0059E7FC748025F0F582740822FF900D3F3E
:1092FB00E475F0010259E7FC7A002FFFEA35F0FE26
:10930B00EF25E0FFEE33FEE0FAA3E02FF582EA3E15
:10931B00F583E0FFA3E022900E13E0FBA3E0FAA39A
:10932B00E022EEF0A3EFF0A3EBF0A3EAF0A3E9F059
:10933B0022E0FC2490FFE43401FEEF25E0FFEE3346
:10934B00FE22F0A37403F0A374B3F07B017A0879C7
:10935B008022EB25E02458F582E43408F58322784B
:10936B001CE6900E1CFFE0FCA3E0F5828C832290A0
:10937B0008807402F0A374A3F0A322EFF0781D0809
:10938B0006E61886062214F5828E830258A0900DED
:10939B00337403F0A37438F07B017A0D793522E036
:1093AB00FCA3E0FDEC227814E6FD900E1CE0FAA382
:1093BB00E0F5828A83A3EDF022E6FE08E6FFD39068
:1093CB000E17E09F900E16E09E22FFE5F0F0A3EF44
:1093DB00F0223CF583EFF0900D31E0223EF58374E3
:1093EB000FF0E4FD22CFF0A3EFF09012EFE0FFECD3
:1093FB00C39F22900E18E0FEA3E0F5828E83E0223D
:10940B007819E6FE08E6FF223CF583EDF07B01229E
:10941B007856E6FFEDC39F227853E6FFEDD39F22EC
:10942B003CF583EFF0900001025A283CF583EFF0F6
:10943B00900003025A283CF583EFF0900005025A86
:10944B0028CFF0A3EFF0ECC37854962285F082F589
:10945B0083EF0259127C007D31AE02025946900E09
:10946B0016E4F0A3223EF58374F7F0223EF58374E5
:10947B0019F022E0FF900D31E0FEC39F22F9EA358F
:07948B00F0FA1258A0FF22C5
:068F2D00900E12129330B9
:108F3300900E187440F0A374C1F0A374E0F0A3740E
:108F43000FF0A374E0F0A37410F0E47817F608F6BA
:108F5300781DF608F67819F608F678191293C440C6
:108F63001D129322F98F828E831258A0781826F649
:108F730018E436F6781A06E61870DF0680DC7817F0
:108F8300E6FF129322F9A31292FB1294577818E684
:108F9300FF900E161292FB129457900E16E0FAA34E
:108FA300E0FBFF1294607814A607AF03129460ED00
:108FB3004C6003781406900E12E0900E1A12937010
:108FC300EFF0E4781BF608F67814E6FFC3781CE6A6
:108FD3009F18E6940040030290FF1293FE54FEF0A4
:108FE300781576070876D0E47819F608F612940B0C
:108FF300C3940AEE940040030290D0EFC4F8540FD8
:10900300C868FFEEC454F048FEEF2410FFEE34E0CE
:10901300900E1CF0A3EFF0781D1293C4501E12940F
:109023000B4E70061293B10290D0EF64014E6003B1
:109033000290D012936AA3EFF00290D0781AE664FC
:109043000118466012129322F912938870010612D6
:10905300939112936DEFF012940B4E70051293B12E
:10906300800CEF64014E700612936AA3EFF0129323
:1090730022F9129388700106129391FF900E1CE05F
:10908300FCA3E0FDF5828C83A3A3129386700106F3
:109093001293918D828C83A3A3A3129387700106ED
:1090A300129391FFED2404F582E43CF58312938639
:1090B300700106129391FFED2405F582E43CF583DC
:1090C300EFF0781A06E618700106028FF012B46703
:1090D3007FF47E011201391293FE20E01478150803
:1090E300E616188606700116C39405EE940050E048
:0C90F30022781C06E618700106028FCBE4
:0190FF00224E
:06A69000900D7E129333D1
:10A69600900E0F7401F0A3740DF0A37481F0900D69
:10A6A6007EE0F9A3E0FAA3E0900E12C9129334906B
:10A6B6000E0FE0F9A3E0FAA3E0900E15C912933449
:10A6C6007B017A0D79A912AD98E4900E0DF0A3F0F6
:10A6D6007B017A0D79A912B3C7900E0DEEF0A3EFA8
:10A6E600F012937A7451F0900E0D1293AA9008838B
:10A6F600F0A3EDF0E4FFFED3900E0EE09F900E0D5A
:10A70600E09E401F74A92FF582E4340DF583E0FD29
:10A7160074852FF58274083EF583EDF00FBF0001B6
:10A726000E80D4900E0DE0FEA3E0FF2485F5827422
:10A73600083EF5837403F074862FF58274083EF59F
:10A7460083129353900E0EE02407FE900E0DE03414
:0DA7560000900E16F0A3CEF07FF2028F2DC2
:10B0FE0012937A74F3F0E4A3F0A37407F0A314F0A0
:10B10E00A37402F0E4A3F0A304F0A3F0A304F0A34D
:10B11E00740512934D129469740EF07FF2028F2D06
:10AC3B0012937A74C0F0E4A3F0A37418F01258873F
:10AC4B00900885F09000011258A0900886F09000B3
:10AC5B00021258A0900887F09000031258A0900899
:10AC6B0088F07F0C900889E4F0A3DFFC900895ED49
:10AC7B00F07F07900896E4F0A3DFFC90089D1293F9
:0CAC8B004F129469741FF07FF2028F2DAD
:10B33E0012937A74F5F0E4A3F0A312934D1294696C
:08B34E007407F07FF2028F2D5D
:10B35600AB07ECFF12935DE4F0A3EFF0FEAF05122E
:08B36600935DEEF0A3EFF0226D
:10B205009012E4E0600B7F28900858E4F0A3DFFC7F
:10B2150022E4FFEF12935E747FF0A374FFF00FEF4B
:03B22500B414F06E
:01B228002203
:06ABDA00900D41129333BF
:10ABE000900D41129325F91259FD900D441293D501
:10ABF0007D14E4FCECC39D502EEC12935EE0FF90BC
:10AC00000D441292FBFA1292EE3AF583EFF0EC1239
:10AC1000935EA3E0FF900D441292FBFA1292EE3A7B
:10AC2000F583EFF00C80CD900D44E0F9A3E0FF90A8
:0BAC30000D41129325C98FF0025AADB0
:06998F00900D3712932D2C
:10999500900D39129325F91259FD900D3F1293D56B
:1099A5001292F8FE1292EE129470900D371293AA4D
:1099B5001292F7FA1292EE3AF583EFF0900D3F12FC
:1099C50092E61294137A0D793F12ABDA1292F8FEF1
:1099D5001292EE1294771292F8FE1292EE1293E71B
:1099E500E4900D3CF0900D3CE0FFC39410507CEFEB
:1099F500640F606EED75F010A4FF900D3CE09012C1
:109A0500AC129302900D3D12944C4016900D3CE023
:109A1500D37857964002800A12941B40051294236E
:109A2500401D1292F8FE1292EE3EF583E4F0900D81
:109A35003F1292FCFE1292EE3EF583E4F0802390F5
:109A45000D3DE01292F7FA1292EE3AF583EFF0909F
:109A55000D3DA3E0FFA31292FBFA1292EE3AF583B5
:109A6500EFF0900D3CE004F00299EA0DED64196009
:109A7500030299E5E4900D3CF0900D3CE0FDC394A4
:109A85000F506012933C9012AC129312900D3D1240
:109A950093F0402B9012E1E0FFEDD39F5021900D04
:109AA5003D1293AAFFA31292FBFA1292EE3AF583A6
:109AB500EFF0900D3F1292E63CF583EDF0801B121E
:109AC50092F8FE1292EE3EF583E4F0900D3F12926D
:109AD500FCFE1292EE3EF583E4F0900D3CE004F0BE
:109AE500029A7E900D3FE0F9A3E0FF900D391293A5
:079AF50025C98FF0025AADF4
:06980700900D3712932DB5
:10980D00900D39129325F91259FDFF900D3F1293CA
:10981D00D6900D3F1292FBFE1292EE129470900DA7
:10982D00371293AAFF900D3F1292FBFA1292EE3A65
:10983D00F583EFF0900D3F1292E61294137A0D79A5
:10984D003F12ABDA900D3F1292FBFE1292EE129484
:10985D0077900D3F1292FBFE1292EE1293E7E49079
:10986D000D3CF0900D3CE0FFC394104003029900B5
:10987D00EF640F6075ED75F010A4FF900D3CE09056
:10988D00117F129302900D3D12944C4016900D3C99
:10989D00E0D37857964002800A12941B400512942B
:1098AD00234020900D3F1292FBFE1292EE3EF58367
:1098BD00E4F0900D3F1292FCFE1292EE3EF583E421
:1098CD00F08027900D3DE0FF900D3F1292FBFA12B4
:1098DD0092EE3AF583EFF0900D3DA3E0FFA31292C7
:1098ED00FBFA1292EE3AF583EFF0900D3CE004F0A6
:1098FD000298700DED6419600302986BE4900D3CB5
:10990D00F0900D3CE0FDC3940F506312933C901109
:10991D007F129312900D3D1293F0402B9012E1E0C7
:10992D00FFEDD39F5021900D3D1293AAFFA31292EC
:10993D00FBFA1292EE3AF583EFF0900D3F1292E69C
:10994D003CF583EDF0801E900D3F1292FBFE1292BE
:10995D00EE3EF583E4F0900D3F1292FCFE1292EE76
:10996D003EF583E4F0900D3CE004F002990E900D6D
:10997D003FE0F9A3E0FF900D39129325C98FF00256
:02998D005AADD1
:068D3B00900D3712932D8C
:108D4100900D39129325F91259FDFF900D3F1293A1
:108D5100D6900D3F1292FBFE1292EE129470900D7E
:108D6100371293AAFF900D3F1292FBFA1292EE3A3C
:108D7100F583EFF0900D3F1292E61294137A0D797C
:108D81003F12ABDA900D3F1292FBFE1292EE12945B
:108D910077900D3F1292FBFE1292EE1293E7E49050
:108DA1000D3CF0900D3CE0FFC3940F4003028E6533
:108DB100EFC37854964014E0FCD378579640028074
:108DC1000A12941B40051294234021900D3F1292E8
:108DD100FBFE1292EE3EF583E4F0900D3F1292FC01
:108DE100FE1292EE3EF583E4F0028E5C9012E4E016
:108DF100FFD39400401CEFD394035016ED75F00F90
:108E0100A4FFEC7A002FFFEA35F01293449013315E
:108E11008017ED75F00FA4FF900D3CE07A002FFF55
:108E2100EA35F0129344901165129312900D3DCFE3
:108E3100F0A3EFF0900D3DE0FF900D3F1292FBFA91
:108E41001292EE3AF583EFF0900D3DA3E0FFA312ED
:108E510092FBFA1292EE3AF583EFF0900D3CE004AA
:108E6100F0028DA40DED64196003028D9FE4900D55
:108E71003CF0900D3CE0FFC3940F4003028F19902A
:108E810012EFE0FEEFC39E40689012E1E0FF900D0B
:108E91003CE0FED39F505A9012E4E0FF9400401151
:108EA100EFD39403500BEE2477129340901331804B
:108EB1000C900D3CE02477129340901165E0FCA3E7
:108EC100E02FF582EC12931A900D3DCFF0A3EFF055
:108ED100900D3D1293AAFFA31292FBFA1292EE3A61
:108EE100F583EFF0900D3F1292E63CF583EDF080B3
:108EF1001E900D3F1292FBFE1292EE3EF583E4F0BE
:108F0100900D3F1292FCFE1292EE3EF583E4F0903A
:108F11000D3CE004F0028E73900D3FE0F9A3E0FFF9
:0C8F2100900D39129325C98FF0025AAD53
:0B86E000900D2A129333900D29EFF04B
:1086EB00E4900D35F0A3F0900D351292E73CF58335
:1086FB0074021292E23CF58374A3F0EF54287003DA
:10870B0002889E900D2EE0FF900D2DE0FED39F4032
:10871B0004AF068000900D32EFF0A3E4F0A3742AAF
:10872B00F0900D29E0FF30E30E900D34E0240EF0B5
:10873B00900D33E03403F0EF30E539900D2EE075FA
:10874B00F002A4FDACF0900D2DE075F008A42DFF08
:10875B00E5F03CFE900D34E02FF0900D33E03EF051
:10876B00900D32E0600E900D34E02402F0900D334A
:10877B00E03400F0900D29E030E310900D33E0FE73
:10878B00A3E0FF1293A3128D3B8025900D3512921F
:10879B00FBFE1292EE3EF58374F6F0900D33E0FC87
:1087AB00A3E0A31292CB3CF583ED1293A212ABDAAA
:1087BB00900D29E020E5030288C0900D2DE0FF12FB
:1087CB0092E33CF583EFF0900D2EE0FF1292E33C29
:1087DB00F583EFF0900D32E06012900D2FE0FCA3CB
:1087EB00E0900D351292CB3CF583EDF0E4900D311A
:1087FB00F0900D2D12947E5061900D2A129325F955
:10880B0075F00BEEA4F58285F0831258A0FF12923F
:10881B00E31293DD75F00BA42990000712948812D4
:10882B0092E312942BE5F0FF1292E312942BFF12BA
:10883B0092E3129436E5F0FF1292E3129436FF1294
:10884B0092E3129441E5F0FF1292E3129441FF126E
:10885B0092E31293DD04F00287FCE4900D31F0906B
:10886B000D2E12947E506CEE75F00BA4FF900D2A1A
:10887B001293252F9000091294881292E33CF583F2
:10888B00EFF090000A1258A0FF1292E31293DD044E
:10889B00F080CC900D29E0B4040B129399FF7E036A
:1088AB001298078010900D29E0B40127129399FFBD
:1088BB007E0312998F900D351292FBFE1292EE3EB3
:1088CB00F583E4F0900D351292FCFE1292EE3EF51C
:1088DB0083E4F0900D351292FBFE1292EE3EF5837F
:1088EB007403F0900D351292FBFE1292EE3EF5835F
:1088FB00129353900D35E0FFA3E0900E16CFF0A32B
:07890B00EFF07FF2028F2D57
:100046007811E675F00FA47C002DFFEC35F0FEEF7D
:1000560025E0FFEE33FEE0FCA3E02FF582EC3EF553
:100066008322E0FCA3E0FD901331E0FAA3E02FF534
:1000760082EA3EF583EC8DF00259D19202E4900CAF
:1000860085F0901330E024FF920322F583E0FEA36F
:10009600E0C394C8EE940022EE2477FFE43401FE18
:1000A600EF25E0FFEE33FE22E0FEA3E0FF901333E0
:1000B600E0FD7C00025946900C84E004F022F583B2
:1000C600E0FCA3E0C394C8EC9400229012E1E0FFA8
:1000D6007810E6FED39F22901331E0FEA3E0229033
:0600E600132FE004F022DC
:10AD4700127A4F127F8A12A10E7F0212A82F12B019
:10AD5700CB20130320140EC20012A7637F0412A096
:10AD670008C2008022D20012A7637F0A7E00120168
:10AD77005512B0FE7BFF7A0079F09012E4E0FD12E5
:10AD8700AC3B1269D3D20012A213C232C23402B34F
:01AD97003E7D
:10B26D00302FFDC22F7B017A0C798012A4E2EF30D2
:10B27D00E5EED202E4900C85F0C20312410980E0A4
:109AFC00E490132FF0C233303403029B92302FF7D3
:109B0C00129C3D30E44090132FE0C39402400BE4D0
:109B1C00F0D201129EED5002D234129C4E700712FC
:109B2C00B483D2028013900C81E0B40111D233E4DF
:109B3C0090132FF0120016C20212B40480B9900CCC
:109B4C0081E0640280B1900C80E030E5AA1200360E
:109B5C009200A2008232500C1200E5A3E070057F47
:109B6C000112A82FA2009202900C85740312008798
:109B7C00124109EF70089012E67403F0D232D20849
:109B8C0012000E029B03901335E0D39464402E9088
:109B9C001334E0D39402400512B4188020E49013DF
:109BAC0035F0901167E0FEA3E0FFF5828E8374011F
:109BBC00F08F828E83E4F0901334E004F0302FC6E3
:109BCC00E4901334F0129C3D30E436129C4E701C21
:109BDC0090132FE0C39402400CA22A9201129EED26
:109BEC00E490132FF012B483D202800F900C81E01A
:109BFC0064017092D233120016C20212B404029B9A
:109C0C0092900C80E020E503029B92901330E07060
:109C1C00057F0112A82F1200369200A200120081BB
:109C2C001241093000031200E5D20812000E029B0B
:019C3C009295
:109C3D00C22F7B017A0C798212A4E2900C80EFF096
:109C4D00227B017A13793012020D900C81EFF022F4
:10891200E4900C83F0C20190132FF0C23390133114
:108922007419F0A37401F0302FFD12B205C22F7B2F
:10893200017A0C798212A4E2900C80EFF020E40319
:10894200028B149012E4E0D39403402A7B017A1341
:10895200793012020D900C81EFF0700712B483D2BD
:1089620002800E900C81E0B401BDD233120016C217
:108972000212B40480B1901333E070127E037F0CB4
:10898200FD901331E0FAA3E0F97B01125C7C78568A
:10899200E67811F67911E7D378539650237854E6A6
:1089A2007810F67810E6FDD3785796500E90116540
:1089B20012004612006878100680E878110680D40A
:1089C2009012EFE07810F61200D1501112009E9032
:1089D200116512005C12006878100680EA90133369
:0C89E200E004F0E0C39401500302892976
:1089EE00E4900C84F07856E67811F67911E7D37896
:1089FE00539650307854E67810F67810E6FDD3781A
:108A0E005796501B901331120046C083C08212003D
:108A1E00AED082D083EEF0A3EFF078100680DB7834
:108A2E00110680C79012EFE07810F61200D1501E9A
:108A3E0012009E90133112005CC083C0821200AEF1
:108A4E00D082D083EEF0A3EFF078100680DD120016
:108A5E00DDFF2420F582E43E1200C440031200BD67
:108A6E00EF2438F582E43E12009140031200BD124D
:108A7E0000DD241EF582EE34021200914003120036
:108A8E00BD1200DDFF2436F582EE34021200C44022
:108A9E00031200BDEF241CF582EE3401120091404A
:108AAE00031200BD7DFE7C007F1212B35620011A08
:108ABE00900C84E0D394034006900C83E004F09075
:108ACE000C83E0D394034002D2012001047D028086
:108ADE00027D037C007F1312B3569011A6E0FEA315
:108AEE00E0F5828E83E0FF30E3147B007A0079009C
:108AFE00E4900D2DF0A3F0A3F0A3F01286E0E49025
:038B0E001333F02E
:108B1100028929900C80E020E503028929120036A0
:108B21009200A2001200811241093000031200E5F7
:088B3100D20812000E0289298E
:10B3B10012AD47301C0302B26D9012E4E06003024B
:06B3C1008912129AFC2221
:10B28D0000010002000400080010002000400080B2
:10B29D0001000200040008001000200040008000A2
:10619500EEFB7A002477FFEA3401FEEF25E0FFEEFF
:1061A50033FE9012B2E0FCA3E02FF582EC3EF583BE
:1061B500E0F528A3E0F5299012FEE0FEA3E0FFC379
:1061C500E5299FF52DE5289EF52CFEAF2D901302B0
:1061D500E0FD7C0012599B8E2C8F2DEB2490FFEA5D
:1061E500340190117FFEEF25E0FFEE33FEE0FCA3C6
:1061F500E022D2369012ACE0FEA3E0FFF5828E835A
:10620500E0FCA3E0FD90117FE0FAA3E0F5828A832C
:10621500E0FAA3E09DFDEA9CFC90117FE0FAA3E083
:10622500241CF582E43AF583E0FAA3E02DFDEA3C6F
:10623500FCEF241CF582E43EF583E0FEA3E0FFC3FA
:10624500ED9FFFEC9EFE90117FE0FCA3E0243AF564
:1062550082EC3402F583E0FCA3E02FFFEC3EFE90D8
:1062650012ACE0FCA3E0FD243AF582EC3402F583A0
:10627500E0FAA3E0FBC3EF9BFFEE9AFE90117FE0EF
:10628500FAA3E02456F582EA3402F583E0FAA3E0A6
:106295002FFFEA3EFEED2456F582EC3402F583E04D
:1062A500FCA3E0229012B3E02402F09012B2E03495
:1062B50000F0901180E02402F090117FE03400F0AE
:1062C5009012ADE02402F09012ACE03400F0229080
:1062D5001165FD7C002477FFEC3401FEEF25E0FF1E
:1062E500EE33FEE0FAA3E02FF582EA3EF5832224A1
:1062F50090FFE43401FEEF25E0FFEE33FEED2FF5D0
:1063050082EC3EF583229012ACE0FEA3E0243AF540
:1063150082EE3402F583E0FEA3E02414FFE422902C
:106325000C89E0FEA3E0FF7C007D0F12599B900CC9
:1063350089EEF0A3EFF0900C87E0FCA3E0FDC39F8E
:10634500EE6480F8EC648098229012FEE0FEA3E0F3
:10635500FFC3E5299FF52DE5289EF52CFEAF2D9071
:1063650012FCE0FD7C0012599B8E2C8F2D22901281
:10637500ACE0FEA3E0F5828E83223EFE90117FE025
:10638500FCA3E0243AF582EC3402F583E0FAA3C3DA
:10639500E09FEE6480F8EA64809822D3E52B94FFB1
:1063A500E52A64809483229012E8E0FEA3D3E0FFFF
:1063B500E5299FEE6480F8E52864809822E0FAA339
:1063C500E0C3952DF52BEA952CF52AC364809480BE
:1063D500229012B274C0F0A3E4F090117F74A0F083
:1063E500A3E4F09012AC741CF0A37441F0227B007E
:1063F5007A007900E4900D2DF0A3F0A3F0A3F0222C
:10640500901302E0FF7E009012FEE0FCA3E0FD2F5A
:10641500F52FEE3CF52EC3ED9FF531EC9EF53022C0
:106425002490FFE43401FEEF25E0FFEE33FE2290D9
:106435000C81E0900C8075F010A4FFE07C002FFF2C
:10644500EC35F0223EFE90117FE0FCA3E0FDF582E5
:106455008C8322F5828E837403F0A374FFF022E00F
:10646500F528A3E0F529900C8AE02529F0900C8900
:10647500E03528F0229012ACE0FEA3E0241CF58262
:10648500E43E22E4900C89F0A3F07854E67812F605
:106495002290117FE0FEA3E0229012E1E0FF900C34
:1064A50081E0FED39F22ECF0A3EDF0900C81E00497
:1064B500F022FAA3E0FBE52B2DFFE52A3CA2E7132A
:1064C500FEEF13FF8B828A83EEF0A3EFF022F582B5
:1064D5008E83E52AF0A3E52BF0229012E1E0FF7808
:1064E50013E6FED39F223EFE90117FE0FCA3E0243D
:1064F5003AF582EC3402F583E0FAA3E022E0FEA34C
:10650500E0C3952DF52BEE952CF52A22900C80E015
:10651500FFD378579622FDC3EF9DFFEE9C9012683E
:10652500F0A3EFF0901268E0FEA3E07802223EFEB1
:10653500ED241CF582E43C229012ACE0FEA3E0249D
:106545005622FFF5828E83E0FCA3E0FDC3952DF571
:106555002BEC22900C87EEF0A3EFF0900C8BE0FE75
:10656500A3E0FF900C8922901185E0FEA3E0AA0626
:10657500F97B0122900C81E0D3785396229012EF9B
:10658500E0900C81F0227E037F407D00E0FAA3E0DD
:10659500F97B01025C7C9012EFE07813F6227856C5
:1065A500E6900C81F0227854E6900C80F022E0FE13
:1065B500A3E0FF9012FBE0FD7C0002599BE0FEA3E7
:1065C500E0252BFFE52A3EA2E71322900C81E0751A
:1065D500F010A4227856E67813F622900C80E00499
:1065E500F0227913E7D3785396227912E7D37857B7
:1065F5009622E0F528A3E0F52922C3E52A648094D4
:1066050080227F347B017A127976025C7C9012AA13
:10661500E0FCA3E02274017E0078128600082225A2
:10662500E02476F582E4341222900C81E075F00FB7
:03663500A4FF229D
:0CAAAA00900D59EFF09012E0E06F605B3F
:10AAB600785A7C0D7D017BFF7AB2798D7E007F20EE
:10AAC600125861900D59E0FD25E0245AF582E434D0
:10AAD6000DF583E0FFA3E0901272CFF0A3EFF0E450
:10AAE600A3F0A3F0900FE5F0A3F09010EA12656FC3
:10AAF60012B15C900D59E09012E0F012656C7D0188
:0BAB060012B15C12656CE4FD12B15C42
:01AB11002221
:10B0CB009012B274C01263E49012AA7419F0A374B4
:10B0DB0001F0E490126BF09012AE1263FD90126CC3
:10B0EB00F0A3F0901266F0A3F0C2369012E6E0FFE8
:03B0FB0002AAAAFC
:050016007F0F02AAAA01
:08B483009012E6E0FF02AAAA04
:10410900900C867401F0E4A31263FDA37404F0A378
:10411900E4F09012E4E060487DFE7C007F1212B367
:10412900567D017C007F1312B3569011A612637657
:10413900E030E0081263F37F011286E09011A612C5
:104149006376E030E2081263F37F041286E090118F
:10415900A6126376E030E1081263F37F081286E065
:1041690020020612AF77024900900C85E060030235
:1041790043529012FC12640830363D126373126385
:104189001B126449126391400302421312647A12AA
:1041990063191265331262A2126343506D12630BE5
:1041A90012637F506512653D12631412629812639F
:1041B900435057D23602421312637312631B1264BF
:1041C90049E0FAA3D3126395404012647A12631945
:1041D9001265331262A2D3126344402E12630B128A
:1041E90064EBD3126396402212653D126314126286
:1041F90098D312634440131261F712651BCEC3139F
:10420900CE13D8F9F0EE901268F020360302429DE1
:104219001265D91265E7400302434C12648812659E
:10422900EF503E9012B212637612646412634E121A
:1042390064961265471263CC500A8F828E83E4F02C
:10424900A3F080141263A090117FE04008126377F5
:1042590012645C80031264B71262A97812060242E2
:10426900271262B73003271263245008A3E0FEA384
:10427900E0FF8004AE04AF0512655812633E500694
:10428900AE04AF058000900C8BEEF0A3EFF078132D
:104299000602421C1265D91265E7400302434C121B
:1042A90064881265EF50699012B2126376126464E1
:1042B900D3E5299531E5301263B9500474FF8015AF
:1042C900C3E529952FE52E1263B94008752C0075B1
:1042D9002D018005E4F52CF52D126496FFF5828EEB
:1042E90083E0FCA3E01265511263CC500A8F828EE1
:1042F90083E4F0A3F080101263A0126496400512C3
:10430900645880031264D31262A97812060242AB80
:104319001262B73003271263245008A3E0FEA3E01A
:10432900FF8004AE04AF0512655812633E5006AE15
:1043390004AF058000900C8BEEF0A3EFF078130624
:104349000242A01263D602468A900C85E06403609B
:044359000302453DD9
:10435D00900C8DF0A3F030363D12637312631B1277
:10436D00644912639140030243F612647A12631991
:10437D001265331262A2126343506E12630B126305
:10438D007F506612653D126314126298126343509A
:10439D0058C2360243F612637312631B126449E06E
:1043AD00FAA3E0D3126396404012647A1263191295
:1043BD0065331262A2D3126344402E12630B126452
:1043CD00EBD3126396402212653D1263141262986C
:1043DD00D312634440131261F712651BCEC313CE83
:1043ED0013D8F9F0EE901268F01265D91265E74016
:1043FD00030244EE1264881265EF40030244E59017
:10440D0012B21263761265F74528602A12634E12B6
:10441D0064961265471263CC50078F828E830244D7
:10442D00751263A090117FE04006FEA3E002448464
:10443D001264B70244DC12634E12644B1265021211
:10444D00661A8005C333CE33CED8F9FF7813E6F95B
:10445D001266241264FBFBEA5EFEEB5F4E602212D5
:10446D0065FF500B8D828C83E4F0A3F00244DC12C7
:10447D0063A0126496400512645880531264D38071
:10448D004EE9126624F583C083C08212661A800538
:10449D00C333CE33CED8F9FFEA4EFEEB4FFFD082B9
:1044AD00D083EEF0A3EFF01263731265C2FEEF132B
:1044BD00FF90117FE0FCA3E0F5828C83EEF0A3EF7B
:1044CD00F09012B1E004F070069012B0E004F0121A
:1044DD0062A97812060244041262B77813060243E9
:1044ED00F91263D690126CE0FEA3E0FF9012B012A9
:1044FD00633E4008E4900C86F002468A20330302A6
:10450D00468A901266E0FEA3E0B50512ECB5060EE4
:10451D009012B1E004F070069012B0E004F0901229
:0D452D00B0E0FFA3E0901266CFF0A3EFF026
:03453A0002468AAC
:10453D00E4900C8DF0A3F01265D97813E6D378537F
:10454D009640030246341264887812E6D378579663
:10455D00400302462B9012B21263761264649012DD
:10456D00FEE0FAA3E0FBFFAE02126356900C85E06D
:10457D006401704212644B126502EB25E0FFEA33D1
:10458D00FED31263B54005900C8E8010D3E52994AF
:10459D0000E528648094805006900C8DE004F012A4
:1045AD0065FF50068D828C83803F1263A012649646
:1045BD00400280438046E529452890117F701112F5
:1045CD006376E0FEA3E02420F52BE43EF52A800679
:1045DD00126376126502303705126496801E1265DD
:1045ED00FF500C90117F126376E4F0A3F08010124F
:1045FD0063A0126496400512645880031264D312AE
:10460D0063AC500C9012ECE0FEA3C31263B35005E3
:10461D00E4900C86F01262A97812060245561262D9
:10462D00B77813060245471263D6900C8EE0FF7ED5
:10463D0000C390126DE09F7480F890126CE064805E
:10464D00985027EEF0A3EFF090126CE0FCA3E0FD84
:10465D00AE047803CEA2E713CE13D8F8FFC3ED9FB7
:10466D00FFEC9E90126CF0A3EFF0900C8DE0FFC369
:0D467D0090126DE09FF090126CE09400F040
:10468A00A21AB01840030248F5900C85E0600302B4
:10469A00475012640530363C12659B1264DF4003B2
:1046AA000248F5126195FD1263031263C2500912A2
:1046BA006302E4F0A3F080161263A07813E64008C0
:1046CA001262F412645C80061262F41264D77813E0
:1046DA00060246A512659B1264DF40030248F5EE06
:1046EA009012B21262D71265F7D39531E530126390
:1046FA00B9500474FF8015C3E529952FE52E12637E
:10470A00B94008752C00752D018005E4F52CF52DAE
:10471A00ED2490FFEC1261E5FD1263031263C250AF
:10472A0009126302E4F0A3F080161263A07813E67C
:10473A0040081262F412645C80061262F41264D7B2
:10474A007813060246E1900C85E064036003024890
:10475A005012640512659B1264DF40030248F5EEAD
:10476A00FB7A002477FFEA34019012B21261EA124E
:10477A0063031265F74528601A1261BCFD126303D0
:10478A001263C250030247D21263A07813E6405361
:10479A000247E47813E6FB74017E00A8030880054B
:1047AA00C333CE33CED8F9FF9012A8E05EFEA3E061
:1047BA005F4E604E12634EEB2490FFE41261E5FDFA
:1047CA001263031263C2500A126302E4F0A3F002F6
:1047DA00484A1263A07813E640091262F412645C34
:1047EA0002484A2490FBE43401FAEB25E0FFEA127E
:1047FA0063001265C2FCEF13FDEB25E0FFEA33FE0E
:10480A0080337813E6FD74017E00A805088005C38D
:10481A0033CE33CED8F9FF9012A8E04EF0A3E04F82
:10482A00F0ED1264259012ACE0FCA3E02FF582ECC7
:10483A003E1262A2FD90117F1262E8ECF0A3EDF045
:10484A0078130602476112659B1264DF50401261B9
:10485A0095FD126303E0F52AA3E0F52B1263AC5031
:10486A000E9012ECE0FEA3E0FFC31263B55005E41C
:10487A00900C86F0C3E52B952DFBE52A952CFA784A
:10488A0013E61262F4EAF0A3EBF006024853E47866
:10489A0013F67813E6FFC394035012EF2490FFE453
:1048AA001261E5126303E4F0A3F00680E57813765B
:1048BA00047813E6FFC394095012EF2490FFE41220
:1048CA0061E5126303E4F0A3F00680E57813760A43
:1048DA007813E6FFC3940F5012EF2490FFE412619D
:1048EA00E5126303E4F0A3F00680E5900C85E0642A
:0B48FA0002600312AF77900C86E0FF15
:01490500228F
:1069D300301D05E4FF12AAAAE4900C83F090126A1A
:1069E300F0FEFD1266079012AC12658B9012AA128C
:1069F300658BD2129012EEE07003026D21302FF4FA
:106A0300C22F7B017A0C798212A4E2EF30E5E59084
:106A130012EEE014F0900C83E0147003026B261462
:106A23007003026B4D24026003026D1B9012E4E0BD
:106A330060129011A6126376E030E2081263F37FCE
:106A4300041286E01265A312657950311265AB1208
:106A530065115024EF640F601A1264341261E72F3A
:106A6300F582EC3E1262A2FD9012AC1262E8ECF0E9
:106A7300A3EDF01265E080D71264B080CA301A2407
:106A830012658212649E501CEE2490FFE41261E5AD
:106A93002FF582EC3E1262A2FD9012AC1262E81254
:106AA30064AB80DF9012E4E060661265A31265793F
:106AB300503C1265AB126511502FEF640F602590A7
:106AC3001305E0FCA3E0FD1265D0FF900C80E07A93
:106AD300002FFFEA35F012642B90117F1262E8EC6D
:106AE300F0A3EDF01265E080CC1264B080BF301AE1
:106AF3001F12658212649E5017901305E0FCA3E0F9
:106B0300FDEE12642590117F1262E81264AB80E4FB
:106B1300900C837401F0D2379012EEE0FF25E0F081
:106B2300026D1B126D41EF6005E49012EEF09012BE
:106B3300EEE06003026D1B9012FBE09012EEF0900A
:106B43000C837402F0C237026D1B20120FD202E4D1
:106B5300900C85F0C203124109026D1B126D4112A4
:106B630065A312657950321265AB1265115025EF9A
:106B7300640F601B1264341261E72FF582EC3E123E
:106B830062A2FD9012AA1262E8EC8DF01259D112A2
:106B930065E080D61264B080C9301A2A1265821269
:106BA300649E5022EE2490FFE41261E52FF582ECFF
:106BB3003E1262A2FD9012AA1262E8EC8DF0125905
:106BC300D11264B080D99012EEE06003026D1B1203
:106BD30065A31265794003026C821265AB126511DD
:106BE3004003026C7CEF640F7003026C7612662E16
:106BF300900C80E0F9FD12644112642B9011651230
:106C030062E8E0FEA3E04E70141265D02DFFEC3570
:106C1300F01261E712630312645C026C7612662E53
:106C2300E9FD12644112642B9011651262E8E0FEE3
:106C3300A3E04E70047F0180027F007E00BE031735
:106C4300BFFF141265D02DFFE5F03C1261E712631C
:106C530003E4F0A3F0801C12643412642B12661256
:106C6300126303C083C0821265B3D082D083EEF077
:106C7300A3EFF01265E0026BE01264B0026BD52063
:106C83001A03026D1B12658212649E4003026D1B80
:106C9300EE1262D4E0FEA3E04E7011ED2490FFECFF
:106CA3001261E512630312645C026D15900C81E0BE
:106CB300F91262D4E0FEA3E04E70047F0180027FEC
:106CC300007E00BE0314BFFF11ED2490FFEC1261A0
:106CD300E5126303E4F0A3F08038E9126425126639
:106CE30012126303C083C0821265B3D082D083EED5
:106CF300F0A3EFF0900C81E01264251266122FF5D9
:106D030082EC3E1262A2FD90117F1262E8ECF0A3C6
:106D1300EDF01264B0026C8B12AF770269F7301D8D
:106D23001C9011B4126376E0547FF09011811263CA
:0D6D330076E054EFF09012E6E0FF12AAAAFD
:0F6D400022D202900C857402F0C2031241092284
:05A00800900C80EFF058
:10A00D007E007D00126607301D05E4FF12AAAAE44A
:0EA01D0090126AF0C235D20020130302A0BEDA
:10A02B007856E6900C83F0900C83E0D378539650DF
:10A03B00457854E6900C82F0900C82126514502EE9
:10A04B00EF640F6021900C83E0900C8212643B1242
:10A05B0061E72FF582EC3E1262A2FD9012AC126208
:10A06B00E8ECF0A3EDF0900C82E004F080CA900CC9
:10A07B0083E004F080B1301A3A9012EFE0900C8339
:10A08B00F09012E1E0FF900C83E0FED39F5024EEA2
:10A09B002490FFE41261E52FF582EC3E1262A2FDE3
:10A0AB009012AC1262E8ECF0A3EDF0900C83E0049C
:03A0BB00F080CE64
:10A0BE00900C80E06034302FF7C22F7B017A0C7940
:10A0CE008112A4E2EF30E5E8900C80E014F030004D
:10A0DE0002C200D202900C857401F0C20312410933
:10A0EE00EF60CDE4900C80F080C6301D129011B45C
:0FA0FE00126376E0547FF09012E6E0FF12AAAAF8
:01A10D00222F
:10B325003C3E40424446484A4C4E50525456585A68
:09B335005C5E60000000000000F5
:106D4F007A02F9F8125AF9AB4BAA4AA949A8481284
:106D5F00AEB38E2C8F2DE52B252DFFE52A352CADCF
:106D6F0007FC7816E675F00B901224A4FFE0FBA346
:106D7F00E0FAA3E02FF9EA35F0FA228F4F8E4E8D0D
:106D8F004D8C4CC3E539954FFFE538954EFEE537F1
:106D9F00954DFDE536954CFCE47B50FAF9F8125A07
:106DAF00F9E47B64FAF9F812AEB3A804A905AA06B0
:106DBF00C3E5399FF54BE5389AF54AE53799F5491B
:106DCF00E53698F548E54B2547FFE54A3546FEE59C
:106DDF00493545FDE5483544FCC3EF9543FFEE9536
:106DEF0042FEED9541FDEC9540FC7801025C2CE5EF
:106DFF003F24F6FFE53E34FFFEE53D34FFFDE53C65
:106E0F0034FFFCE47BFFFAF9F8125AF9E47BC67AF7
:106E1F0007F9F812AEB38F3F8E3E8D3D8C3CE47F69
:106E2F0001C3FEFDFCAB3FAA3EA93DA83C025C1688
:106E3F007815E675F006A4FF901227227814E62540
:106E4F00E025E024BCF582E43411F583E0FCA3E0F7
:106E5F00FDA3E0FEA3E0221258A07812FF3395E0C5
:106E6F00FEC3E6FD9FEE6480F874809822E543250B
:106E7F0039F543E5423538F542E5413537F541E51A
:106E8F00403536F540853539853438853337853289
:106E9F0036E4F547F546F545F5448535318534300B
:106EAF0085332F85322E22AF35AE34AD33AC3278E9
:106EBF0001125C2C8F358E348D338C32227C00FF87
:106ECF00EC35F09011BAFEEF25E0FFEE33FEE0FC5B
:106EDF00A3E02FF582EC3EF583E022FF7801125CF0
:106EEF0040EF2535FFEE3534FEED3533FDEC353211
:106EFF00227813E625E025E0242AF582E4341222D5
:106F0F009000051258A0FF3395E0FE22E47FD07E5B
:106F1F0007FDFCAB3FAA3EA93DA83CD3025C16E49B
:106F2F00F543F542F541F540F547F546F545F5448E
:106F3F00F539F538F537F536F531F530F52FF52EFE
:106F4F0022E47A0EF9F8125B848F4B8E4A8D498CAE
:106F5F004822FEED34FFFDEC34FFFCE4FBF9F802B0
:106F6F005AF9E5472535F547E5463534F546E54504
:106F7F003533F545E5443532F5442225E025E02447
:106F8F00BCF582E43411F58322E62401FFE433FEDD
:106F9F00ED3395E0FCD3ED9FEE6480F8EC648098C0
:106FAF0022E5472543FFE5463542FEE5453541FDE0
:106FBF00E5443540FCEF253922900003125ACC905E
:106FCF000003025A28A3E0FAA3E0F97815E675F05A
:106FDF0006A4F58285F08322AF31AE30AD2FAC2EF3
:106FEF00AB35AA34A933A832D3025C16AF43AE42F5
:106FFF00AD41AC40AB47AA46A945A844D3025C16A5
:10700F00F535E5343EF534E5333DF533E5323CF502
:10701F003222E4753F0AF53EF53DF53C22AEF0FB1A
:10702F00AA06EA3395E0F9F8C3E49BFF22FEE49940
:10703F00FDE498FCE4FBF9F8025AF9900D29E0649D
:10704F000122FF7801025C2C125C5378120622EEAB
:10705F003395E0FDFC22900001EC8DF0025ACCFC40
:10706F00AB4BAA4AA949A848025AF9E4753FD07513
:10707F003E07F53DF53C22FCE47B03FAF9F802AE3E
:10708F00B3AF39AE38AD37AC36780122900003027A
:10709F0058A0E4F535F534F533F5322290000202AD
:1070AF0058A0FFAEF0D39400EE648022FFAEF0C381
:0C70BF00EE6480948022900001025A28A8
:10AFB400900CA8A3E0FAA3E0FF9011BAEAF0A3EF83
:10AFC400F0900CABE0F9A3E0FAA3E0901227C9F0EB
:10AFD400A3EAF0A3E9F0900CAEE0F9A3E0FAA3E051
:0CAFE400901224C9F0A3EAF0A3E9F022C7
:10B2EC007E007F347D007B017A1179BC125C7C7E00
:0EB2FC00007F1E7D007B017A12792A025C7CA5
:1050AF00900D29EFF0A3ECF0A3EDF0A3EAF0A3EB42
:0150BF00F000
:1050C000782F7C0D7D017BFF7AB379257E007F19D7
:1050D000125861E47815F608F6900D29E07815125B
:1050E0006E6B400302576CED75F006901227126D3F
:1050F0007A12709BF529126F2E7817F608F6127047
:105100004A705B7856E67812F6126E3F126D7C900C
:105110000003126E665017ED126F8AC083C08212B0
:105120006E5B127051D082D08312705780DB126E8A
:105130003F126D7C9000051258A07812F67812E6A6
:10514000FFD37853965017EF126F8AC083C0821234
:105150006E5B127051D082D08312705780DF126E56
:105160003F126D7C12709B7814F6126E3F126D7CAC
:10517000126F0F7814E6D3126E734003025260125E
:1051800070A11270AB7813F6126E3F126D7C900016
:1051900004126F127813D3126E7150477814E675AB
:1051A000F00FA42D126ECCF53AA3E0F53BC3900DA1
:1051B0002DE0953B900D2CE0953A5003781806C3EE
:1051C000900D2BE0953B900D2AE0953A500378170F
:1051D00006AE3A12705EE535253B12700F78130665
:1051E000025188126E3F126D7C900001126F12788E
:1051F00014E6FBD3126E735003126EB67853E6FAC0
:10520000B50303126EB612704A703D7856AD29127E
:105210006F98400CEA146480F8E529648098400B8C
:10522000126E4B126EEA1270868009126E4B126E6D
:10523000F1126DF8126EC3AF35AE34AD33AC3278C7
:1052400014E6126F8A125C53126FE7400A7814E674
:10525000F529126E7C8003126F7178140602516A70
:10526000E5472543F53FE5463542F53EE545354101
:10527000F53DE5443540F53C7856E6FBFFAD29EDBC
:105280003395E0FCC3ED9FFFEC9400FE7C027D8033
