:100000000200760206B6FFFFFFFFFF0206E6FFFFD3
:10001000FFFFFFFFFFFFFFFFFFFFFFFFFFFFFFFFF0
:10002000FFFFFFFFFFFFFFFFFFFFFFFFFFFFFFFFE0
:10003000FFFFFF02071CFFFFFFFFFF020718FFFF84
:10004000FFFFFF0207A8FFFFFFFFFF0207B0FFFF50
:10005000FFFFFF0207ACFFFFFFFFFF0207B7FFFF35
:10006000FFFFFFFFFFFFFFFFFFFFFFFFFFFFFFFFA0
:10007000FFFFFF02099E75D0007581C07518FF75DE
:100080001983E4908000786579018002F0A3D8FCA0
:10009000D9FA908064AA82AB8390204578147901C4
:1000A0008015E493A3AC82AD838A828B83F0A3AAEC
:1000B00082AB838C828D83D8E9D9E7121EEB80FE58
:1000C000000000000100000006FF08FF26FF28FFD7
:1000D00066FF68FF000102030405060708090A0B12
:1000E0000C0D0E0F101112131415161718191A1BD8
:1000F0001C1D1E1F202122232425262728292A2BC8
:100100002C2D2E2F303132333435363738393A3BB7
:100110003C3D3E3F40414243444546484B4E51548E
:100120005557595B5D5D5E5F6061616262636464E7
:10013000646464646465656565656566666666666F
:100140006666676767676767686868686868686938
:1001500069696969696A6A6A6A6A6A6A6B6B6B6B00
:100160006B6B6C6C6C6C6C6C6C6D6D6D6D6D6D6EC9
:100170006E6E6E6E6E6E6F6F6F6F6F6F7070707091
:10018000707070717171717171727272727272725B
:100190007373737373737474747474747475757522
:1001A00075757576767676767676777777777777EC
:1001B00078787878787878787979797979797979B7
:1001C0007A7A7A7A7A7A7A7A7B7B7B7B7B7B7B7B87
:1001D0007C7C7C7C7C7C7C7C7D7D7D7D7D7D7D7D57
:1001E0007E7E7E7E7E7E7E7E7F7F7F7F7F7F7F7F27
:1001F00080808080808080808181818181818181F7
:10020000820A00000005000000581B00000F0000DB
:10021000006400000088130000181818C3E796084F
:1002200009E7960809E7960809E79622E4CFC0E0B7
:10023000E4CEC0E0E4CDC0E0E4CCC0E075F020C383
:10024000E633F608E633F608E633F608E633F61842
:100250001818EC33FCED33FDEE33FEEF33FFC3EC47
:100260009709ED9709EE9709EF97191919400FFFB4
:10027000EC97FC09ED97FD09EE97FE191906D5F0EC
:10028000BEECF709EDF709EEF709EFF7191919D0E8
:10029000E0FCD0E0FDD0E0FED0E0FF22181818E42A
:1002A0009326F60874019336F60874029336F6081E
:1002B00074039336F622181818E026F008A3E036E7
:1002C000F008A3E036F008A3E036F022181818C3AF
:1002D000E096F008A3E096F008A3E096F008A3E00B
:1002E00096F022E0F608A3E0F608A3E0F608A3E003
:1002F000F622E493F608740193F608740293F60864
:10030000740393F622E58224FDF5824002158318DA
:100310001818E6F008A3E6F008A3E6F008A3E6F054
:1003200022CAC0E0E6F0A308DAFAD0E0FA22C3E479
:1003300098F8E499F912036F8026C3E49AFAE49BD3
:10034000FBE920E7E912036FE498F8E499F922C386
:10035000E498F8E499F912036FE498F8E499F9C382
:10036000E49AFAE49BFB22EB20E7CFE920E7E0B92F
:100370000010BB0008E88AF084F8AAF022E4FBC869
:10038000FA22EB70227B10C833C8C933C933500737
:10039000C39AC3DBF280069A50012ADBEAC833F421
:1003A000C8C933F4C9FA2275F008E4C833C8C933A0
:1003B000C933C99AC99B5004C92AC93BD5F0ECFB83
:1003C000C833F4C8E4C9FA2270051822600C08C6C4
:1003D000C313C618C613C6D5E0F422700422600DFC
:1003E00018C6C333C608C633C6D5E0F4182225188C
:1003F000C0A8C2AF40021519F518D0A822C0D02558
:1004000018C0A8C2AF50020519F518D0A8D0D02244
:100410002518F582C0A8C2AF40021519F518D0A85A
:10042000851983222518F582E43519F583222518CC
:10043000C582C0E0E51934FFC583C0E0E518C39567
:100440008224F9C0A8C2AF858319858218D0A8CEAE
:10045000F0A3E520F0A37808E608F0A3DEFAEFF0B9
:10046000A3E58124FBF8E608F0A3E608F0A308085A
:10047000E608F0A3E608F0A315811581D0E0FED0D0
:10048000E0F815811581E8C0E0EEC0E0228519830F
:10049000851882E0A3FEE0A3F5207808E0A3F60823
:1004A000DFFAE0A3FFE0A3C0E0E0A3C0E0E0A3C068
:1004B000E0E0A3C0E085A8F0C2AF8582188583196B
:1004C00085F0A8D083D08222C0D02518C582C0E094
:1004D000E51934FFC583C0E0E518C3958224F3C055
:1004E000A8C2AF858319858218D0A8C8F0A3E9F007
:1004F000A3EAF0A3EBF0A37908E709F0A3D8FAEC9C
:10050000F0A3EDF0A3EEF0A3EFF0A3D0E0F0A3D0C2
:10051000E0F0A3D0E0F0A3E520F0A3E5F0F0A32203
:10052000851983851882E0C0E0A3E0F9A3E0FAA36F
:10053000E0FBA37808E0F608A3DFFAE0FCA3E0FD07
:10054000A3E0FEA3E0FFA3E0C0E0A3E0C0E0A3E0DF
:10055000F5D0A3E0F520A3E0A3F5F0E5A8C2AF85B0
:100560008218858319F5A8D082D083D0E0F8D0E036
:10057000327404800A74038006740280027401C01D
:10058000E0F404120410D0E012032122D083D082C0
:10059000C5F0E493A3C5F0C395F0F5F0E493A3C3CD
:1005A00095F04005E5F0048001E475F002A4258291
:1005B000F582E5F03583F583E493A3C0E0E493C0CE
:1005C000E022D083D082CCC0E0E493A36006120581
:1005D000EC1470FAE493A3600612060B1470FAD0C0
:1005E000E0FCE493A3C0E0E493C0E022C0E0E49325
:1005F000A3D39C5010E493A3C39C400AD0E0D0E066
:10060000D0E00205DFA3A3A3D0E022C0E0E493A3DF
:100610006C7009D0E0D0E0D0E00205DFA3A3D0E009
:100620002274F812042E7408120424E0FEA3E0FFE2
:10063000740A120424E0F8A3E0F9EA64017001EB03
:100640007031ECFAEDFBC3EA9EEB9F50648882891F
:1006500083E0C0E0EA2400F582EB34F4F583D0E0D7
:10066000F088828983A3A882A983EA24010AEB3453
:100670000080D274E090FFF0F0F0749390FFF1F0FE
:10068000ECFAED802488828983E0C0E0EA2400F55A
:1006900082EB34F0F583D0E0F088828983A3A882CE
:1006A000A983EA24010AEB3400FBC3EA9EEB9F40D6
:1006B000D47F0102048DC0E0C0D0C082C0837586A3
:1006C00001908001E004F0908000E0F583908001CB
:1006D000E0F58200758600E0F5F775B501D083D0AE
:1006E00082D0D0D0E032C0E0C0D0C082C083758656
:1006F00001908000E0F583908001E0F582E5F675D9
:100700008600F0758601E004F075860075B502D0AC
:1007100083D082D0D0D0E03275B58032C0E0C0D076
:10072000C082C08374F055F41205C2000500490769
:10073000104907204907803E07903E075E077583F2
:1007400081740F55F42470801CE5F47004740180EA
:1007500001E490800FF075838185F48280097583B0
:10076000FF747F55F4F582758601E583908000F073
:10077000E582908001F075860000E0F5F775B540E0
:10078000D083D082D0D0D0E03274F812042E75F22B
:100790004053AEF043AE0575B5C375F10043B243A7
:1007A00043B6437F0102048D75B9013275B9043235
:1007B00043C10375B9023243C10C75B9083274F1F3
:1007C00012042E8A088B098C0A8D0B9000C0780CBD
:1007D0001202F280089000C4780C12029F78087907
:1007E0000C12021C40EF7F0802048D74F812042ED4
:1007F00075B1007587FF758990758A82758E8075D1
:100800008B8175938075A5FF75A6FF75A7017591FE
:10081000FF75920B75929075B1017F0102048D7482
:10082000F812042E75A60075800075906075C000E2
:1008300075A80075A90075AA0075AB0075AC0075A8
:10084000AD0075A10075A20075A300E5B0D2E0F57A
:10085000B07F0102048D74F112042E74FB1203EEBA
:100860007A008025EAF8741028F58274F43400F5D3
:1008700083E0C0E0851882851983E58228F582E54A
:10088000833400F583D0E0F00AEAC3940540D574C0
:1008900004120424E07003020990750A007509002F
:1008A0007401120424E0F50BFE7402120424E0F536
:1008B0000C650B70048E08802CA80CEEC398FAE42B
:1008C0009400FB1219BBC3EA9402EB9400A2D26518
:1008D000D0334008759290750A018009EEC3950CDB
:1008E00040D3850C08E50A7033E50812058C000733
:1008F0001C090C0907090209020911091609160940
:10090000160975929080157592A080107592B0802E
:100910000B759280800675928075090174016509D6
:10092000851882851983702BE0C39EF8E49400F942
:10093000E82404F8E93400F9C3E89400E99400A23B
:10094000D265D0335005750800800BE0C3950B24A9
:10095000048001E0F508E50812058C000790098D78
:10096000098D09880983096F09740979097E097558
:10097000920B801C75920A801775920980127592ED
:1009800008800D75920C800875920D800375920E8B
:100990007A017B0074051203FD7F0802048DC0E01C
:1009A00074F21204C8740865D175D118704275A527
:1009B0001075DE0375E1400000000075D110900055
:1009C000CEE493F8740193F988828983E09080489B
:1009D000F0A3E4F0E82401F582E93400F583E0F9BE
:1009E000908048E0F0A3E049F07401908045804198
:1009F00075A50875DE0475E1400000000075D1089A
:100A00009000CCE493F8740193F988828983E09094
:100A10008046F0A3E4F09000CC932401F8A3E49383
:100A20003400F988828983E0F9908046E0F0A3E001
:100A300049F075B9407F0102052074F512042E7546
:100A4000D30075D40375D71075D63F75E20075EAEB
:100A50007475E30075EB7075ED1F745090FF93F0A3
:100A6000743090FF94F0741590FFA6F090FFA8F0FA
:100A700075EE0075DF0275DB0675A50875D1187572
:100A8000DE0390020178081202F2AA08AB09AC0A50
:100A9000AD0B1207BE7F0402048D74F812042E758C
:100AA000E140EA2480F5DAE5B7D2E6F5B77F010246
:100AB000048D74F012042E74FC1203EEEAFEEBFFB8
:100AC0008C0C8D0D750F00020B5DE50EC333F8E441
:100AD00033F9851882851983E58228F582E5833903
:100AE000F583E0FAA3E0FB744028F582748039F5C1
:100AF00083EAF0A3EBF0743828F582748039F5832B
:100B0000EAF0A3EBF0742028F582748039F583E4D1
:100B1000F0A3F0742828F582748039F583EAF0A3F5
:100B2000EBF0742C28F582748039F583EAF0A3EB9E
:100B3000F0743028F582748039F583EAF0A3EBF085
:100B4000743428F582748039F583EAF0A3EBF0055C
:100B50000EE50EC394025003020ACA050FE50FC347
:100B60009405750E0050638055E50EC333F8E433E9
:100B7000F9744628F582748039F583E0FAA3E0FB26
:100B8000851882851983E58228F582E58339F58306
:100B9000EAF0A3EBF074D028F582740039F583E411
:100BA00093F8740193F9EA88828983F0EBC0E0E856
:100BB0002401F582E93400F583D0E0F0050EE50E5E
:100BC000C3940240A4750E0080878070EAC333F896
:100BD000E433F9851882851983E58228F582E58357
:100BE00039F583E0F8A3E0F9850F0AE50AC333F588
:100BF0000AE433F50BEA75F00AA4F50885F010E570
:100C000010F509EE2508F508EF3509F509E5082581
:100C10000AF582E509350BF583E8F0A3E9F08808C9
:100C20008909750A00750B008C828D837808120281
:100C3000B9050FE50FC394054092050EE50EC39468
:100C400002502EAA0E8A0875090074027808120351
:100C5000DBE50C2508FCE50D3509FD9000C07808A2
:100C60001202F28C828D837808120312750F0080B5
:100C7000C2E4908044F0908012F0A3F0F50E80263C
:100C8000E50EC333F8E433F9741828F5827480391B
:100C9000F583E4F0A3F0743C28F582748039F58381
:100CA000E4F0A3F0050EE50EC3940240D3740412E1
:100CB00003FD7F0902048D74E912042E74FA1203F5
:100CC000EE851882851983EAF0A3EBF08C168D1758
:100CD000741D120424E0F514A3E0F515750E0080D0
:100CE0000F88828983E024FFF0A3E034FFF0050E33
:100CF000E50EC394024003020EC4AE0EEEC333F8F9
:100D0000E433F9742028F8748039F988828983E003
:100D1000FAA3E0FBEA7001EB70C7EEC333F8E433EB
:100D2000F9851882851983E028F508A3E039F509CB
:100D3000744028F50A748039F50B746828F50C7432
:100D40008039F50D743C28F8748039F9850882855E
:100D50000983E0FAA3E0FB850A82850B83C082C089
:100D600083850C82850D83E0F510A3E0F511D08317
:100D7000D082E0C39510FCA3E09511FDC3EA9CEB83
:100D80009D888289835032E0FAA3E0FBC3EA941E77
:100D9000EB940088828983500AE02401F0A3E034B8
:100DA000008019E4F0A3F0850882850983E0FAA3A6
:100DB000E0FBA90E120F798004E4F0A3F08508820D
:100DC000850983E0F8A3E0F9850A82850B83E0FAC0
:100DD000A3E0FB850C82850D83E0FCA3E0FDEAC364
:100DE0009CF50AEB9DF50BC3E50A98E50B994003CA
:100DF000020CEEEA2CFAEB3DFBC3E89AE99B4003B8
:100E0000020CEE8E0A750B007402780A1203DBE501
:100E100014250AFAE515350BFBEE75F00AA4F8A9BE
:100E2000F0E51628FCE51739FD908044E0C333F85F
:100E3000E433F9EC28F582ED39F583E0F510A3E011
:100E4000F5117512007513008A828B8378101202D7
:100E5000CF850882850983E0F510A3E0F5118A8229
:100E60008B8378101202B9850882850983E0F50822
:100E7000A3E0F509908044E0C333F8E433F9EC28AB
:100E8000F582ED39F583E508F0A3E509F08A828B58
:100E90008378101202E390020578081202F27810AB
:100EA000790812022CEEC333FEE433FF74021204FD
:100EB00024E5822EF582E5833FF583E510F0A3E576
:100EC00011020CED908044E00475F00584E5F0F02B
:100ED000908012E0F8A3E0F9E89428E9940090806B
:100EE000125003020F66E4F0A3F0F50EE50EC39472
:100EF00002507CE50EC333F8E433F9742028F58200
:100F0000748039F583E0FAA3E0FBEA7001EB7052DC
:100F1000744028F582748039F583E0FEA3E0FF7405
:100F20006828F582748039F583E0FCA3E0FD740243
:100F3000120424E58228F582E58339F583E0FAA3DB
:100F4000E0FBEEC39CF8EF9DF9C3E89AE99B5012D1
:100F5000EE2CF8EF3DF9C3EA98EB995005A90E1273
:100F60000F79050E8086E02401F0A3E03400F074D0
:100F7000061203FD7F1002048D74F812042EE9C3DB
:100F800033F8E433F9744028F582748039F583EA44
:100F9000F0A3EBF074D028F582740039F583E49364
:100FA000F8740193F988828983EAF0A3EBF07F015A
:100FB00002048D74F812042E8A828B83A3A3A3A348
:100FC000E0FEA3E0FF8A828B83A3A3E0FCA3E0FD05
:100FD000C3EE9CEF9D8A828B83E0FAA3E0FB40186E
:100FE000C3EC9AED9B4005ECF8ED801DC3EA9EEB47
:100FF0009F4013EEF8EF8011C3EE9AEF9B50F4C3BD
:10100000EA9CEB9D50E1EAF8EBF9E8FAE9FB7F0195
:1010100002048D74E912042E74EE1203EE751000B2
:101020000210CAE510C333FCE433FD74462CF5828C
:1010300074803DF583E0F508A3E0F50974382CF5DC
:101040008274803DF583E508F0A3E509F074D02CA7
:10105000F58274003DF583E493FA740193FB740602
:10106000120424E5822CF8E5833DF98A828B83E023
:1010700088828983F0A3E4F0EA2401F582EB34004E
:10108000F583E0FB88828983E0F0A3E04BF088825F
:101090008983E0F8A3E0F9740B2CF58274803DF5A8
:1010A00083E8F0A3E9F074072CF58274803DF583A2
:1010B000E508F0A3E509F0745B2CF58274803DF53A
:1010C00083E508F0A3E509F00510E510C39402508C
:1010D00003021023751000021188C3EA98EB99509F
:1010E0000D8E828F83E024FFF0A3E034FFF08C822A
:1010F0008D83E0F50CA3E0F50DE50CC333F8E50DA9
:1011000033F98E828F83E028F8A3E039F97A037BE4
:101110000012036F740C120424E8F0A3E9F0743495
:101120002508F50A74803509F50B740C120424E0C7
:10113000250CF8A3E0350DF9850A82850B83E0289C
:10114000F8A3E039F97A037B0012036F8E828F8354
:10115000E8F0A3E9F0850A82850B83E50CF0A3E5AE
:101160000DF0740C120424E0FAA3E0FB8C828D8352
:10117000EAF0A3EBF074072508F58274803509F5D1
:1011800083E8F0A3E9F00510E510C39402400302E0
:10119000125E851008E508C333F508E433F50974D9
:1011A000382508FE74803509FF8E828F83E0F50CA8
:1011B000A3E0F50D740C120424E50CF0A3E50DF08A
:1011C00074282508FA74803509FB8A828B83E0F540
:1011D0000AA3E0F50B740E120424E50AF0A3E50B54
:1011E000F0742C2508F874803509F988828983E029
:1011F000FCA3E0FD7410120424ECF0A3EDF088824F
:101200008983E50AF0A3E50BF08A828B83E50CF075
:10121000A3E50DF0740C120424AA82AB83120FB361
:101220008E828F83EAF0A3EBF08E828F83E0F8A3A7
:10123000E0F974302508FC74803509FD8C828D83BB
:10124000E0FAA3E0FBC3E89AE99B40030210DA8EC0
:10125000828F83E02401F0A3E034000210ED750CCE
:1012600000750D0075100080488A828B83E4F0A31E
:10127000F0850882850983F0A3F08C828D83F0A32A
:10128000F085128285138374FFF0A3740FF08882B7
:101290008983E4F0A3F07414250AF5827480350B79
:1012A000F583E4F0A3F0850882850983F0A3F005B7
:1012B00010E510C39402400302190585100AE50ADF
:1012C000C333F50AE433F50B7406120424E58225D2
:1012D0000AF582E583350BF583E0F8A3E0F9740A9B
:1012E000120424E8F0A3E9F0851882851983E582C9
:1012F000250AF8E583350BF97438250AF51474804E
:10130000350BF515851482F583C082C083740A12EB
:101310000424E0FAA3E0FBD083D082E0C39AFCA3CC
:10132000E09BFD88828983ECF0A3EDF088828983BD
:10133000E0FEA3E0FF7403250AF87480350BF9740E
:1013400004120424E8F0A3E9F07453250AF5167496
:1013500080350BF5177407250AF5127480350BF5E7
:10136000137457250AF5087480350BF50974C825E0
:101370000AF50E7400350BF50FC3EE9400EF9400E0
:10138000A2D265D033400302140B7404120424E08B
:10139000F8A3E08882F583E4F0A3F0851682851730
:1013A00083F0A3F0851282851383E0C39EF8A3E047
:1013B0009FF9C3E89403E994084019E824FE18183B
:1013C000E934F7F97A037B0012036FE82402FAE9A3
:1013D0003408801D7402C398F8740899F97A037B65
:1013E0000012036F8812891374029512FA7408951B
:1013F00013FB850882850983EAF0A3EBF085088258
:10140000850983E0F8A3E0F9021518EEFAEFFB1264
:1014100019BB7404120424E0F8A3E08882F583EA7F
:10142000F0A3EBF0EEFAEFFB1219BB8516828517DD
:1014300083EAF0A3EBF0908071E0F8A3E0F9C3E851
:101440009402E994004021EEFAEFFB1219BBEAF88E
:10145000EBF9908071E0FAA3E0FB12036F8516822E
:10146000851783E8F0A3E9F0851682851783E0F8F5
:10147000A3E0F9C3E8942CE99401501774D428F53B
:1014800082740039F583E493851682851783F0A36F
:10149000E4801E900200E493FC7A057B0012036F47
:1014A000EC2AF8E43400F9851682851783E8F0A366
:1014B000E9F0851282851383E0C39EF8A3E09FF9CB
:1014C000C3E89403E994084019E824FE1818E934A5
:1014D000F7F97A037B0012036FE82402FAE9340873
:1014E000801D7402C398F8740899F97A037B00127E
:1014F000036F8812891374029512FA74089513FB0E
:10150000851682851783E02AF8A3E03BF9850882D7
:10151000850983E8F0A3E9F0850E82850F83E493C3
:10152000FC740193FDE9C0E0EC2470FAED3401FB9A
:10153000E42AF58274813BF583D0E0F0E8C0E0EC6A
:101540002471F8ED3401F9E428F582748139F583CA
:10155000D0E0F07418250AF5087480350BF509857C
:101560000882F583E0FAA3E0FB7464250AF874802E
:10157000350BF990806CE0FCC3EA9CEB9400888208
:101580008983E0500C2405F50EA3E03400F50F80AC
:101590002324FBF50EA3E034FFF50FC3EA94D1EB4F
:1015A00094074010851482851583E0FAA3E0FBA917
:1015B00010120F79851482851583E0FAA3E0FB747D
:1015C00068250AF5147480350BF5157424250AF581
:1015D000127480350BF513740A120424C082C08380
:1015E000851482851583E0F8A3E0F9D083D082E0EA
:1015F00028F8A3E039F9C3E89AE99B503F740A122E
:101600000424E0250EF8A3E0350FF9C3EA98EB991E
:10161000502A851282851383E02401F0A3E0340070
:10162000F0851282851383E0F8A3E0F9C3E894976C
:10163000E99400402AA910120F798023EEFAEFFBFB
:101640001219BB851482851583E0F8A3E0F9C3EA7B
:1016500098EB99500A851282851383E4F0A3F07405
:101660001C250AFA7480350BFB744B250AFC748028
:10167000350BFD746D250AF5127480350BF5137466
:101680004F250AF87480350BF9C3E50E9EE50F9FD0
:10169000A2D265D03340030218CB88828983E0FE52
:1016A000A3E0FFC3EE940AEF9400400302180D85F7
:1016B0000882850983E0FEA3E0FF90806CE0F514CA
:1016C000C3EE9514EF9400500302180D745B250AC5
:1016D000FE7480350BFF8E828F83E0F514A3E0F556
:1016E00015851282851383E0F50AA3E0F50BC3E5A7
:1016F00014950AE515950B500D851282851383E527
:1017000014F0A3E515F08E828F83E0F50AA3E0F5CF
:101710000B8C828D83E0FEA3E0FFC3EE950AEF956C
:101720000B500B8C828D83E50AF0A3E50BF08882C9
:101730008983E0FEA3E0FFEE64097001EF6003021D
:1017400018008C828D83C082C083851282851383AA
:10175000E0F50AA3E0F50BD083D082E0C3950AFE42
:10176000A3E0950BFFC3EE9429EF9400402D740481
:10177000120424E0F50AA3E0850A82F583E0F50A65
:10178000A3E0F50BC3E50A942CE50B9401A2D26506
:10179000D033400790807174028061C3EE941EEFD5
:1017A0009400503A908071E0F50AA3E0F50BE50A49
:1017B00064027002E50B70267404120424E0F50A3A
:1017C000A3E0850A82F583E0F50AA3E0F50BC3E503
:1017D0000A948DE50B9400A2D265D0335019C3EE64
:1017E000941EEF94004010908071E0FEA3E0FFEEA5
:1017F00064027001EF609D9080717401F0A3E4F0C9
:1018000088828983E02401F0A3E03400F088828993
:1018100083E0FEA3E0FFC3EE940AEF9400401D8C2A
:10182000828D83E4F0A3F085128285138374FFF028
:10183000A3740FF088828983E4F0A3F08508828581
:101840000983E0FEA3E0FFC3EE94A4EF94065029C1
:10185000851682851783E0F50AA3E0F50BC3E50E34
:10186000950AE50F950B5011850882850983E024C0
:1018700001F0A3E034000212AE90806CE0C39EE45D
:101880009F501B8A828B83E0FEA3E0FFEE7001EF86
:10189000700C8A828B837401F0A3E40212AE8A82F8
:1018A0008B83E4F0A3F0850882850983F0A3F08C94
:1018B000828D83F0A3F085128285138374FFF0A3D9
:1018C000740FF088828983E40212AC90806CE0F59A
:1018D0000E850882850983E0FEA3E0FFC3E50E9E26
:1018E000E49F40030212698A828B83E0FEA3E0FF3B
:1018F000EE7001EF60030212698A828B837401F03B
:10190000A3E4021295908010E0F8A3E0F9E87001DA
:10191000E9603F908010E024FFF8A3E034FFF9E88D
:10192000C333F8E933F9741828F582748039F583E4
:10193000E0F8A3E0F990806CE0FA7B00C3E89AE954
:101940009400400A908010E0FAA3E0FB80637A00E4
:10195000805F75100080020510E510C39402504DA1
:10196000A810E8C333FAE433FB74182AF5827480B4
:101970003BF583E0FCA3E0FD90806CE0FEC3EC9EB1
:10198000ED940040D274242AF58274803BF583E400
:10199000F0A3F074202AF58274803BF5837464F020
:1019A000A3E4F0E82401F50CE43400F50DAA0CAB37
:1019B0000D74121203FD7F1002048D74F812042EB0
:1019C000C3EA9400EB9400A2D265D033500BC3E479
:1019D0009AF8E49BF9E8FAE9FB7F0102048D74F5BB
:1019E00012042E74F91203EE7E00E5E1C2E5F5E182
:1019F00075E304E4908045F0E5E1D2E6F5E18E0878
:101A00008E0979008006E060FDE4F009E9C39402E4
:101A100040F47900802DE060FD908046E0FAA3E07C
:101A2000FB851882851983EAF0A3EBF0851882857F
:101A30001983E02508F508A3E03509F509E490804D
:101A400045F009E9C3940440CD740278081203CC30
:101A5000E508908117F0E509908116F0E5E1C2E50F
:101A6000F5E18EE3E4908045F0E5E1D2E6F5E10EA4
:101A700079008009908045E060FAE4F009E9C394B8
:101A80000240F17900801CE9C333FAE433FB851886
:101A900082851983E5822AF582E5833BF583E4F0AC
:101AA000A3F009E9C3940240DE7800803AE9C33329
:101AB000FCE433FD74462CF58274803DF583E0FA36
:101AC000A3E0FB851882851983E5822CF582E583E6
:101AD0003DF583E02AF0A3E03BF009E9C39402401E
:101AE000CCE4908045F008E8C39404500A90804507
:101AF000E060FA790080E479008069E9C333FAE4B0
:101B000033FB851882851983E5822AFAE5833BFB3E
:101B10008A828B83E0F50AA3E0F50B7402780A123F
:101B200003CC8A828B83E50AF0A3E50BF0E9C3338B
:101B3000FAE433FBEA241AFAEB3400FBE42AF582D8
:101B400074813BF583E50BF0E9C333FAE433FBEA38
:101B5000241BFAEB3400FBE42AF58274813BF58305
:101B6000E50AF009E9C394024091780079008027E2
:101B700008E0FAA3E0FB8A828B83E0C0E0EC241843
:101B8000FAE43400FBE42AF58274813BF583D0E06B
:101B9000F0EE908115F009E9C394025073E9FCC39B
:101BA00033F50AE433F50B851882851983E5822520
:101BB0000AF582E583350BF583E0FAA3E0FB747345
:101BC000250AF5827480350BF583E508244BF50A68
:101BD000E5093400F50BEA950AEB950B400DE0FAA8
:101BE000A3E0FB8A828B83E00480AAE50824F1F558
:101BF0000AE50934FFF50BC3E50A9AE50B9B500390
:101C0000021B70E0FAA3E0FB8A828B83E0148085DC
:101C1000E8C394025003021A6F7455C0E0740412B2
:101C20000424D0E0F0908073E0F8A3E0F988828982
:101C300083E0C0E07405120424D0E0F0908075E0E9
:101C4000F8A3E0F988828983E0C0E07406120424D6
:101C5000D0E0F07404120424858208858309780892
:101C600012057975080375090078081205797C005A
:101C70007D007A027B0012062174041203FD7407B2
:101C80001203FD7F0402048D74F812042E74FD12F9
:101C900003EE7C008024ECF8E428F58274F0340034
:101CA000F583E0C0E0851882851983E58228F582F6
:101CB000E5833400F583D0E0F00CECC3940340D608
:101CC000851882851983E0645570447C00803AEC65
:101CD000F82401FAE43400FB851882851983E58233
:101CE0002AF582E5833BF583E0C0E0E8C333F8E4FE
:101CF00033F9747328F582748039F583E0F8A3E032
:101D0000F988828983D0E0F00CECC3940240C0745F
:101D1000031203FD7F0102048D74F512042E1207D5
:101D2000EB12081F120A3A7A007B00120A9A9002FC
:101D30000978081202F2AA08AB09AC0AAD0B120727
:101D4000BE12078975B1017F0402048D74F8120474
:101D50002E740169700575900080037590607F0195
:101D600002048D74F812042E908100E01205C20066
:101D70000210791D207F1D861D7A00790180047A6A
:101D8000007900121D4C908120E01205C20002551E
:101D90009D1DAA971DA11D740190804AF0740180B9
:101DA00001E4908061F07F0102048D74F812042E2A
:101DB000E4908100F090205893908101F07401909C
:101DC0008102F0E4908103F0742D908104F0E4909E
:101DD0008105F0908106F0908107F0908108F090E5
:101DE0008109F090810AF090810BF090810CF090C5
:101DF000810DF090810EF090810FF0908110F090A5
:101E00008111F074A1908112F0E4908113F090811F
:101E100020F07F0102048D74F512042E74026A70A2
:101E2000057408298001E9908100F07F00EFC394D8
:101E30000B504F7E0078007900E5A3C2E0F5A3E5E2
:101E4000B0C2E0F5B090800FE064017004E4F0806F
:101E500013E8240108E93400F9C3E894DDE99405A6
:101E600040E30E0FE5A3D2E0F5A390020D7808122F
:101E700002F2AA08AB09AC0AAD0B1207BE74016EE0
:101E800060AB7F0402048D74F812042E743F55F386
:101E900070FA90805FE0908107F0908054E090812C
:101EA0000AF0908053E090810BF0908055E0F8A309
:101EB000E090810CF0E890810DF0908058E09081E6
:101EC0000EF0908057E090810FF0908059E0F8A3D9
:101ED000E0908110F0E8908111F074A1908112F0EF
:101EE00074AA908114F07F0102048D74E41203EE51
:101EF00075CC08121DAB121D19120856E59290817F
:101F000021F0121C88908073E0F8A3E0F9888289A0
:101F100083E0908118F0908075E0F8A3E0F9888262
:101F20008983E0908119F090021578081202F2AAD4
:101F300008AB09AC0AAD0B1207BE85188285198360
:101F4000AC82AD837408120424AA82AB83120AB255
:101F5000E4908100F0908002F090805FF0A3F09018
:101F60008062F0A3F07E018021E0F8A3E0F9E87040
:101F700001E9600E7A02908010E0F9121E17E4F079
:101F8000A3F0E4908045F0121E87747F5E700C9081
:101F90008062E02401F0A3E03400F00E121D639093
:101FA0008061E0640170351219DE90021178081228
:101FB00002F2AA08AB09AC0AAD0B1207BE85188263
:101FC000851983AC82AD837408120424AA82AB8382
:101FD000120AB2E4908120F0908061F0908045E098
:101FE000640170A385188285198385820885830919
:101FF0007808120579740A120424AC82AD837A3809
:102000007B80120CB774021203FD121013EA908049
:10201000107003021F69E0F8A3E0F9E86A7001E9B3
:102020007003021F82908010EAF0A3E4F07A01901E
:102030008010E0F9121E1790805FE02401F0A3E009
:102040003400021F812D002D000F000F0003FF0F31
:09205000FF0F010093FF94FF0B48
:00000001FF
